{
	"src/Rollup.sol": {
		"Rollup": {
			"abi": [
				{
					"inputs": [],
					"stateMutability": "nonpayable",
					"type": "constructor"
				},
				{
					"anonymous": false,
					"inputs": [
						{
							"indexed": true,
							"internalType": "address",
							"name": "from",
							"type": "address"
						},
						{
							"indexed": true,
							"internalType": "uint256",
							"name": "chainLength",
							"type": "uint256"
						},
						{
							"indexed": true,
							"internalType": "uint256",
							"name": "anchorBlock",
							"type": "uint256"
						},
						{
							"indexed": false,
							"internalType": "bytes",
							"name": "accountBlob",
							"type": "bytes"
						},
						{
							"indexed": false,
							"internalType": "bytes",
							"name": "nonceBlob",
							"type": "bytes"
						},
						{
							"indexed": false,
							"internalType": "bytes",
							"name": "proof",
							"type": "bytes"
						}
					],
					"name": "NewState",
					"type": "event"
				},
				{
					"inputs": [
						{
							"internalType": "uint256",
							"name": "tokenId",
							"type": "uint256"
						}
					],
					"name": "account",
					"outputs": [
						{
							"internalType": "bytes6",
							"name": "",
							"type": "bytes6"
						}
					],
					"stateMutability": "view",
					"type": "function"
				},
				{
					"inputs": [],
					"name": "chainLength",
					"outputs": [
						{
							"internalType": "uint256",
							"name": "",
							"type": "uint256"
						}
					],
					"stateMutability": "view",
					"type": "function"
				},
				{
					"inputs": [
						{
							"internalType": "uint256",
							"name": "anchorBlock",
							"type": "uint256"
						},
						{
							"internalType": "bytes",
							"name": "accountBlob",
							"type": "bytes"
						},
						{
							"internalType": "bytes",
							"name": "nonceBlob",
							"type": "bytes"
						},
						{
							"internalType": "bytes",
							"name": "proof",
							"type": "bytes"
						}
					],
					"name": "commitState",
					"outputs": [],
					"stateMutability": "nonpayable",
					"type": "function"
				},
				{
					"inputs": [
						{
							"internalType": "uint256",
							"name": "io",
							"type": "uint256"
						}
					],
					"name": "latestStateAddress",
					"outputs": [
						{
							"internalType": "address",
							"name": "",
							"type": "address"
						}
					],
					"stateMutability": "view",
					"type": "function"
				},
				{
					"inputs": [
						{
							"internalType": "uint256",
							"name": "tokenId",
							"type": "uint256"
						}
					],
					"name": "nonce",
					"outputs": [
						{
							"internalType": "bytes6",
							"name": "",
							"type": "bytes6"
						}
					],
					"stateMutability": "view",
					"type": "function"
				},
				{
					"inputs": [
						{
							"internalType": "uint256",
							"name": "at",
							"type": "uint256"
						},
						{
							"internalType": "bytes4",
							"name": "selector",
							"type": "bytes4"
						},
						{
							"internalType": "uint256",
							"name": "tokenId",
							"type": "uint256"
						}
					],
					"name": "state",
					"outputs": [
						{
							"internalType": "bytes6",
							"name": "",
							"type": "bytes6"
						}
					],
					"stateMutability": "view",
					"type": "function"
				},
				{
					"inputs": [
						{
							"internalType": "uint256",
							"name": "at",
							"type": "uint256"
						},
						{
							"internalType": "bytes4",
							"name": "selector",
							"type": "bytes4"
						}
					],
					"name": "stateAddress",
					"outputs": [
						{
							"internalType": "address",
							"name": "",
							"type": "address"
						}
					],
					"stateMutability": "view",
					"type": "function"
				}
			],
			"devdoc": {
				"custom:security-contact": "info@whynotswitch.com",
				"kind": "dev",
				"methods": {},
				"version": 1
			},
			"evm": {
				"assembly": "    /* \"src/Rollup.sol\":281:2979  contract Rollup is IRollup {... */\n  mstore(0x40, 0x80)\n    /* \"src/Rollup.sol\":347:590  constructor() {... */\n  callvalue\n  dup1\n  iszero\n  tag_1\n  jumpi\n  revert(0x00, 0x00)\ntag_1:\n  pop\n    /* \"src/Rollup.sol\":371:442  SSTORE2.writeDeterministic(hex\"00\", _pointer(this.account.selector, 0)) */\n  tag_4\n  mload(0x40)\n  dup1\n  0x40\n  add\n  0x40\n  mstore\n  dup1\n  0x01\n  dup2\n  mstore\n  0x20\n  add\n  0x00\n  dup2\n  mstore\n  pop\n    /* \"src/Rollup.sol\":407:441  _pointer(this.account.selector, 0) */\n  tag_5\n    /* \"src/Rollup.sol\":416:437  this.account.selector */\n  shl(0xe0, 0x2dd7c658)\n    /* \"src/Rollup.sol\":439:440  0 */\n  0x00\n    /* \"src/Rollup.sol\":407:415  _pointer */\n  shl(0x20, tag_6)\n    /* \"src/Rollup.sol\":407:441  _pointer(this.account.selector, 0) */\n  0x20\n  shr\n  jump\t// in\ntag_5:\n    /* \"src/Rollup.sol\":371:397  SSTORE2.writeDeterministic */\n  shl(0x20, tag_7)\n    /* \"src/Rollup.sol\":371:442  SSTORE2.writeDeterministic(hex\"00\", _pointer(this.account.selector, 0)) */\n  0x20\n  shr\n  jump\t// in\ntag_4:\n  pop\n    /* \"src/Rollup.sol\":452:521  SSTORE2.writeDeterministic(hex\"00\", _pointer(this.nonce.selector, 0)) */\n  tag_8\n  mload(0x40)\n  dup1\n  0x40\n  add\n  0x40\n  mstore\n  dup1\n  0x01\n  dup2\n  mstore\n  0x20\n  add\n  0x00\n  dup2\n  mstore\n  pop\n    /* \"src/Rollup.sol\":488:520  _pointer(this.nonce.selector, 0) */\n  tag_9\n    /* \"src/Rollup.sol\":497:516  this.nonce.selector */\n  shl(0xe0, 0xce03fdab)\n    /* \"src/Rollup.sol\":518:519  0 */\n  0x00\n    /* \"src/Rollup.sol\":488:496  _pointer */\n  shl(0x20, tag_6)\n    /* \"src/Rollup.sol\":488:520  _pointer(this.nonce.selector, 0) */\n  0x20\n  shr\n  jump\t// in\ntag_9:\n    /* \"src/Rollup.sol\":452:478  SSTORE2.writeDeterministic */\n  shl(0x20, tag_7)\n    /* \"src/Rollup.sol\":452:521  SSTORE2.writeDeterministic(hex\"00\", _pointer(this.nonce.selector, 0)) */\n  0x20\n  shr\n  jump\t// in\ntag_8:\n  pop\n    /* \"src/Rollup.sol\":560:561  0 */\n  0x00\n    /* \"src/Rollup.sol\":557:558  0 */\n  0x00\n    /* \"src/Rollup.sol\":545:555  msg.sender */\n  caller\n    /* \"src/Rollup.sol\":536:583  NewState(msg.sender, 0, 0, hex\"\", hex\"\", hex\"\") */\n  0xffffffffffffffffffffffffffffffffffffffff\n  and\n  0x3fcf41a2be2012a96cae109f207d554df9e27d6dcc28fe2c5f8ca38fe35821b6\n  mload(0x40)\n  tag_10\n  swap1\n  tag_11\n  jump\t// in\ntag_10:\n  mload(0x40)\n  dup1\n  swap2\n  sub\n  swap1\n  log4\n    /* \"src/Rollup.sol\":281:2979  contract Rollup is IRollup {... */\n  jump(tag_12)\n    /* \"src/Rollup.sol\":2827:2977  function _pointer(bytes4 selector, uint256 at) private pure returns (bytes32) {... */\ntag_6:\n    /* \"src/Rollup.sol\":2896:2903  bytes32 */\n  0x00\n    /* \"src/Rollup.sol\":2947:2955  selector */\n  dup3\n    /* \"src/Rollup.sol\":2965:2967  at */\n  dup3\n    /* \"src/Rollup.sol\":2930:2969  abi.encodePacked(selector, uint224(at)) */\n  add(0x20, mload(0x40))\n  tag_14\n  swap3\n  swap2\n  swap1\n  tag_15\n  jump\t// in\ntag_14:\n  mload(0x40)\n  0x20\n  dup2\n  dup4\n  sub\n  sub\n  dup2\n  mstore\n  swap1\n  0x40\n  mstore\n    /* \"src/Rollup.sol\":2922:2970  bytes32(abi.encodePacked(selector, uint224(at))) */\n  tag_16\n  swap1\n  tag_17\n  jump\t// in\ntag_16:\n    /* \"src/Rollup.sol\":2915:2970  return bytes32(abi.encodePacked(selector, uint224(at))) */\n  swap1\n  pop\n    /* \"src/Rollup.sol\":2827:2977  function _pointer(bytes4 selector, uint256 at) private pure returns (bytes32) {... */\n  swap3\n  swap2\n  pop\n  pop\n  jump\t// out\n    /* \"solady@0.1.7/src/utils/SSTORE2.sol\":4961:6460  function writeDeterministic(bytes memory data, bytes32 salt)... */\ntag_7:\n    /* \"solady@0.1.7/src/utils/SSTORE2.sol\":5056:5071  address pointer */\n  0x00\n    /* \"solady@0.1.7/src/utils/SSTORE2.sol\":5168:5172  data */\n  dup3\n    /* \"solady@0.1.7/src/utils/SSTORE2.sol\":5162:5173  mload(data) */\n  mload\n    /* \"solady@0.1.7/src/utils/SSTORE2.sol\":5199:5222  _CREATE3_PROXY_INITCODE */\n  0x67363d3d37363d34f03d5260086018f3\n    /* \"solady@0.1.7/src/utils/SSTORE2.sol\":5193:5197  0x00 */\n  0x00\n    /* \"solady@0.1.7/src/utils/SSTORE2.sol\":5186:5223  mstore(0x00, _CREATE3_PROXY_INITCODE) */\n  mstore\n    /* \"solady@0.1.7/src/utils/SSTORE2.sol\":5304:5308  salt */\n  dup3\n    /* \"solady@0.1.7/src/utils/SSTORE2.sol\":5298:5302  0x10 */\n  0x10\n    /* \"solady@0.1.7/src/utils/SSTORE2.sol\":5292:5296  0x10 */\n  dup1\n    /* \"solady@0.1.7/src/utils/SSTORE2.sol\":5289:5290  0 */\n  0x00\n    /* \"solady@0.1.7/src/utils/SSTORE2.sol\":5281:5309  create2(0, 0x10, 0x10, salt) */\n  create2\n    /* \"solady@0.1.7/src/utils/SSTORE2.sol\":5332:5337  proxy */\n  dup1\n    /* \"solady@0.1.7/src/utils/SSTORE2.sol\":5322:5455  if iszero(proxy) {... */\n  tag_19\n  jumpi\n    /* \"solady@0.1.7/src/utils/SSTORE2.sol\":5370:5380  0x30116425 */\n  0x30116425\n    /* \"solady@0.1.7/src/utils/SSTORE2.sol\":5364:5368  0x00 */\n  0x00\n    /* \"solady@0.1.7/src/utils/SSTORE2.sol\":5357:5381  mstore(0x00, 0x30116425) */\n  mstore\n    /* \"solady@0.1.7/src/utils/SSTORE2.sol\":5436:5440  0x04 */\n  0x04\n    /* \"solady@0.1.7/src/utils/SSTORE2.sol\":5430:5434  0x1c */\n  0x1c\n    /* \"solady@0.1.7/src/utils/SSTORE2.sol\":5423:5441  revert(0x1c, 0x04) */\n  revert\n    /* \"solady@0.1.7/src/utils/SSTORE2.sol\":5322:5455  if iszero(proxy) {... */\ntag_19:\n    /* \"solady@0.1.7/src/utils/SSTORE2.sol\":5481:5486  proxy */\n  dup1\n    /* \"solady@0.1.7/src/utils/SSTORE2.sol\":5475:5479  0x14 */\n  0x14\n    /* \"solady@0.1.7/src/utils/SSTORE2.sol\":5468:5487  mstore(0x14, proxy) */\n  mstore\n    /* \"solady@0.1.7/src/utils/SSTORE2.sol\":5719:5725  0xd694 */\n  0xd694\n    /* \"solady@0.1.7/src/utils/SSTORE2.sol\":5713:5717  0x00 */\n  0x00\n    /* \"solady@0.1.7/src/utils/SSTORE2.sol\":5706:5726  mstore(0x00, 0xd694) */\n  mstore\n    /* \"solady@0.1.7/src/utils/SSTORE2.sol\":5753:5757  0x01 */\n  0x01\n    /* \"solady@0.1.7/src/utils/SSTORE2.sol\":5747:5751  0x34 */\n  0x34\n    /* \"solady@0.1.7/src/utils/SSTORE2.sol\":5739:5758  mstore8(0x34, 0x01) */\n  mstore8\n    /* \"solady@0.1.7/src/utils/SSTORE2.sol\":5834:5838  0x17 */\n  0x17\n    /* \"solady@0.1.7/src/utils/SSTORE2.sol\":5828:5832  0x1e */\n  0x1e\n    /* \"solady@0.1.7/src/utils/SSTORE2.sol\":5818:5839  keccak256(0x1e, 0x17) */\n  keccak256\n    /* \"solady@0.1.7/src/utils/SSTORE2.sol\":5807:5839  pointer := keccak256(0x1e, 0x17) */\n  swap3\n  pop\n    /* \"solady@0.1.7/src/utils/SSTORE2.sol\":5999:6000  n */\n  dup2\n    /* \"solady@0.1.7/src/utils/SSTORE2.sol\":5993:5997  0x40 */\n  0x40\n    /* \"solady@0.1.7/src/utils/SSTORE2.sol\":5989:6001  shl(0x40, n) */\n  shl\n    /* \"solady@0.1.7/src/utils/SSTORE2.sol\":5961:5987  0xfe61000180600a3d393df300 */\n  0xfe61000180600a3d393df300\n    /* \"solady@0.1.7/src/utils/SSTORE2.sol\":5957:6002  add(0xfe61000180600a3d393df300, shl(0x40, n)) */\n  add\n    /* \"solady@0.1.7/src/utils/SSTORE2.sol\":5947:5953  0xfffe */\n  0xfffe\n    /* \"solady@0.1.7/src/utils/SSTORE2.sol\":5944:5945  n */\n  dup4\n    /* \"solady@0.1.7/src/utils/SSTORE2.sol\":5941:5954  gt(n, 0xfffe) */\n  gt\n    /* \"solady@0.1.7/src/utils/SSTORE2.sol\":5935:5939  data */\n  dup7\n    /* \"solady@0.1.7/src/utils/SSTORE2.sol\":5931:5955  add(data, gt(n, 0xfffe)) */\n  add\n    /* \"solady@0.1.7/src/utils/SSTORE2.sol\":5924:6003  mstore(add(data, gt(n, 0xfffe)), add(0xfe61000180600a3d393df300, shl(0x40, n))) */\n  mstore\n    /* \"solady@0.1.7/src/utils/SSTORE2.sol\":6229:6233  0x00 */\n  0x00\n    /* \"solady@0.1.7/src/utils/SSTORE2.sol\":6217:6227  codesize() */\n  codesize\n    /* \"solady@0.1.7/src/utils/SSTORE2.sol\":6211:6214  0xb */\n  0x0b\n    /* \"solady@0.1.7/src/utils/SSTORE2.sol\":6208:6209  n */\n  dup5\n    /* \"solady@0.1.7/src/utils/SSTORE2.sol\":6204:6215  add(n, 0xb) */\n  add\n    /* \"solady@0.1.7/src/utils/SSTORE2.sol\":6197:6201  0x15 */\n  0x15\n    /* \"solady@0.1.7/src/utils/SSTORE2.sol\":6191:6195  data */\n  dup9\n    /* \"solady@0.1.7/src/utils/SSTORE2.sol\":6187:6202  add(data, 0x15) */\n  add\n    /* \"solady@0.1.7/src/utils/SSTORE2.sol\":6184:6185  0 */\n  0x00\n    /* \"solady@0.1.7/src/utils/SSTORE2.sol\":6177:6182  proxy */\n  dup6\n    /* \"solady@0.1.7/src/utils/SSTORE2.sol\":6170:6175  gas() */\n  gas\n    /* \"solady@0.1.7/src/utils/SSTORE2.sol\":6165:6234  call(gas(), proxy, 0, add(data, 0x15), add(n, 0xb), codesize(), 0x00) */\n  call\n    /* \"solady@0.1.7/src/utils/SSTORE2.sol\":6135:6142  pointer */\n  dup4\n    /* \"solady@0.1.7/src/utils/SSTORE2.sol\":6123:6143  extcodesize(pointer) */\n  extcodesize\n    /* \"solady@0.1.7/src/utils/SSTORE2.sol\":6043:6252  mul( // The arguments of `mul` are evaluated last to first.... */\n  mul\n    /* \"solady@0.1.7/src/utils/SSTORE2.sol\":6016:6383  if iszero(... */\n  tag_20\n  jumpi\n    /* \"solady@0.1.7/src/utils/SSTORE2.sol\":6298:6308  0x30116425 */\n  0x30116425\n    /* \"solady@0.1.7/src/utils/SSTORE2.sol\":6292:6296  0x00 */\n  0x00\n    /* \"solady@0.1.7/src/utils/SSTORE2.sol\":6285:6309  mstore(0x00, 0x30116425) */\n  mstore\n    /* \"solady@0.1.7/src/utils/SSTORE2.sol\":6364:6368  0x04 */\n  0x04\n    /* \"solady@0.1.7/src/utils/SSTORE2.sol\":6358:6362  0x1c */\n  0x1c\n    /* \"solady@0.1.7/src/utils/SSTORE2.sol\":6351:6369  revert(0x1c, 0x04) */\n  revert\n    /* \"solady@0.1.7/src/utils/SSTORE2.sol\":6016:6383  if iszero(... */\ntag_20:\n    /* \"solady@0.1.7/src/utils/SSTORE2.sol\":6409:6410  n */\n  dup2\n    /* \"solady@0.1.7/src/utils/SSTORE2.sol\":6403:6407  data */\n  dup6\n    /* \"solady@0.1.7/src/utils/SSTORE2.sol\":6396:6411  mstore(data, n) */\n  mstore\n    /* \"solady@0.1.7/src/utils/SSTORE2.sol\":5139:6454  {... */\n  pop\n  pop\n    /* \"solady@0.1.7/src/utils/SSTORE2.sol\":4961:6460  function writeDeterministic(bytes memory data, bytes32 salt)... */\n  swap3\n  swap2\n  pop\n  pop\n  jump\t// out\n    /* \"#utility.yul\":7:175   */\ntag_21:\n    /* \"#utility.yul\":90:101   */\n  0x00\n    /* \"#utility.yul\":124:130   */\n  dup3\n    /* \"#utility.yul\":119:122   */\n  dup3\n    /* \"#utility.yul\":112:131   */\n  mstore\n    /* \"#utility.yul\":164:168   */\n  0x20\n    /* \"#utility.yul\":159:162   */\n  dup3\n    /* \"#utility.yul\":155:169   */\n  add\n    /* \"#utility.yul\":140:169   */\n  swap1\n  pop\n    /* \"#utility.yul\":7:175   */\n  swap3\n  swap2\n  pop\n  pop\n  jump\t// out\n    /* \"#utility.yul\":181:295   */\ntag_22:\n  pop\n  jump\t// out\n    /* \"#utility.yul\":301:663   */\ntag_23:\n    /* \"#utility.yul\":442:445   */\n  0x00\n    /* \"#utility.yul\":463:528   */\n  tag_40\n    /* \"#utility.yul\":526:527   */\n  0x00\n    /* \"#utility.yul\":521:524   */\n  dup4\n    /* \"#utility.yul\":463:528   */\n  tag_21\n  jump\t// in\ntag_40:\n    /* \"#utility.yul\":456:528   */\n  swap2\n  pop\n    /* \"#utility.yul\":537:630   */\n  tag_41\n    /* \"#utility.yul\":626:629   */\n  dup3\n    /* \"#utility.yul\":537:630   */\n  tag_22\n  jump\t// in\ntag_41:\n    /* \"#utility.yul\":655:656   */\n  0x00\n    /* \"#utility.yul\":650:653   */\n  dup3\n    /* \"#utility.yul\":646:657   */\n  add\n    /* \"#utility.yul\":639:657   */\n  swap1\n  pop\n    /* \"#utility.yul\":301:663   */\n  swap2\n  swap1\n  pop\n  jump\t// out\n    /* \"#utility.yul\":669:1696   */\ntag_11:\n    /* \"#utility.yul\":1034:1038   */\n  0x00\n    /* \"#utility.yul\":1072:1074   */\n  0x60\n    /* \"#utility.yul\":1061:1070   */\n  dup3\n    /* \"#utility.yul\":1057:1075   */\n  add\n    /* \"#utility.yul\":1049:1075   */\n  swap1\n  pop\n    /* \"#utility.yul\":1121:1130   */\n  dup2\n    /* \"#utility.yul\":1115:1119   */\n  dup2\n    /* \"#utility.yul\":1111:1131   */\n  sub\n    /* \"#utility.yul\":1107:1108   */\n  0x00\n    /* \"#utility.yul\":1096:1105   */\n  dup4\n    /* \"#utility.yul\":1092:1109   */\n  add\n    /* \"#utility.yul\":1085:1132   */\n  mstore\n    /* \"#utility.yul\":1149:1279   */\n  tag_43\n    /* \"#utility.yul\":1274:1278   */\n  dup2\n    /* \"#utility.yul\":1149:1279   */\n  tag_23\n  jump\t// in\ntag_43:\n    /* \"#utility.yul\":1141:1279   */\n  swap1\n  pop\n    /* \"#utility.yul\":1326:1335   */\n  dup2\n    /* \"#utility.yul\":1320:1324   */\n  dup2\n    /* \"#utility.yul\":1316:1336   */\n  sub\n    /* \"#utility.yul\":1311:1313   */\n  0x20\n    /* \"#utility.yul\":1300:1309   */\n  dup4\n    /* \"#utility.yul\":1296:1314   */\n  add\n    /* \"#utility.yul\":1289:1337   */\n  mstore\n    /* \"#utility.yul\":1354:1484   */\n  tag_44\n    /* \"#utility.yul\":1479:1483   */\n  dup2\n    /* \"#utility.yul\":1354:1484   */\n  tag_23\n  jump\t// in\ntag_44:\n    /* \"#utility.yul\":1346:1484   */\n  swap1\n  pop\n    /* \"#utility.yul\":1531:1540   */\n  dup2\n    /* \"#utility.yul\":1525:1529   */\n  dup2\n    /* \"#utility.yul\":1521:1541   */\n  sub\n    /* \"#utility.yul\":1516:1518   */\n  0x40\n    /* \"#utility.yul\":1505:1514   */\n  dup4\n    /* \"#utility.yul\":1501:1519   */\n  add\n    /* \"#utility.yul\":1494:1542   */\n  mstore\n    /* \"#utility.yul\":1559:1689   */\n  tag_45\n    /* \"#utility.yul\":1684:1688   */\n  dup2\n    /* \"#utility.yul\":1559:1689   */\n  tag_23\n  jump\t// in\ntag_45:\n    /* \"#utility.yul\":1551:1689   */\n  swap1\n  pop\n    /* \"#utility.yul\":669:1696   */\n  swap2\n  swap1\n  pop\n  jump\t// out\n    /* \"#utility.yul\":1702:1851   */\ntag_24:\n    /* \"#utility.yul\":1738:1745   */\n  0x00\n    /* \"#utility.yul\":1778:1844   */\n  0xffffffff00000000000000000000000000000000000000000000000000000000\n    /* \"#utility.yul\":1771:1776   */\n  dup3\n    /* \"#utility.yul\":1767:1845   */\n  and\n    /* \"#utility.yul\":1756:1845   */\n  swap1\n  pop\n    /* \"#utility.yul\":1702:1851   */\n  swap2\n  swap1\n  pop\n  jump\t// out\n    /* \"#utility.yul\":1857:1935   */\ntag_25:\n    /* \"#utility.yul\":1895:1902   */\n  0x00\n    /* \"#utility.yul\":1924:1929   */\n  dup2\n    /* \"#utility.yul\":1913:1929   */\n  swap1\n  pop\n    /* \"#utility.yul\":1857:1935   */\n  swap2\n  swap1\n  pop\n  jump\t// out\n    /* \"#utility.yul\":1941:2094   */\ntag_26:\n    /* \"#utility.yul\":2044:2087   */\n  tag_49\n    /* \"#utility.yul\":2063:2086   */\n  tag_50\n    /* \"#utility.yul\":2080:2085   */\n  dup3\n    /* \"#utility.yul\":2063:2086   */\n  tag_24\n  jump\t// in\ntag_50:\n    /* \"#utility.yul\":2044:2087   */\n  tag_25\n  jump\t// in\ntag_49:\n    /* \"#utility.yul\":2039:2042   */\n  dup3\n    /* \"#utility.yul\":2032:2088   */\n  mstore\n    /* \"#utility.yul\":1941:2094   */\n  pop\n  pop\n  jump\t// out\n    /* \"#utility.yul\":2100:2242   */\ntag_27:\n    /* \"#utility.yul\":2137:2144   */\n  0x00\n    /* \"#utility.yul\":2177:2235   */\n  0xffffffffffffffffffffffffffffffffffffffffffffffffffffffff\n    /* \"#utility.yul\":2170:2175   */\n  dup3\n    /* \"#utility.yul\":2166:2236   */\n  and\n    /* \"#utility.yul\":2155:2236   */\n  swap1\n  pop\n    /* \"#utility.yul\":2100:2242   */\n  swap2\n  swap1\n  pop\n  jump\t// out\n    /* \"#utility.yul\":2248:2342   */\ntag_28:\n    /* \"#utility.yul\":2281:2289   */\n  0x00\n    /* \"#utility.yul\":2329:2334   */\n  dup2\n    /* \"#utility.yul\":2325:2327   */\n  0x20\n    /* \"#utility.yul\":2321:2335   */\n  shl\n    /* \"#utility.yul\":2300:2335   */\n  swap1\n  pop\n    /* \"#utility.yul\":2248:2342   */\n  swap2\n  swap1\n  pop\n  jump\t// out\n    /* \"#utility.yul\":2348:2442   */\ntag_29:\n    /* \"#utility.yul\":2387:2394   */\n  0x00\n    /* \"#utility.yul\":2416:2436   */\n  tag_54\n    /* \"#utility.yul\":2430:2435   */\n  dup3\n    /* \"#utility.yul\":2416:2436   */\n  tag_28\n  jump\t// in\ntag_54:\n    /* \"#utility.yul\":2405:2436   */\n  swap1\n  pop\n    /* \"#utility.yul\":2348:2442   */\n  swap2\n  swap1\n  pop\n  jump\t// out\n    /* \"#utility.yul\":2448:2605   */\ntag_30:\n    /* \"#utility.yul\":2553:2598   */\n  tag_56\n    /* \"#utility.yul\":2573:2597   */\n  tag_57\n    /* \"#utility.yul\":2591:2596   */\n  dup3\n    /* \"#utility.yul\":2573:2597   */\n  tag_27\n  jump\t// in\ntag_57:\n    /* \"#utility.yul\":2553:2598   */\n  tag_29\n  jump\t// in\ntag_56:\n    /* \"#utility.yul\":2548:2551   */\n  dup3\n    /* \"#utility.yul\":2541:2599   */\n  mstore\n    /* \"#utility.yul\":2448:2605   */\n  pop\n  pop\n  jump\t// out\n    /* \"#utility.yul\":2611:3003   */\ntag_15:\n    /* \"#utility.yul\":2749:2752   */\n  0x00\n    /* \"#utility.yul\":2764:2837   */\n  tag_59\n    /* \"#utility.yul\":2833:2836   */\n  dup3\n    /* \"#utility.yul\":2824:2830   */\n  dup6\n    /* \"#utility.yul\":2764:2837   */\n  tag_26\n  jump\t// in\ntag_59:\n    /* \"#utility.yul\":2862:2863   */\n  0x04\n    /* \"#utility.yul\":2857:2860   */\n  dup3\n    /* \"#utility.yul\":2853:2864   */\n  add\n    /* \"#utility.yul\":2846:2864   */\n  swap2\n  pop\n    /* \"#utility.yul\":2874:2949   */\n  tag_60\n    /* \"#utility.yul\":2945:2948   */\n  dup3\n    /* \"#utility.yul\":2936:2942   */\n  dup5\n    /* \"#utility.yul\":2874:2949   */\n  tag_30\n  jump\t// in\ntag_60:\n    /* \"#utility.yul\":2974:2976   */\n  0x1c\n    /* \"#utility.yul\":2969:2972   */\n  dup3\n    /* \"#utility.yul\":2965:2977   */\n  add\n    /* \"#utility.yul\":2958:2977   */\n  swap2\n  pop\n    /* \"#utility.yul\":2994:2997   */\n  dup2\n    /* \"#utility.yul\":2987:2997   */\n  swap1\n  pop\n    /* \"#utility.yul\":2611:3003   */\n  swap4\n  swap3\n  pop\n  pop\n  pop\n  jump\t// out\n    /* \"#utility.yul\":3009:3107   */\ntag_31:\n    /* \"#utility.yul\":3060:3066   */\n  0x00\n    /* \"#utility.yul\":3094:3099   */\n  dup2\n    /* \"#utility.yul\":3088:3100   */\n  mload\n    /* \"#utility.yul\":3078:3100   */\n  swap1\n  pop\n    /* \"#utility.yul\":3009:3107   */\n  swap2\n  swap1\n  pop\n  jump\t// out\n    /* \"#utility.yul\":3113:3229   */\ntag_32:\n    /* \"#utility.yul\":3164:3168   */\n  0x00\n    /* \"#utility.yul\":3187:3190   */\n  dup2\n    /* \"#utility.yul\":3179:3190   */\n  swap1\n  pop\n    /* \"#utility.yul\":3217:3221   */\n  0x20\n    /* \"#utility.yul\":3212:3215   */\n  dup3\n    /* \"#utility.yul\":3208:3222   */\n  add\n    /* \"#utility.yul\":3200:3222   */\n  swap1\n  pop\n    /* \"#utility.yul\":3113:3229   */\n  swap2\n  swap1\n  pop\n  jump\t// out\n    /* \"#utility.yul\":3235:3312   */\ntag_33:\n    /* \"#utility.yul\":3272:3279   */\n  0x00\n    /* \"#utility.yul\":3301:3306   */\n  dup2\n    /* \"#utility.yul\":3290:3306   */\n  swap1\n  pop\n    /* \"#utility.yul\":3235:3312   */\n  swap2\n  swap1\n  pop\n  jump\t// out\n    /* \"#utility.yul\":3318:3472   */\ntag_34:\n    /* \"#utility.yul\":3361:3372   */\n  0x00\n    /* \"#utility.yul\":3397:3426   */\n  tag_65\n    /* \"#utility.yul\":3421:3424   */\n  dup3\n    /* \"#utility.yul\":3415:3425   */\n  mload\n    /* \"#utility.yul\":3397:3426   */\n  tag_33\n  jump\t// in\ntag_65:\n    /* \"#utility.yul\":3460:3465   */\n  dup1\n    /* \"#utility.yul\":3436:3465   */\n  swap2\n  pop\n    /* \"#utility.yul\":3373:3472   */\n  pop\n    /* \"#utility.yul\":3318:3472   */\n  swap2\n  swap1\n  pop\n  jump\t// out\n    /* \"#utility.yul\":3478:3585   */\ntag_35:\n    /* \"#utility.yul\":3522:3530   */\n  0x00\n    /* \"#utility.yul\":3572:3577   */\n  dup3\n    /* \"#utility.yul\":3566:3570   */\n  dup3\n    /* \"#utility.yul\":3562:3578   */\n  shl\n    /* \"#utility.yul\":3541:3578   */\n  swap1\n  pop\n    /* \"#utility.yul\":3478:3585   */\n  swap3\n  swap2\n  pop\n  pop\n  jump\t// out\n    /* \"#utility.yul\":3591:4185   */\ntag_17:\n    /* \"#utility.yul\":3675:3680   */\n  0x00\n    /* \"#utility.yul\":3706:3744   */\n  tag_68\n    /* \"#utility.yul\":3738:3743   */\n  dup3\n    /* \"#utility.yul\":3706:3744   */\n  tag_31\n  jump\t// in\ntag_68:\n    /* \"#utility.yul\":3769:3774   */\n  dup3\n    /* \"#utility.yul\":3796:3836   */\n  tag_69\n    /* \"#utility.yul\":3830:3835   */\n  dup5\n    /* \"#utility.yul\":3796:3836   */\n  tag_32\n  jump\t// in\ntag_69:\n    /* \"#utility.yul\":3784:3836   */\n  swap1\n  pop\n    /* \"#utility.yul\":3855:3890   */\n  tag_70\n    /* \"#utility.yul\":3881:3889   */\n  dup2\n    /* \"#utility.yul\":3855:3890   */\n  tag_34\n  jump\t// in\ntag_70:\n    /* \"#utility.yul\":3846:3890   */\n  swap3\n  pop\n    /* \"#utility.yul\":3914:3916   */\n  0x20\n    /* \"#utility.yul\":3906:3912   */\n  dup3\n    /* \"#utility.yul\":3903:3917   */\n  lt\n    /* \"#utility.yul\":3900:4178   */\n  iszero\n  tag_71\n  jumpi\n    /* \"#utility.yul\":3985:4154   */\n  tag_72\n    /* \"#utility.yul\":4070:4136   */\n  0xffffffffffffffffffffffffffffffffffffffffffffffffffffffffffffffff\n    /* \"#utility.yul\":4040:4046   */\n  dup4\n    /* \"#utility.yul\":4036:4038   */\n  0x20\n    /* \"#utility.yul\":4032:4047   */\n  sub\n    /* \"#utility.yul\":4029:4030   */\n  0x08\n    /* \"#utility.yul\":4025:4048   */\n  mul\n    /* \"#utility.yul\":3985:4154   */\n  tag_35\n  jump\t// in\ntag_72:\n    /* \"#utility.yul\":3962:3967   */\n  dup4\n    /* \"#utility.yul\":3941:4168   */\n  and\n    /* \"#utility.yul\":3932:4168   */\n  swap3\n  pop\n    /* \"#utility.yul\":3900:4178   */\ntag_71:\n    /* \"#utility.yul\":3681:4185   */\n  pop\n  pop\n    /* \"#utility.yul\":3591:4185   */\n  swap2\n  swap1\n  pop\n  jump\t// out\n    /* \"src/Rollup.sol\":281:2979  contract Rollup is IRollup {... */\ntag_12:\n  dataSize(sub_0)\n  dup1\n  dataOffset(sub_0)\n  0x00\n  codecopy\n  0x00\n  return\nstop\n\nsub_0: assembly {\n        /* \"src/Rollup.sol\":281:2979  contract Rollup is IRollup {... */\n      mstore(0x40, 0x80)\n      callvalue\n      dup1\n      iszero\n      tag_1\n      jumpi\n      revert(0x00, 0x00)\n    tag_1:\n      pop\n      jumpi(tag_2, lt(calldatasize, 0x04))\n      shr(0xe0, calldataload(0x00))\n      dup1\n      0x2dd7c658\n      gt\n      tag_10\n      jumpi\n      dup1\n      0x2dd7c658\n      eq\n      tag_6\n      jumpi\n      dup1\n      0x70b1073b\n      eq\n      tag_7\n      jumpi\n      dup1\n      0x7e033b88\n      eq\n      tag_8\n      jumpi\n      dup1\n      0xce03fdab\n      eq\n      tag_9\n      jumpi\n      jump(tag_2)\n    tag_10:\n      dup1\n      0x09a73d27\n      eq\n      tag_3\n      jumpi\n      dup1\n      0x219ee89c\n      eq\n      tag_4\n      jumpi\n      dup1\n      0x29c50ca7\n      eq\n      tag_5\n      jumpi\n    tag_2:\n      revert(0x00, 0x00)\n        /* \"src/Rollup.sol\":2300:2464  function stateAddress(uint256 at, bytes4 selector) public view returns (address) {... */\n    tag_3:\n      tag_11\n      0x04\n      dup1\n      calldatasize\n      sub\n      dup2\n      add\n      swap1\n      tag_12\n      swap2\n      swap1\n      tag_13\n      jump\t// in\n    tag_12:\n      tag_14\n      jump\t// in\n    tag_11:\n      mload(0x40)\n      tag_15\n      swap2\n      swap1\n      tag_16\n      jump\t// in\n    tag_15:\n      mload(0x40)\n      dup1\n      swap2\n      sub\n      swap1\n      return\n        /* \"src/Rollup.sol\":314:340  uint256 public chainLength */\n    tag_4:\n      tag_17\n      tag_18\n      jump\t// in\n    tag_17:\n      mload(0x40)\n      tag_19\n      swap2\n      swap1\n      tag_20\n      jump\t// in\n    tag_19:\n      mload(0x40)\n      dup1\n      swap2\n      sub\n      swap1\n      return\n        /* \"src/Rollup.sol\":2470:2821  function state(uint256 at, bytes4 selector, uint256 tokenId) public view returns (bytes6) {... */\n    tag_5:\n      tag_21\n      0x04\n      dup1\n      calldatasize\n      sub\n      dup2\n      add\n      swap1\n      tag_22\n      swap2\n      swap1\n      tag_23\n      jump\t// in\n    tag_22:\n      tag_24\n      jump\t// in\n    tag_21:\n      mload(0x40)\n      tag_25\n      swap2\n      swap1\n      tag_26\n      jump\t// in\n    tag_25:\n      mload(0x40)\n      dup1\n      swap2\n      sub\n      swap1\n      return\n        /* \"src/Rollup.sol\":1832:1971  function account(uint256 tokenId) external view returns (bytes6) {... */\n    tag_6:\n      tag_27\n      0x04\n      dup1\n      calldatasize\n      sub\n      dup2\n      add\n      swap1\n      tag_28\n      swap2\n      swap1\n      tag_29\n      jump\t// in\n    tag_28:\n      tag_30\n      jump\t// in\n    tag_27:\n      mload(0x40)\n      tag_31\n      swap2\n      swap1\n      tag_26\n      jump\t// in\n    tag_31:\n      mload(0x40)\n      dup1\n      swap2\n      sub\n      swap1\n      return\n        /* \"src/Rollup.sol\":596:1826  function commitState(... */\n    tag_7:\n      tag_32\n      0x04\n      dup1\n      calldatasize\n      sub\n      dup2\n      add\n      swap1\n      tag_33\n      swap2\n      swap1\n      tag_34\n      jump\t// in\n    tag_33:\n      tag_35\n      jump\t// in\n    tag_32:\n      stop\n        /* \"src/Rollup.sol\":2118:2294  function latestStateAddress(uint256 io) external view returns (address) {... */\n    tag_8:\n      tag_36\n      0x04\n      dup1\n      calldatasize\n      sub\n      dup2\n      add\n      swap1\n      tag_37\n      swap2\n      swap1\n      tag_29\n      jump\t// in\n    tag_37:\n      tag_38\n      jump\t// in\n    tag_36:\n      mload(0x40)\n      tag_39\n      swap2\n      swap1\n      tag_16\n      jump\t// in\n    tag_39:\n      mload(0x40)\n      dup1\n      swap2\n      sub\n      swap1\n      return\n        /* \"src/Rollup.sol\":1977:2112  function nonce(uint256 tokenId) external view returns (bytes6) {... */\n    tag_9:\n      tag_40\n      0x04\n      dup1\n      calldatasize\n      sub\n      dup2\n      add\n      swap1\n      tag_41\n      swap2\n      swap1\n      tag_29\n      jump\t// in\n    tag_41:\n      tag_42\n      jump\t// in\n    tag_40:\n      mload(0x40)\n      tag_43\n      swap2\n      swap1\n      tag_26\n      jump\t// in\n    tag_43:\n      mload(0x40)\n      dup1\n      swap2\n      sub\n      swap1\n      return\n        /* \"src/Rollup.sol\":2300:2464  function stateAddress(uint256 at, bytes4 selector) public view returns (address) {... */\n    tag_14:\n        /* \"src/Rollup.sol\":2372:2379  address */\n      0x00\n        /* \"src/Rollup.sol\":2398:2457  SSTORE2.predictDeterministicAddress(_pointer(selector, at)) */\n      tag_45\n        /* \"src/Rollup.sol\":2434:2456  _pointer(selector, at) */\n      tag_46\n        /* \"src/Rollup.sol\":2443:2451  selector */\n      dup4\n        /* \"src/Rollup.sol\":2453:2455  at */\n      dup6\n        /* \"src/Rollup.sol\":2434:2442  _pointer */\n      tag_47\n        /* \"src/Rollup.sol\":2434:2456  _pointer(selector, at) */\n      jump\t// in\n    tag_46:\n        /* \"src/Rollup.sol\":2398:2433  SSTORE2.predictDeterministicAddress */\n      tag_48\n        /* \"src/Rollup.sol\":2398:2457  SSTORE2.predictDeterministicAddress(_pointer(selector, at)) */\n      jump\t// in\n    tag_45:\n        /* \"src/Rollup.sol\":2391:2457  return SSTORE2.predictDeterministicAddress(_pointer(selector, at)) */\n      swap1\n      pop\n        /* \"src/Rollup.sol\":2300:2464  function stateAddress(uint256 at, bytes4 selector) public view returns (address) {... */\n      swap3\n      swap2\n      pop\n      pop\n      jump\t// out\n        /* \"src/Rollup.sol\":314:340  uint256 public chainLength */\n    tag_18:\n      sload(0x00)\n      dup2\n      jump\t// out\n        /* \"src/Rollup.sol\":2470:2821  function state(uint256 at, bytes4 selector, uint256 tokenId) public view returns (bytes6) {... */\n    tag_24:\n        /* \"src/Rollup.sol\":2552:2558  bytes6 */\n      0x00\n        /* \"src/Rollup.sol\":2570:2585  address pointer */\n      0x00\n        /* \"src/Rollup.sol\":2588:2614  stateAddress(at, selector) */\n      tag_50\n        /* \"src/Rollup.sol\":2601:2603  at */\n      dup6\n        /* \"src/Rollup.sol\":2605:2613  selector */\n      dup6\n        /* \"src/Rollup.sol\":2588:2600  stateAddress */\n      tag_14\n        /* \"src/Rollup.sol\":2588:2614  stateAddress(at, selector) */\n      jump\t// in\n    tag_50:\n        /* \"src/Rollup.sol\":2570:2614  address pointer = stateAddress(at, selector) */\n      swap1\n      pop\n        /* \"src/Rollup.sol\":2639:2640  0 */\n      0x00\n        /* \"src/Rollup.sol\":2628:2635  tokenId */\n      dup4\n        /* \"src/Rollup.sol\":2628:2640  tokenId == 0 */\n      sub\n        /* \"src/Rollup.sol\":2624:2707  if (tokenId == 0) return bytes6(bytes.concat(hex\"00\", SSTORE2.read(pointer, 0, 5))) */\n      tag_51\n      jumpi\n        /* \"src/Rollup.sol\":2678:2705  SSTORE2.read(pointer, 0, 5) */\n      tag_52\n        /* \"src/Rollup.sol\":2691:2698  pointer */\n      dup2\n        /* \"src/Rollup.sol\":2700:2701  0 */\n      0x00\n        /* \"src/Rollup.sol\":2703:2704  5 */\n      0x05\n        /* \"src/Rollup.sol\":2678:2690  SSTORE2.read */\n      tag_53\n        /* \"src/Rollup.sol\":2678:2705  SSTORE2.read(pointer, 0, 5) */\n      jump\t// in\n    tag_52:\n        /* \"src/Rollup.sol\":2656:2706  bytes.concat(hex\"00\", SSTORE2.read(pointer, 0, 5)) */\n      add(0x20, mload(0x40))\n      tag_54\n      swap2\n      swap1\n      tag_55\n      jump\t// in\n    tag_54:\n      mload(0x40)\n      0x20\n      dup2\n      dup4\n      sub\n      sub\n      dup2\n      mstore\n      swap1\n      0x40\n      mstore\n        /* \"src/Rollup.sol\":2649:2707  bytes6(bytes.concat(hex\"00\", SSTORE2.read(pointer, 0, 5))) */\n      tag_56\n      swap1\n      tag_57\n      jump\t// in\n    tag_56:\n        /* \"src/Rollup.sol\":2642:2707  return bytes6(bytes.concat(hex\"00\", SSTORE2.read(pointer, 0, 5))) */\n      swap2\n      pop\n      pop\n      jump(tag_49)\n        /* \"src/Rollup.sol\":2624:2707  if (tokenId == 0) return bytes6(bytes.concat(hex\"00\", SSTORE2.read(pointer, 0, 5))) */\n    tag_51:\n        /* \"src/Rollup.sol\":2717:2730  uint256 index */\n      0x00\n        /* \"src/Rollup.sol\":2749:2750  1 */\n      0x01\n        /* \"src/Rollup.sol\":2744:2745  6 */\n      0x06\n        /* \"src/Rollup.sol\":2734:2741  tokenId */\n      dup6\n        /* \"src/Rollup.sol\":2734:2745  tokenId * 6 */\n      tag_58\n      swap2\n      swap1\n      tag_59\n      jump\t// in\n    tag_58:\n        /* \"src/Rollup.sol\":2733:2750  (tokenId * 6) - 1 */\n      tag_60\n      swap2\n      swap1\n      tag_61\n      jump\t// in\n    tag_60:\n        /* \"src/Rollup.sol\":2717:2750  uint256 index = (tokenId * 6) - 1 */\n      swap1\n      pop\n        /* \"src/Rollup.sol\":2774:2813  SSTORE2.read(pointer, index, index + 6) */\n      tag_62\n        /* \"src/Rollup.sol\":2787:2794  pointer */\n      dup3\n        /* \"src/Rollup.sol\":2796:2801  index */\n      dup3\n        /* \"src/Rollup.sol\":2811:2812  6 */\n      0x06\n        /* \"src/Rollup.sol\":2803:2808  index */\n      dup5\n        /* \"src/Rollup.sol\":2803:2812  index + 6 */\n      tag_63\n      swap2\n      swap1\n      tag_64\n      jump\t// in\n    tag_63:\n        /* \"src/Rollup.sol\":2774:2786  SSTORE2.read */\n      tag_53\n        /* \"src/Rollup.sol\":2774:2813  SSTORE2.read(pointer, index, index + 6) */\n      jump\t// in\n    tag_62:\n        /* \"src/Rollup.sol\":2767:2814  bytes6(SSTORE2.read(pointer, index, index + 6)) */\n      tag_65\n      swap1\n      tag_57\n      jump\t// in\n    tag_65:\n        /* \"src/Rollup.sol\":2760:2814  return bytes6(SSTORE2.read(pointer, index, index + 6)) */\n      swap3\n      pop\n      pop\n      pop\n        /* \"src/Rollup.sol\":2470:2821  function state(uint256 at, bytes4 selector, uint256 tokenId) public view returns (bytes6) {... */\n    tag_49:\n      swap4\n      swap3\n      pop\n      pop\n      pop\n      jump\t// out\n        /* \"src/Rollup.sol\":1832:1971  function account(uint256 tokenId) external view returns (bytes6) {... */\n    tag_30:\n        /* \"src/Rollup.sol\":1889:1895  bytes6 */\n      0x00\n        /* \"src/Rollup.sol\":1914:1964  state(chainLength, this.account.selector, tokenId) */\n      tag_67\n        /* \"src/Rollup.sol\":1920:1931  chainLength */\n      sload(0x00)\n        /* \"src/Rollup.sol\":1933:1954  this.account.selector */\n      shl(0xe0, 0x2dd7c658)\n        /* \"src/Rollup.sol\":1956:1963  tokenId */\n      dup5\n        /* \"src/Rollup.sol\":1914:1919  state */\n      tag_24\n        /* \"src/Rollup.sol\":1914:1964  state(chainLength, this.account.selector, tokenId) */\n      jump\t// in\n    tag_67:\n        /* \"src/Rollup.sol\":1907:1964  return state(chainLength, this.account.selector, tokenId) */\n      swap1\n      pop\n        /* \"src/Rollup.sol\":1832:1971  function account(uint256 tokenId) external view returns (bytes6) {... */\n      swap2\n      swap1\n      pop\n      jump\t// out\n        /* \"src/Rollup.sol\":596:1826  function commitState(... */\n    tag_35:\n        /* \"src/Rollup.sol\":878:920  0x397A5f7f3dBd538f23DE225B51f532c34448dA9B */\n      0x397a5f7f3dbd538f23de225b51f532c34448da9b\n        /* \"src/Rollup.sol\":865:933  ISP1Verifier(0x397A5f7f3dBd538f23DE225B51f532c34448dA9B).verifyProof */\n      0xffffffffffffffffffffffffffffffffffffffff\n      and\n      0x41493c60\n        /* \"src/Rollup.sol\":947:1013  0x005120317542200324c9509e78315ad70799268f02d21504709c8973d2493203 */\n      0x5120317542200324c9509e78315ad70799268f02d21504709c8973d2493203\n        /* \"src/Rollup.sol\":1107:1118  anchorBlock */\n      dup10\n        /* \"src/Rollup.sol\":1097:1119  blockhash(anchorBlock) */\n      blockhash\n        /* \"src/Rollup.sol\":1166:1214  stateAddress(chainLength, this.account.selector) */\n      tag_69\n        /* \"src/Rollup.sol\":1179:1190  chainLength */\n      sload(0x00)\n        /* \"src/Rollup.sol\":1192:1213  this.account.selector */\n      shl(0xe0, 0x2dd7c658)\n        /* \"src/Rollup.sol\":1166:1178  stateAddress */\n      tag_14\n        /* \"src/Rollup.sol\":1166:1214  stateAddress(chainLength, this.account.selector) */\n      jump\t// in\n    tag_69:\n        /* \"src/Rollup.sol\":1166:1223  stateAddress(chainLength, this.account.selector).codehash */\n      0xffffffffffffffffffffffffffffffffffffffff\n      and\n      extcodehash\n        /* \"src/Rollup.sol\":1268:1314  stateAddress(chainLength, this.nonce.selector) */\n      tag_70\n        /* \"src/Rollup.sol\":1281:1292  chainLength */\n      sload(0x00)\n        /* \"src/Rollup.sol\":1294:1313  this.nonce.selector */\n      shl(0xe0, 0xce03fdab)\n        /* \"src/Rollup.sol\":1268:1280  stateAddress */\n      tag_14\n        /* \"src/Rollup.sol\":1268:1314  stateAddress(chainLength, this.nonce.selector) */\n      jump\t// in\n    tag_70:\n        /* \"src/Rollup.sol\":1268:1323  stateAddress(chainLength, this.nonce.selector).codehash */\n      0xffffffffffffffffffffffffffffffffffffffff\n      and\n      extcodehash\n        /* \"src/Rollup.sol\":1377:1388  accountBlob */\n      dup12\n      dup12\n        /* \"src/Rollup.sol\":1441:1450  nonceBlob */\n      dup12\n      dup12\n        /* \"src/Rollup.sol\":1067:1488  bytes.concat(... */\n      add(0x20, mload(0x40))\n      tag_71\n      swap8\n      swap7\n      swap6\n      swap5\n      swap4\n      swap3\n      swap2\n      swap1\n      tag_72\n      jump\t// in\n    tag_71:\n      mload(0x40)\n      0x20\n      dup2\n      dup4\n      sub\n      sub\n      dup2\n      mstore\n      swap1\n      0x40\n      mstore\n        /* \"src/Rollup.sol\":1502:1507  proof */\n      dup6\n      dup6\n        /* \"src/Rollup.sol\":865:1517  ISP1Verifier(0x397A5f7f3dBd538f23DE225B51f532c34448dA9B).verifyProof(... */\n      mload(0x40)\n      dup6\n      0xffffffff\n      and\n      0xe0\n      shl\n      dup2\n      mstore\n      0x04\n      add\n      tag_73\n      swap5\n      swap4\n      swap3\n      swap2\n      swap1\n      tag_74\n      jump\t// in\n    tag_73:\n      0x00\n      mload(0x40)\n      dup1\n      dup4\n      sub\n      dup2\n      dup7\n      dup1\n      extcodesize\n      iszero\n      dup1\n      iszero\n      tag_75\n      jumpi\n      revert(0x00, 0x00)\n    tag_75:\n      pop\n      gas\n      staticcall\n      iszero\n      dup1\n      iszero\n      tag_77\n      jumpi\n      returndatacopy(0x00, 0x00, returndatasize)\n      revert(0x00, returndatasize)\n    tag_77:\n      pop\n      pop\n      pop\n      pop\n        /* \"src/Rollup.sol\":1528:1539  chainLength */\n      0x00\n      0x00\n        /* \"src/Rollup.sol\":1528:1541  chainLength++ */\n      dup2\n      sload\n      dup1\n      swap3\n      swap2\n      swap1\n      tag_78\n      swap1\n      tag_79\n      jump\t// in\n    tag_78:\n      swap2\n      swap1\n      pop\n      sstore\n      pop\n        /* \"src/Rollup.sol\":1590:1601  anchorBlock */\n      dup7\n        /* \"src/Rollup.sol\":1577:1588  chainLength */\n      sload(0x00)\n        /* \"src/Rollup.sol\":1565:1575  msg.sender */\n      caller\n        /* \"src/Rollup.sol\":1556:1633  NewState(msg.sender, chainLength, anchorBlock, accountBlob, nonceBlob, proof) */\n      0xffffffffffffffffffffffffffffffffffffffff\n      and\n      0x3fcf41a2be2012a96cae109f207d554df9e27d6dcc28fe2c5f8ca38fe35821b6\n        /* \"src/Rollup.sol\":1603:1614  accountBlob */\n      dup10\n      dup10\n        /* \"src/Rollup.sol\":1616:1625  nonceBlob */\n      dup10\n      dup10\n        /* \"src/Rollup.sol\":1627:1632  proof */\n      dup10\n      dup10\n        /* \"src/Rollup.sol\":1556:1633  NewState(msg.sender, chainLength, anchorBlock, accountBlob, nonceBlob, proof) */\n      mload(0x40)\n      tag_80\n      swap7\n      swap6\n      swap5\n      swap4\n      swap3\n      swap2\n      swap1\n      tag_81\n      jump\t// in\n    tag_80:\n      mload(0x40)\n      dup1\n      swap2\n      sub\n      swap1\n      log4\n        /* \"src/Rollup.sol\":1643:1728  SSTORE2.writeDeterministic(accountBlob, _pointer(this.account.selector, chainLength)) */\n      tag_82\n        /* \"src/Rollup.sol\":1670:1681  accountBlob */\n      dup7\n      dup7\n        /* \"src/Rollup.sol\":1643:1728  SSTORE2.writeDeterministic(accountBlob, _pointer(this.account.selector, chainLength)) */\n      dup1\n      dup1\n      0x1f\n      add\n      0x20\n      dup1\n      swap2\n      div\n      mul\n      0x20\n      add\n      mload(0x40)\n      swap1\n      dup2\n      add\n      0x40\n      mstore\n      dup1\n      swap4\n      swap3\n      swap2\n      swap1\n      dup2\n      dup2\n      mstore\n      0x20\n      add\n      dup4\n      dup4\n      dup1\n      dup3\n      dup5\n      calldatacopy\n      0x00\n      dup2\n      dup5\n      add\n      mstore\n      not(0x1f)\n      0x1f\n      dup3\n      add\n      and\n      swap1\n      pop\n      dup1\n      dup4\n      add\n      swap3\n      pop\n      pop\n      pop\n      pop\n      pop\n      pop\n      pop\n        /* \"src/Rollup.sol\":1683:1727  _pointer(this.account.selector, chainLength) */\n      tag_83\n        /* \"src/Rollup.sol\":1692:1713  this.account.selector */\n      shl(0xe0, 0x2dd7c658)\n        /* \"src/Rollup.sol\":1715:1726  chainLength */\n      sload(0x00)\n        /* \"src/Rollup.sol\":1683:1691  _pointer */\n      tag_47\n        /* \"src/Rollup.sol\":1683:1727  _pointer(this.account.selector, chainLength) */\n      jump\t// in\n    tag_83:\n        /* \"src/Rollup.sol\":1643:1669  SSTORE2.writeDeterministic */\n      tag_84\n        /* \"src/Rollup.sol\":1643:1728  SSTORE2.writeDeterministic(accountBlob, _pointer(this.account.selector, chainLength)) */\n      jump\t// in\n    tag_82:\n      pop\n        /* \"src/Rollup.sol\":1738:1819  SSTORE2.writeDeterministic(nonceBlob, _pointer(this.nonce.selector, chainLength)) */\n      tag_85\n        /* \"src/Rollup.sol\":1765:1774  nonceBlob */\n      dup5\n      dup5\n        /* \"src/Rollup.sol\":1738:1819  SSTORE2.writeDeterministic(nonceBlob, _pointer(this.nonce.selector, chainLength)) */\n      dup1\n      dup1\n      0x1f\n      add\n      0x20\n      dup1\n      swap2\n      div\n      mul\n      0x20\n      add\n      mload(0x40)\n      swap1\n      dup2\n      add\n      0x40\n      mstore\n      dup1\n      swap4\n      swap3\n      swap2\n      swap1\n      dup2\n      dup2\n      mstore\n      0x20\n      add\n      dup4\n      dup4\n      dup1\n      dup3\n      dup5\n      calldatacopy\n      0x00\n      dup2\n      dup5\n      add\n      mstore\n      not(0x1f)\n      0x1f\n      dup3\n      add\n      and\n      swap1\n      pop\n      dup1\n      dup4\n      add\n      swap3\n      pop\n      pop\n      pop\n      pop\n      pop\n      pop\n      pop\n        /* \"src/Rollup.sol\":1776:1818  _pointer(this.nonce.selector, chainLength) */\n      tag_86\n        /* \"src/Rollup.sol\":1785:1804  this.nonce.selector */\n      shl(0xe0, 0xce03fdab)\n        /* \"src/Rollup.sol\":1806:1817  chainLength */\n      sload(0x00)\n        /* \"src/Rollup.sol\":1776:1784  _pointer */\n      tag_47\n        /* \"src/Rollup.sol\":1776:1818  _pointer(this.nonce.selector, chainLength) */\n      jump\t// in\n    tag_86:\n        /* \"src/Rollup.sol\":1738:1764  SSTORE2.writeDeterministic */\n      tag_84\n        /* \"src/Rollup.sol\":1738:1819  SSTORE2.writeDeterministic(nonceBlob, _pointer(this.nonce.selector, chainLength)) */\n      jump\t// in\n    tag_85:\n      pop\n        /* \"src/Rollup.sol\":596:1826  function commitState(... */\n      pop\n      pop\n      pop\n      pop\n      pop\n      pop\n      pop\n      jump\t// out\n        /* \"src/Rollup.sol\":2118:2294  function latestStateAddress(uint256 io) external view returns (address) {... */\n    tag_38:\n        /* \"src/Rollup.sol\":2181:2188  address */\n      0x00\n        /* \"src/Rollup.sol\":2207:2287  stateAddress(chainLength, io == 0 ? this.account.selector : this.nonce.selector) */\n      tag_88\n        /* \"src/Rollup.sol\":2220:2231  chainLength */\n      sload(0x00)\n        /* \"src/Rollup.sol\":2239:2240  0 */\n      0x00\n        /* \"src/Rollup.sol\":2233:2235  io */\n      dup5\n        /* \"src/Rollup.sol\":2233:2240  io == 0 */\n      eq\n        /* \"src/Rollup.sol\":2233:2286  io == 0 ? this.account.selector : this.nonce.selector */\n      tag_89\n      jumpi\n        /* \"src/Rollup.sol\":2267:2286  this.nonce.selector */\n      shl(0xe0, 0xce03fdab)\n        /* \"src/Rollup.sol\":2233:2286  io == 0 ? this.account.selector : this.nonce.selector */\n      jump(tag_90)\n    tag_89:\n        /* \"src/Rollup.sol\":2243:2264  this.account.selector */\n      shl(0xe0, 0x2dd7c658)\n        /* \"src/Rollup.sol\":2233:2286  io == 0 ? this.account.selector : this.nonce.selector */\n    tag_90:\n        /* \"src/Rollup.sol\":2207:2219  stateAddress */\n      tag_14\n        /* \"src/Rollup.sol\":2207:2287  stateAddress(chainLength, io == 0 ? this.account.selector : this.nonce.selector) */\n      jump\t// in\n    tag_88:\n        /* \"src/Rollup.sol\":2200:2287  return stateAddress(chainLength, io == 0 ? this.account.selector : this.nonce.selector) */\n      swap1\n      pop\n        /* \"src/Rollup.sol\":2118:2294  function latestStateAddress(uint256 io) external view returns (address) {... */\n      swap2\n      swap1\n      pop\n      jump\t// out\n        /* \"src/Rollup.sol\":1977:2112  function nonce(uint256 tokenId) external view returns (bytes6) {... */\n    tag_42:\n        /* \"src/Rollup.sol\":2032:2038  bytes6 */\n      0x00\n        /* \"src/Rollup.sol\":2057:2105  state(chainLength, this.nonce.selector, tokenId) */\n      tag_92\n        /* \"src/Rollup.sol\":2063:2074  chainLength */\n      sload(0x00)\n        /* \"src/Rollup.sol\":2076:2095  this.nonce.selector */\n      shl(0xe0, 0xce03fdab)\n        /* \"src/Rollup.sol\":2097:2104  tokenId */\n      dup5\n        /* \"src/Rollup.sol\":2057:2062  state */\n      tag_24\n        /* \"src/Rollup.sol\":2057:2105  state(chainLength, this.nonce.selector, tokenId) */\n      jump\t// in\n    tag_92:\n        /* \"src/Rollup.sol\":2050:2105  return state(chainLength, this.nonce.selector, tokenId) */\n      swap1\n      pop\n        /* \"src/Rollup.sol\":1977:2112  function nonce(uint256 tokenId) external view returns (bytes6) {... */\n      swap2\n      swap1\n      pop\n      jump\t// out\n        /* \"src/Rollup.sol\":2827:2977  function _pointer(bytes4 selector, uint256 at) private pure returns (bytes32) {... */\n    tag_47:\n        /* \"src/Rollup.sol\":2896:2903  bytes32 */\n      0x00\n        /* \"src/Rollup.sol\":2947:2955  selector */\n      dup3\n        /* \"src/Rollup.sol\":2965:2967  at */\n      dup3\n        /* \"src/Rollup.sol\":2930:2969  abi.encodePacked(selector, uint224(at)) */\n      add(0x20, mload(0x40))\n      tag_94\n      swap3\n      swap2\n      swap1\n      tag_95\n      jump\t// in\n    tag_94:\n      mload(0x40)\n      0x20\n      dup2\n      dup4\n      sub\n      sub\n      dup2\n      mstore\n      swap1\n      0x40\n      mstore\n        /* \"src/Rollup.sol\":2922:2970  bytes32(abi.encodePacked(selector, uint224(at))) */\n      tag_96\n      swap1\n      tag_97\n      jump\t// in\n    tag_96:\n        /* \"src/Rollup.sol\":2915:2970  return bytes32(abi.encodePacked(selector, uint224(at))) */\n      swap1\n      pop\n        /* \"src/Rollup.sol\":2827:2977  function _pointer(bytes4 selector, uint256 at) private pure returns (bytes32) {... */\n      swap3\n      swap2\n      pop\n      pop\n      jump\t// out\n        /* \"solady@0.1.7/src/utils/SSTORE2.sol\":8695:8861  function predictDeterministicAddress(bytes32 salt) internal view returns (address pointer) {... */\n    tag_48:\n        /* \"solady@0.1.7/src/utils/SSTORE2.sol\":8769:8784  address pointer */\n      0x00\n        /* \"solady@0.1.7/src/utils/SSTORE2.sol\":8806:8854  predictDeterministicAddress(salt, address(this)) */\n      tag_99\n        /* \"solady@0.1.7/src/utils/SSTORE2.sol\":8834:8838  salt */\n      dup3\n        /* \"solady@0.1.7/src/utils/SSTORE2.sol\":8848:8852  this */\n      address\n        /* \"solady@0.1.7/src/utils/SSTORE2.sol\":8806:8833  predictDeterministicAddress */\n      tag_100\n        /* \"solady@0.1.7/src/utils/SSTORE2.sol\":8806:8854  predictDeterministicAddress(salt, address(this)) */\n      jump\t// in\n    tag_99:\n        /* \"solady@0.1.7/src/utils/SSTORE2.sol\":8796:8854  pointer = predictDeterministicAddress(salt, address(this)) */\n      swap1\n      pop\n        /* \"solady@0.1.7/src/utils/SSTORE2.sol\":8695:8861  function predictDeterministicAddress(bytes32 salt) internal view returns (address pointer) {... */\n      swap2\n      swap1\n      pop\n      jump\t// out\n        /* \"solady@0.1.7/src/utils/SSTORE2.sol\":11718:12630  function read(address pointer, uint256 start, uint256 end)... */\n    tag_53:\n        /* \"solady@0.1.7/src/utils/SSTORE2.sol\":11824:11841  bytes memory data */\n      0x60\n        /* \"solady@0.1.7/src/utils/SSTORE2.sol\":11937:11941  0x40 */\n      0x40\n        /* \"solady@0.1.7/src/utils/SSTORE2.sol\":11931:11942  mload(0x40) */\n      mload\n        /* \"solady@0.1.7/src/utils/SSTORE2.sol\":11923:11942  data := mload(0x40) */\n      swap1\n      pop\n        /* \"solady@0.1.7/src/utils/SSTORE2.sol\":11973:11979  0xffff */\n      0xffff\n        /* \"solady@0.1.7/src/utils/SSTORE2.sol\":11968:11971  end */\n      dup3\n        /* \"solady@0.1.7/src/utils/SSTORE2.sol\":11965:11980  lt(end, 0xffff) */\n      lt\n        /* \"solady@0.1.7/src/utils/SSTORE2.sol\":11955:11999  if iszero(lt(end, 0xffff)) { end := 0xffff } */\n      tag_102\n      jumpi\n        /* \"solady@0.1.7/src/utils/SSTORE2.sol\":11991:11997  0xffff */\n      0xffff\n        /* \"solady@0.1.7/src/utils/SSTORE2.sol\":11984:11997  end := 0xffff */\n      swap2\n      pop\n        /* \"solady@0.1.7/src/utils/SSTORE2.sol\":11955:11999  if iszero(lt(end, 0xffff)) { end := 0xffff } */\n    tag_102:\n        /* \"solady@0.1.7/src/utils/SSTORE2.sol\":12052:12055  end */\n      dup2\n        /* \"solady@0.1.7/src/utils/SSTORE2.sol\":12045:12050  start */\n      dup4\n        /* \"solady@0.1.7/src/utils/SSTORE2.sol\":12042:12056  lt(start, end) */\n      lt\n        /* \"solady@0.1.7/src/utils/SSTORE2.sol\":12034:12039  start */\n      dup4\n        /* \"solady@0.1.7/src/utils/SSTORE2.sol\":12029:12032  end */\n      dup4\n        /* \"solady@0.1.7/src/utils/SSTORE2.sol\":12025:12040  sub(end, start) */\n      sub\n        /* \"solady@0.1.7/src/utils/SSTORE2.sol\":12021:12057  mul(sub(end, start), lt(start, end)) */\n      mul\n        /* \"solady@0.1.7/src/utils/SSTORE2.sol\":12122:12126  0x01 */\n      0x01\n        /* \"solady@0.1.7/src/utils/SSTORE2.sol\":12119:12120  d */\n      dup2\n        /* \"solady@0.1.7/src/utils/SSTORE2.sol\":12115:12127  add(d, 0x01) */\n      add\n        /* \"solady@0.1.7/src/utils/SSTORE2.sol\":12108:12113  start */\n      dup5\n        /* \"solady@0.1.7/src/utils/SSTORE2.sol\":12101:12105  0x1f */\n      0x1f\n        /* \"solady@0.1.7/src/utils/SSTORE2.sol\":12095:12099  data */\n      dup5\n        /* \"solady@0.1.7/src/utils/SSTORE2.sol\":12091:12106  add(data, 0x1f) */\n      add\n        /* \"solady@0.1.7/src/utils/SSTORE2.sol\":12082:12089  pointer */\n      dup8\n        /* \"solady@0.1.7/src/utils/SSTORE2.sol\":12070:12128  extcodecopy(pointer, add(data, 0x1f), start, add(d, 0x01)) */\n      extcodecopy\n        /* \"solady@0.1.7/src/utils/SSTORE2.sol\":12177:12178  d */\n      dup1\n        /* \"solady@0.1.7/src/utils/SSTORE2.sol\":12171:12175  data */\n      dup3\n        /* \"solady@0.1.7/src/utils/SSTORE2.sol\":12167:12179  add(data, d) */\n      add\n        /* \"solady@0.1.7/src/utils/SSTORE2.sol\":12161:12180  mload(add(data, d)) */\n      mload\n        /* \"solady@0.1.7/src/utils/SSTORE2.sol\":12155:12159  0xff */\n      0xff\n        /* \"solady@0.1.7/src/utils/SSTORE2.sol\":12151:12181  and(0xff, mload(add(data, d))) */\n      and\n        /* \"solady@0.1.7/src/utils/SSTORE2.sol\":12141:12411  if iszero(and(0xff, mload(add(data, d)))) {... */\n      tag_103\n      jumpi\n        /* \"solady@0.1.7/src/utils/SSTORE2.sol\":12236:12240  0x01 */\n      0x01\n        /* \"solady@0.1.7/src/utils/SSTORE2.sol\":12226:12233  pointer */\n      dup6\n        /* \"solady@0.1.7/src/utils/SSTORE2.sol\":12214:12234  extcodesize(pointer) */\n      extcodesize\n        /* \"solady@0.1.7/src/utils/SSTORE2.sol\":12210:12241  sub(extcodesize(pointer), 0x01) */\n      sub\n        /* \"solady@0.1.7/src/utils/SSTORE2.sol\":12317:12318  n */\n      dup1\n        /* \"solady@0.1.7/src/utils/SSTORE2.sol\":12313:12315  40 */\n      0x28\n        /* \"solady@0.1.7/src/utils/SSTORE2.sol\":12309:12319  shr(40, n) */\n      shr\n        /* \"solady@0.1.7/src/utils/SSTORE2.sol\":12291:12307  returndatasize() */\n      returndatasize\n        /* \"solady@0.1.7/src/utils/SSTORE2.sol\":12273:12289  returndatasize() */\n      returndatasize\n        /* \"solady@0.1.7/src/utils/SSTORE2.sol\":12258:12320  returndatacopy(returndatasize(), returndatasize(), shr(40, n)) */\n      returndatacopy\n        /* \"solady@0.1.7/src/utils/SSTORE2.sol\":12392:12393  n */\n      dup1\n        /* \"solady@0.1.7/src/utils/SSTORE2.sol\":12387:12390  end */\n      dup5\n        /* \"solady@0.1.7/src/utils/SSTORE2.sol\":12383:12394  sub(end, n) */\n      sub\n        /* \"solady@0.1.7/src/utils/SSTORE2.sol\":12379:12380  n */\n      dup2\n        /* \"solady@0.1.7/src/utils/SSTORE2.sol\":12374:12377  end */\n      dup6\n        /* \"solady@0.1.7/src/utils/SSTORE2.sol\":12371:12381  gt(end, n) */\n      gt\n        /* \"solady@0.1.7/src/utils/SSTORE2.sol\":12367:12395  mul(gt(end, n), sub(end, n)) */\n      mul\n        /* \"solady@0.1.7/src/utils/SSTORE2.sol\":12364:12365  d */\n      dup3\n        /* \"solady@0.1.7/src/utils/SSTORE2.sol\":12360:12396  sub(d, mul(gt(end, n), sub(end, n))) */\n      sub\n        /* \"solady@0.1.7/src/utils/SSTORE2.sol\":12352:12357  start */\n      dup6\n        /* \"solady@0.1.7/src/utils/SSTORE2.sol\":12349:12350  n */\n      dup3\n        /* \"solady@0.1.7/src/utils/SSTORE2.sol\":12346:12358  gt(n, start) */\n      gt\n        /* \"solady@0.1.7/src/utils/SSTORE2.sol\":12342:12397  mul(gt(n, start), sub(d, mul(gt(end, n), sub(end, n)))) */\n      mul\n        /* \"solady@0.1.7/src/utils/SSTORE2.sol\":12337:12397  d := mul(gt(n, start), sub(d, mul(gt(end, n), sub(end, n)))) */\n      swap2\n      pop\n        /* \"solady@0.1.7/src/utils/SSTORE2.sol\":12183:12411  {... */\n      pop\n        /* \"solady@0.1.7/src/utils/SSTORE2.sol\":12141:12411  if iszero(and(0xff, mload(add(data, d)))) {... */\n    tag_103:\n        /* \"solady@0.1.7/src/utils/SSTORE2.sol\":12437:12438  d */\n      dup1\n        /* \"solady@0.1.7/src/utils/SSTORE2.sol\":12431:12435  data */\n      dup3\n        /* \"solady@0.1.7/src/utils/SSTORE2.sol\":12424:12439  mstore(data, d) */\n      mstore\n        /* \"solady@0.1.7/src/utils/SSTORE2.sol\":12505:12506  0 */\n      0x00\n        /* \"solady@0.1.7/src/utils/SSTORE2.sol\":12501:12502  d */\n      dup2\n        /* \"solady@0.1.7/src/utils/SSTORE2.sol\":12494:12498  0x20 */\n      0x20\n        /* \"solady@0.1.7/src/utils/SSTORE2.sol\":12488:12492  data */\n      dup5\n        /* \"solady@0.1.7/src/utils/SSTORE2.sol\":12484:12499  add(data, 0x20) */\n      add\n        /* \"solady@0.1.7/src/utils/SSTORE2.sol\":12480:12503  add(add(data, 0x20), d) */\n      add\n        /* \"solady@0.1.7/src/utils/SSTORE2.sol\":12473:12507  mstore(add(add(data, 0x20), d), 0) */\n      mstore\n        /* \"solady@0.1.7/src/utils/SSTORE2.sol\":12591:12592  d */\n      dup1\n        /* \"solady@0.1.7/src/utils/SSTORE2.sol\":12584:12588  0x40 */\n      0x40\n        /* \"solady@0.1.7/src/utils/SSTORE2.sol\":12578:12582  data */\n      dup4\n        /* \"solady@0.1.7/src/utils/SSTORE2.sol\":12574:12589  add(data, 0x40) */\n      add\n        /* \"solady@0.1.7/src/utils/SSTORE2.sol\":12570:12593  add(add(data, 0x40), d) */\n      add\n        /* \"solady@0.1.7/src/utils/SSTORE2.sol\":12564:12568  0x40 */\n      0x40\n        /* \"solady@0.1.7/src/utils/SSTORE2.sol\":12557:12594  mstore(0x40, add(add(data, 0x40), d)) */\n      mstore\n        /* \"solady@0.1.7/src/utils/SSTORE2.sol\":11909:12624  {... */\n      pop\n        /* \"solady@0.1.7/src/utils/SSTORE2.sol\":11718:12630  function read(address pointer, uint256 start, uint256 end)... */\n      swap4\n      swap3\n      pop\n      pop\n      pop\n      jump\t// out\n        /* \"solady@0.1.7/src/utils/SSTORE2.sol\":4961:6460  function writeDeterministic(bytes memory data, bytes32 salt)... */\n    tag_84:\n        /* \"solady@0.1.7/src/utils/SSTORE2.sol\":5056:5071  address pointer */\n      0x00\n        /* \"solady@0.1.7/src/utils/SSTORE2.sol\":5168:5172  data */\n      dup3\n        /* \"solady@0.1.7/src/utils/SSTORE2.sol\":5162:5173  mload(data) */\n      mload\n        /* \"solady@0.1.7/src/utils/SSTORE2.sol\":5199:5222  _CREATE3_PROXY_INITCODE */\n      0x67363d3d37363d34f03d5260086018f3\n        /* \"solady@0.1.7/src/utils/SSTORE2.sol\":5193:5197  0x00 */\n      0x00\n        /* \"solady@0.1.7/src/utils/SSTORE2.sol\":5186:5223  mstore(0x00, _CREATE3_PROXY_INITCODE) */\n      mstore\n        /* \"solady@0.1.7/src/utils/SSTORE2.sol\":5304:5308  salt */\n      dup3\n        /* \"solady@0.1.7/src/utils/SSTORE2.sol\":5298:5302  0x10 */\n      0x10\n        /* \"solady@0.1.7/src/utils/SSTORE2.sol\":5292:5296  0x10 */\n      dup1\n        /* \"solady@0.1.7/src/utils/SSTORE2.sol\":5289:5290  0 */\n      0x00\n        /* \"solady@0.1.7/src/utils/SSTORE2.sol\":5281:5309  create2(0, 0x10, 0x10, salt) */\n      create2\n        /* \"solady@0.1.7/src/utils/SSTORE2.sol\":5332:5337  proxy */\n      dup1\n        /* \"solady@0.1.7/src/utils/SSTORE2.sol\":5322:5455  if iszero(proxy) {... */\n      tag_105\n      jumpi\n        /* \"solady@0.1.7/src/utils/SSTORE2.sol\":5370:5380  0x30116425 */\n      0x30116425\n        /* \"solady@0.1.7/src/utils/SSTORE2.sol\":5364:5368  0x00 */\n      0x00\n        /* \"solady@0.1.7/src/utils/SSTORE2.sol\":5357:5381  mstore(0x00, 0x30116425) */\n      mstore\n        /* \"solady@0.1.7/src/utils/SSTORE2.sol\":5436:5440  0x04 */\n      0x04\n        /* \"solady@0.1.7/src/utils/SSTORE2.sol\":5430:5434  0x1c */\n      0x1c\n        /* \"solady@0.1.7/src/utils/SSTORE2.sol\":5423:5441  revert(0x1c, 0x04) */\n      revert\n        /* \"solady@0.1.7/src/utils/SSTORE2.sol\":5322:5455  if iszero(proxy) {... */\n    tag_105:\n        /* \"solady@0.1.7/src/utils/SSTORE2.sol\":5481:5486  proxy */\n      dup1\n        /* \"solady@0.1.7/src/utils/SSTORE2.sol\":5475:5479  0x14 */\n      0x14\n        /* \"solady@0.1.7/src/utils/SSTORE2.sol\":5468:5487  mstore(0x14, proxy) */\n      mstore\n        /* \"solady@0.1.7/src/utils/SSTORE2.sol\":5719:5725  0xd694 */\n      0xd694\n        /* \"solady@0.1.7/src/utils/SSTORE2.sol\":5713:5717  0x00 */\n      0x00\n        /* \"solady@0.1.7/src/utils/SSTORE2.sol\":5706:5726  mstore(0x00, 0xd694) */\n      mstore\n        /* \"solady@0.1.7/src/utils/SSTORE2.sol\":5753:5757  0x01 */\n      0x01\n        /* \"solady@0.1.7/src/utils/SSTORE2.sol\":5747:5751  0x34 */\n      0x34\n        /* \"solady@0.1.7/src/utils/SSTORE2.sol\":5739:5758  mstore8(0x34, 0x01) */\n      mstore8\n        /* \"solady@0.1.7/src/utils/SSTORE2.sol\":5834:5838  0x17 */\n      0x17\n        /* \"solady@0.1.7/src/utils/SSTORE2.sol\":5828:5832  0x1e */\n      0x1e\n        /* \"solady@0.1.7/src/utils/SSTORE2.sol\":5818:5839  keccak256(0x1e, 0x17) */\n      keccak256\n        /* \"solady@0.1.7/src/utils/SSTORE2.sol\":5807:5839  pointer := keccak256(0x1e, 0x17) */\n      swap3\n      pop\n        /* \"solady@0.1.7/src/utils/SSTORE2.sol\":5999:6000  n */\n      dup2\n        /* \"solady@0.1.7/src/utils/SSTORE2.sol\":5993:5997  0x40 */\n      0x40\n        /* \"solady@0.1.7/src/utils/SSTORE2.sol\":5989:6001  shl(0x40, n) */\n      shl\n        /* \"solady@0.1.7/src/utils/SSTORE2.sol\":5961:5987  0xfe61000180600a3d393df300 */\n      0xfe61000180600a3d393df300\n        /* \"solady@0.1.7/src/utils/SSTORE2.sol\":5957:6002  add(0xfe61000180600a3d393df300, shl(0x40, n)) */\n      add\n        /* \"solady@0.1.7/src/utils/SSTORE2.sol\":5947:5953  0xfffe */\n      0xfffe\n        /* \"solady@0.1.7/src/utils/SSTORE2.sol\":5944:5945  n */\n      dup4\n        /* \"solady@0.1.7/src/utils/SSTORE2.sol\":5941:5954  gt(n, 0xfffe) */\n      gt\n        /* \"solady@0.1.7/src/utils/SSTORE2.sol\":5935:5939  data */\n      dup7\n        /* \"solady@0.1.7/src/utils/SSTORE2.sol\":5931:5955  add(data, gt(n, 0xfffe)) */\n      add\n        /* \"solady@0.1.7/src/utils/SSTORE2.sol\":5924:6003  mstore(add(data, gt(n, 0xfffe)), add(0xfe61000180600a3d393df300, shl(0x40, n))) */\n      mstore\n        /* \"solady@0.1.7/src/utils/SSTORE2.sol\":6229:6233  0x00 */\n      0x00\n        /* \"solady@0.1.7/src/utils/SSTORE2.sol\":6217:6227  codesize() */\n      codesize\n        /* \"solady@0.1.7/src/utils/SSTORE2.sol\":6211:6214  0xb */\n      0x0b\n        /* \"solady@0.1.7/src/utils/SSTORE2.sol\":6208:6209  n */\n      dup5\n        /* \"solady@0.1.7/src/utils/SSTORE2.sol\":6204:6215  add(n, 0xb) */\n      add\n        /* \"solady@0.1.7/src/utils/SSTORE2.sol\":6197:6201  0x15 */\n      0x15\n        /* \"solady@0.1.7/src/utils/SSTORE2.sol\":6191:6195  data */\n      dup9\n        /* \"solady@0.1.7/src/utils/SSTORE2.sol\":6187:6202  add(data, 0x15) */\n      add\n        /* \"solady@0.1.7/src/utils/SSTORE2.sol\":6184:6185  0 */\n      0x00\n        /* \"solady@0.1.7/src/utils/SSTORE2.sol\":6177:6182  proxy */\n      dup6\n        /* \"solady@0.1.7/src/utils/SSTORE2.sol\":6170:6175  gas() */\n      gas\n        /* \"solady@0.1.7/src/utils/SSTORE2.sol\":6165:6234  call(gas(), proxy, 0, add(data, 0x15), add(n, 0xb), codesize(), 0x00) */\n      call\n        /* \"solady@0.1.7/src/utils/SSTORE2.sol\":6135:6142  pointer */\n      dup4\n        /* \"solady@0.1.7/src/utils/SSTORE2.sol\":6123:6143  extcodesize(pointer) */\n      extcodesize\n        /* \"solady@0.1.7/src/utils/SSTORE2.sol\":6043:6252  mul( // The arguments of `mul` are evaluated last to first.... */\n      mul\n        /* \"solady@0.1.7/src/utils/SSTORE2.sol\":6016:6383  if iszero(... */\n      tag_106\n      jumpi\n        /* \"solady@0.1.7/src/utils/SSTORE2.sol\":6298:6308  0x30116425 */\n      0x30116425\n        /* \"solady@0.1.7/src/utils/SSTORE2.sol\":6292:6296  0x00 */\n      0x00\n        /* \"solady@0.1.7/src/utils/SSTORE2.sol\":6285:6309  mstore(0x00, 0x30116425) */\n      mstore\n        /* \"solady@0.1.7/src/utils/SSTORE2.sol\":6364:6368  0x04 */\n      0x04\n        /* \"solady@0.1.7/src/utils/SSTORE2.sol\":6358:6362  0x1c */\n      0x1c\n        /* \"solady@0.1.7/src/utils/SSTORE2.sol\":6351:6369  revert(0x1c, 0x04) */\n      revert\n        /* \"solady@0.1.7/src/utils/SSTORE2.sol\":6016:6383  if iszero(... */\n    tag_106:\n        /* \"solady@0.1.7/src/utils/SSTORE2.sol\":6409:6410  n */\n      dup2\n        /* \"solady@0.1.7/src/utils/SSTORE2.sol\":6403:6407  data */\n      dup6\n        /* \"solady@0.1.7/src/utils/SSTORE2.sol\":6396:6411  mstore(data, n) */\n      mstore\n        /* \"solady@0.1.7/src/utils/SSTORE2.sol\":5139:6454  {... */\n      pop\n      pop\n        /* \"solady@0.1.7/src/utils/SSTORE2.sol\":4961:6460  function writeDeterministic(bytes memory data, bytes32 salt)... */\n      swap3\n      swap2\n      pop\n      pop\n      jump\t// out\n        /* \"solady@0.1.7/src/utils/SSTORE2.sol\":8952:9941  function predictDeterministicAddress(bytes32 salt, address deployer)... */\n    tag_100:\n        /* \"solady@0.1.7/src/utils/SSTORE2.sol\":9068:9083  address pointer */\n      0x00\n        /* \"solady@0.1.7/src/utils/SSTORE2.sol\":9180:9184  0x40 */\n      0x40\n        /* \"solady@0.1.7/src/utils/SSTORE2.sol\":9174:9185  mload(0x40) */\n      mload\n        /* \"solady@0.1.7/src/utils/SSTORE2.sol\":9245:9253  deployer */\n      dup3\n        /* \"solady@0.1.7/src/utils/SSTORE2.sol\":9239:9243  0x00 */\n      0x00\n        /* \"solady@0.1.7/src/utils/SSTORE2.sol\":9232:9254  mstore(0x00, deployer) */\n      mstore\n        /* \"solady@0.1.7/src/utils/SSTORE2.sol\":9302:9306  0xff */\n      0xff\n        /* \"solady@0.1.7/src/utils/SSTORE2.sol\":9296:9300  0x0b */\n      0x0b\n        /* \"solady@0.1.7/src/utils/SSTORE2.sol\":9288:9307  mstore8(0x0b, 0xff) */\n      mstore8\n        /* \"solady@0.1.7/src/utils/SSTORE2.sol\":9354:9358  salt */\n      dup4\n        /* \"solady@0.1.7/src/utils/SSTORE2.sol\":9348:9352  0x20 */\n      0x20\n        /* \"solady@0.1.7/src/utils/SSTORE2.sol\":9341:9359  mstore(0x20, salt) */\n      mstore\n        /* \"solady@0.1.7/src/utils/SSTORE2.sol\":9404:9431  CREATE3_PROXY_INITCODE_HASH */\n      0x21c35dbe1b344a2488cf3321d6ce542f8e9f305544ff09e4993a62319a497c1f\n        /* \"solady@0.1.7/src/utils/SSTORE2.sol\":9398:9402  0x40 */\n      0x40\n        /* \"solady@0.1.7/src/utils/SSTORE2.sol\":9391:9432  mstore(0x40, CREATE3_PROXY_INITCODE_HASH) */\n      mstore\n        /* \"solady@0.1.7/src/utils/SSTORE2.sol\":9503:9507  0x55 */\n      0x55\n        /* \"solady@0.1.7/src/utils/SSTORE2.sol\":9497:9501  0x0b */\n      0x0b\n        /* \"solady@0.1.7/src/utils/SSTORE2.sol\":9487:9508  keccak256(0x0b, 0x55) */\n      keccak256\n        /* \"solady@0.1.7/src/utils/SSTORE2.sol\":9481:9485  0x14 */\n      0x14\n        /* \"solady@0.1.7/src/utils/SSTORE2.sol\":9474:9509  mstore(0x14, keccak256(0x0b, 0x55)) */\n      mstore\n        /* \"solady@0.1.7/src/utils/SSTORE2.sol\":9565:9566  m */\n      dup1\n        /* \"solady@0.1.7/src/utils/SSTORE2.sol\":9559:9563  0x40 */\n      0x40\n        /* \"solady@0.1.7/src/utils/SSTORE2.sol\":9552:9567  mstore(0x40, m) */\n      mstore\n        /* \"solady@0.1.7/src/utils/SSTORE2.sol\":9805:9811  0xd694 */\n      0xd694\n        /* \"solady@0.1.7/src/utils/SSTORE2.sol\":9799:9803  0x00 */\n      0x00\n        /* \"solady@0.1.7/src/utils/SSTORE2.sol\":9792:9812  mstore(0x00, 0xd694) */\n      mstore\n        /* \"solady@0.1.7/src/utils/SSTORE2.sol\":9839:9843  0x01 */\n      0x01\n        /* \"solady@0.1.7/src/utils/SSTORE2.sol\":9833:9837  0x34 */\n      0x34\n        /* \"solady@0.1.7/src/utils/SSTORE2.sol\":9825:9844  mstore8(0x34, 0x01) */\n      mstore8\n        /* \"solady@0.1.7/src/utils/SSTORE2.sol\":9920:9924  0x17 */\n      0x17\n        /* \"solady@0.1.7/src/utils/SSTORE2.sol\":9914:9918  0x1e */\n      0x1e\n        /* \"solady@0.1.7/src/utils/SSTORE2.sol\":9904:9925  keccak256(0x1e, 0x17) */\n      keccak256\n        /* \"solady@0.1.7/src/utils/SSTORE2.sol\":9893:9925  pointer := keccak256(0x1e, 0x17) */\n      swap2\n      pop\n        /* \"solady@0.1.7/src/utils/SSTORE2.sol\":9151:9935  {... */\n      pop\n        /* \"solady@0.1.7/src/utils/SSTORE2.sol\":8952:9941  function predictDeterministicAddress(bytes32 salt, address deployer)... */\n      swap3\n      swap2\n      pop\n      pop\n      jump\t// out\n        /* \"#utility.yul\":88:205   */\n    tag_109:\n        /* \"#utility.yul\":197:198   */\n      0x00\n        /* \"#utility.yul\":194:195   */\n      0x00\n        /* \"#utility.yul\":187:199   */\n      revert\n        /* \"#utility.yul\":211:328   */\n    tag_110:\n        /* \"#utility.yul\":320:321   */\n      0x00\n        /* \"#utility.yul\":317:318   */\n      0x00\n        /* \"#utility.yul\":310:322   */\n      revert\n        /* \"#utility.yul\":334:411   */\n    tag_111:\n        /* \"#utility.yul\":371:378   */\n      0x00\n        /* \"#utility.yul\":400:405   */\n      dup2\n        /* \"#utility.yul\":389:405   */\n      swap1\n      pop\n        /* \"#utility.yul\":334:411   */\n      swap2\n      swap1\n      pop\n      jump\t// out\n        /* \"#utility.yul\":417:539   */\n    tag_112:\n        /* \"#utility.yul\":490:514   */\n      tag_162\n        /* \"#utility.yul\":508:513   */\n      dup2\n        /* \"#utility.yul\":490:514   */\n      tag_111\n      jump\t// in\n    tag_162:\n        /* \"#utility.yul\":483:488   */\n      dup2\n        /* \"#utility.yul\":480:515   */\n      eq\n        /* \"#utility.yul\":470:533   */\n      tag_163\n      jumpi\n        /* \"#utility.yul\":529:530   */\n      0x00\n        /* \"#utility.yul\":526:527   */\n      0x00\n        /* \"#utility.yul\":519:531   */\n      revert\n        /* \"#utility.yul\":470:533   */\n    tag_163:\n        /* \"#utility.yul\":417:539   */\n      pop\n      jump\t// out\n        /* \"#utility.yul\":545:684   */\n    tag_113:\n        /* \"#utility.yul\":591:596   */\n      0x00\n        /* \"#utility.yul\":629:635   */\n      dup2\n        /* \"#utility.yul\":616:636   */\n      calldataload\n        /* \"#utility.yul\":607:636   */\n      swap1\n      pop\n        /* \"#utility.yul\":645:678   */\n      tag_165\n        /* \"#utility.yul\":672:677   */\n      dup2\n        /* \"#utility.yul\":645:678   */\n      tag_112\n      jump\t// in\n    tag_165:\n        /* \"#utility.yul\":545:684   */\n      swap3\n      swap2\n      pop\n      pop\n      jump\t// out\n        /* \"#utility.yul\":690:839   */\n    tag_114:\n        /* \"#utility.yul\":726:733   */\n      0x00\n        /* \"#utility.yul\":766:832   */\n      0xffffffff00000000000000000000000000000000000000000000000000000000\n        /* \"#utility.yul\":759:764   */\n      dup3\n        /* \"#utility.yul\":755:833   */\n      and\n        /* \"#utility.yul\":744:833   */\n      swap1\n      pop\n        /* \"#utility.yul\":690:839   */\n      swap2\n      swap1\n      pop\n      jump\t// out\n        /* \"#utility.yul\":845:965   */\n    tag_115:\n        /* \"#utility.yul\":917:940   */\n      tag_168\n        /* \"#utility.yul\":934:939   */\n      dup2\n        /* \"#utility.yul\":917:940   */\n      tag_114\n      jump\t// in\n    tag_168:\n        /* \"#utility.yul\":910:915   */\n      dup2\n        /* \"#utility.yul\":907:941   */\n      eq\n        /* \"#utility.yul\":897:959   */\n      tag_169\n      jumpi\n        /* \"#utility.yul\":955:956   */\n      0x00\n        /* \"#utility.yul\":952:953   */\n      0x00\n        /* \"#utility.yul\":945:957   */\n      revert\n        /* \"#utility.yul\":897:959   */\n    tag_169:\n        /* \"#utility.yul\":845:965   */\n      pop\n      jump\t// out\n        /* \"#utility.yul\":971:1108   */\n    tag_116:\n        /* \"#utility.yul\":1016:1021   */\n      0x00\n        /* \"#utility.yul\":1054:1060   */\n      dup2\n        /* \"#utility.yul\":1041:1061   */\n      calldataload\n        /* \"#utility.yul\":1032:1061   */\n      swap1\n      pop\n        /* \"#utility.yul\":1070:1102   */\n      tag_171\n        /* \"#utility.yul\":1096:1101   */\n      dup2\n        /* \"#utility.yul\":1070:1102   */\n      tag_115\n      jump\t// in\n    tag_171:\n        /* \"#utility.yul\":971:1108   */\n      swap3\n      swap2\n      pop\n      pop\n      jump\t// out\n        /* \"#utility.yul\":1114:1586   */\n    tag_13:\n        /* \"#utility.yul\":1181:1187   */\n      0x00\n        /* \"#utility.yul\":1189:1195   */\n      0x00\n        /* \"#utility.yul\":1238:1240   */\n      0x40\n        /* \"#utility.yul\":1226:1235   */\n      dup4\n        /* \"#utility.yul\":1217:1224   */\n      dup6\n        /* \"#utility.yul\":1213:1236   */\n      sub\n        /* \"#utility.yul\":1209:1241   */\n      slt\n        /* \"#utility.yul\":1206:1325   */\n      iszero\n      tag_173\n      jumpi\n        /* \"#utility.yul\":1244:1323   */\n      tag_174\n      tag_109\n      jump\t// in\n    tag_174:\n        /* \"#utility.yul\":1206:1325   */\n    tag_173:\n        /* \"#utility.yul\":1364:1365   */\n      0x00\n        /* \"#utility.yul\":1389:1442   */\n      tag_175\n        /* \"#utility.yul\":1434:1441   */\n      dup6\n        /* \"#utility.yul\":1425:1431   */\n      dup3\n        /* \"#utility.yul\":1414:1423   */\n      dup7\n        /* \"#utility.yul\":1410:1432   */\n      add\n        /* \"#utility.yul\":1389:1442   */\n      tag_113\n      jump\t// in\n    tag_175:\n        /* \"#utility.yul\":1379:1442   */\n      swap3\n      pop\n        /* \"#utility.yul\":1335:1452   */\n      pop\n        /* \"#utility.yul\":1491:1493   */\n      0x20\n        /* \"#utility.yul\":1517:1569   */\n      tag_176\n        /* \"#utility.yul\":1561:1568   */\n      dup6\n        /* \"#utility.yul\":1552:1558   */\n      dup3\n        /* \"#utility.yul\":1541:1550   */\n      dup7\n        /* \"#utility.yul\":1537:1559   */\n      add\n        /* \"#utility.yul\":1517:1569   */\n      tag_116\n      jump\t// in\n    tag_176:\n        /* \"#utility.yul\":1507:1569   */\n      swap2\n      pop\n        /* \"#utility.yul\":1462:1579   */\n      pop\n        /* \"#utility.yul\":1114:1586   */\n      swap3\n      pop\n      swap3\n      swap1\n      pop\n      jump\t// out\n        /* \"#utility.yul\":1592:1718   */\n    tag_117:\n        /* \"#utility.yul\":1629:1636   */\n      0x00\n        /* \"#utility.yul\":1669:1711   */\n      0xffffffffffffffffffffffffffffffffffffffff\n        /* \"#utility.yul\":1662:1667   */\n      dup3\n        /* \"#utility.yul\":1658:1712   */\n      and\n        /* \"#utility.yul\":1647:1712   */\n      swap1\n      pop\n        /* \"#utility.yul\":1592:1718   */\n      swap2\n      swap1\n      pop\n      jump\t// out\n        /* \"#utility.yul\":1724:1820   */\n    tag_118:\n        /* \"#utility.yul\":1761:1768   */\n      0x00\n        /* \"#utility.yul\":1790:1814   */\n      tag_179\n        /* \"#utility.yul\":1808:1813   */\n      dup3\n        /* \"#utility.yul\":1790:1814   */\n      tag_117\n      jump\t// in\n    tag_179:\n        /* \"#utility.yul\":1779:1814   */\n      swap1\n      pop\n        /* \"#utility.yul\":1724:1820   */\n      swap2\n      swap1\n      pop\n      jump\t// out\n        /* \"#utility.yul\":1826:1944   */\n    tag_119:\n        /* \"#utility.yul\":1913:1937   */\n      tag_181\n        /* \"#utility.yul\":1931:1936   */\n      dup2\n        /* \"#utility.yul\":1913:1937   */\n      tag_118\n      jump\t// in\n    tag_181:\n        /* \"#utility.yul\":1908:1911   */\n      dup3\n        /* \"#utility.yul\":1901:1938   */\n      mstore\n        /* \"#utility.yul\":1826:1944   */\n      pop\n      pop\n      jump\t// out\n        /* \"#utility.yul\":1950:2172   */\n    tag_16:\n        /* \"#utility.yul\":2043:2047   */\n      0x00\n        /* \"#utility.yul\":2081:2083   */\n      0x20\n        /* \"#utility.yul\":2070:2079   */\n      dup3\n        /* \"#utility.yul\":2066:2084   */\n      add\n        /* \"#utility.yul\":2058:2084   */\n      swap1\n      pop\n        /* \"#utility.yul\":2094:2165   */\n      tag_183\n        /* \"#utility.yul\":2162:2163   */\n      0x00\n        /* \"#utility.yul\":2151:2160   */\n      dup4\n        /* \"#utility.yul\":2147:2164   */\n      add\n        /* \"#utility.yul\":2138:2144   */\n      dup5\n        /* \"#utility.yul\":2094:2165   */\n      tag_119\n      jump\t// in\n    tag_183:\n        /* \"#utility.yul\":1950:2172   */\n      swap3\n      swap2\n      pop\n      pop\n      jump\t// out\n        /* \"#utility.yul\":2178:2296   */\n    tag_120:\n        /* \"#utility.yul\":2265:2289   */\n      tag_185\n        /* \"#utility.yul\":2283:2288   */\n      dup2\n        /* \"#utility.yul\":2265:2289   */\n      tag_111\n      jump\t// in\n    tag_185:\n        /* \"#utility.yul\":2260:2263   */\n      dup3\n        /* \"#utility.yul\":2253:2290   */\n      mstore\n        /* \"#utility.yul\":2178:2296   */\n      pop\n      pop\n      jump\t// out\n        /* \"#utility.yul\":2302:2524   */\n    tag_20:\n        /* \"#utility.yul\":2395:2399   */\n      0x00\n        /* \"#utility.yul\":2433:2435   */\n      0x20\n        /* \"#utility.yul\":2422:2431   */\n      dup3\n        /* \"#utility.yul\":2418:2436   */\n      add\n        /* \"#utility.yul\":2410:2436   */\n      swap1\n      pop\n        /* \"#utility.yul\":2446:2517   */\n      tag_187\n        /* \"#utility.yul\":2514:2515   */\n      0x00\n        /* \"#utility.yul\":2503:2512   */\n      dup4\n        /* \"#utility.yul\":2499:2516   */\n      add\n        /* \"#utility.yul\":2490:2496   */\n      dup5\n        /* \"#utility.yul\":2446:2517   */\n      tag_120\n      jump\t// in\n    tag_187:\n        /* \"#utility.yul\":2302:2524   */\n      swap3\n      swap2\n      pop\n      pop\n      jump\t// out\n        /* \"#utility.yul\":2530:3147   */\n    tag_23:\n        /* \"#utility.yul\":2606:2612   */\n      0x00\n        /* \"#utility.yul\":2614:2620   */\n      0x00\n        /* \"#utility.yul\":2622:2628   */\n      0x00\n        /* \"#utility.yul\":2671:2673   */\n      0x60\n        /* \"#utility.yul\":2659:2668   */\n      dup5\n        /* \"#utility.yul\":2650:2657   */\n      dup7\n        /* \"#utility.yul\":2646:2669   */\n      sub\n        /* \"#utility.yul\":2642:2674   */\n      slt\n        /* \"#utility.yul\":2639:2758   */\n      iszero\n      tag_189\n      jumpi\n        /* \"#utility.yul\":2677:2756   */\n      tag_190\n      tag_109\n      jump\t// in\n    tag_190:\n        /* \"#utility.yul\":2639:2758   */\n    tag_189:\n        /* \"#utility.yul\":2797:2798   */\n      0x00\n        /* \"#utility.yul\":2822:2875   */\n      tag_191\n        /* \"#utility.yul\":2867:2874   */\n      dup7\n        /* \"#utility.yul\":2858:2864   */\n      dup3\n        /* \"#utility.yul\":2847:2856   */\n      dup8\n        /* \"#utility.yul\":2843:2865   */\n      add\n        /* \"#utility.yul\":2822:2875   */\n      tag_113\n      jump\t// in\n    tag_191:\n        /* \"#utility.yul\":2812:2875   */\n      swap4\n      pop\n        /* \"#utility.yul\":2768:2885   */\n      pop\n        /* \"#utility.yul\":2924:2926   */\n      0x20\n        /* \"#utility.yul\":2950:3002   */\n      tag_192\n        /* \"#utility.yul\":2994:3001   */\n      dup7\n        /* \"#utility.yul\":2985:2991   */\n      dup3\n        /* \"#utility.yul\":2974:2983   */\n      dup8\n        /* \"#utility.yul\":2970:2992   */\n      add\n        /* \"#utility.yul\":2950:3002   */\n      tag_116\n      jump\t// in\n    tag_192:\n        /* \"#utility.yul\":2940:3002   */\n      swap3\n      pop\n        /* \"#utility.yul\":2895:3012   */\n      pop\n        /* \"#utility.yul\":3051:3053   */\n      0x40\n        /* \"#utility.yul\":3077:3130   */\n      tag_193\n        /* \"#utility.yul\":3122:3129   */\n      dup7\n        /* \"#utility.yul\":3113:3119   */\n      dup3\n        /* \"#utility.yul\":3102:3111   */\n      dup8\n        /* \"#utility.yul\":3098:3120   */\n      add\n        /* \"#utility.yul\":3077:3130   */\n      tag_113\n      jump\t// in\n    tag_193:\n        /* \"#utility.yul\":3067:3130   */\n      swap2\n      pop\n        /* \"#utility.yul\":3022:3140   */\n      pop\n        /* \"#utility.yul\":2530:3147   */\n      swap3\n      pop\n      swap3\n      pop\n      swap3\n      jump\t// out\n        /* \"#utility.yul\":3153:3302   */\n    tag_121:\n        /* \"#utility.yul\":3189:3196   */\n      0x00\n        /* \"#utility.yul\":3229:3295   */\n      0xffffffffffff0000000000000000000000000000000000000000000000000000\n        /* \"#utility.yul\":3222:3227   */\n      dup3\n        /* \"#utility.yul\":3218:3296   */\n      and\n        /* \"#utility.yul\":3207:3296   */\n      swap1\n      pop\n        /* \"#utility.yul\":3153:3302   */\n      swap2\n      swap1\n      pop\n      jump\t// out\n        /* \"#utility.yul\":3308:3423   */\n    tag_122:\n        /* \"#utility.yul\":3393:3416   */\n      tag_196\n        /* \"#utility.yul\":3410:3415   */\n      dup2\n        /* \"#utility.yul\":3393:3416   */\n      tag_121\n      jump\t// in\n    tag_196:\n        /* \"#utility.yul\":3388:3391   */\n      dup3\n        /* \"#utility.yul\":3381:3417   */\n      mstore\n        /* \"#utility.yul\":3308:3423   */\n      pop\n      pop\n      jump\t// out\n        /* \"#utility.yul\":3429:3647   */\n    tag_26:\n        /* \"#utility.yul\":3520:3524   */\n      0x00\n        /* \"#utility.yul\":3558:3560   */\n      0x20\n        /* \"#utility.yul\":3547:3556   */\n      dup3\n        /* \"#utility.yul\":3543:3561   */\n      add\n        /* \"#utility.yul\":3535:3561   */\n      swap1\n      pop\n        /* \"#utility.yul\":3571:3640   */\n      tag_198\n        /* \"#utility.yul\":3637:3638   */\n      0x00\n        /* \"#utility.yul\":3626:3635   */\n      dup4\n        /* \"#utility.yul\":3622:3639   */\n      add\n        /* \"#utility.yul\":3613:3619   */\n      dup5\n        /* \"#utility.yul\":3571:3640   */\n      tag_122\n      jump\t// in\n    tag_198:\n        /* \"#utility.yul\":3429:3647   */\n      swap3\n      swap2\n      pop\n      pop\n      jump\t// out\n        /* \"#utility.yul\":3653:3982   */\n    tag_29:\n        /* \"#utility.yul\":3712:3718   */\n      0x00\n        /* \"#utility.yul\":3761:3763   */\n      0x20\n        /* \"#utility.yul\":3749:3758   */\n      dup3\n        /* \"#utility.yul\":3740:3747   */\n      dup5\n        /* \"#utility.yul\":3736:3759   */\n      sub\n        /* \"#utility.yul\":3732:3764   */\n      slt\n        /* \"#utility.yul\":3729:3848   */\n      iszero\n      tag_200\n      jumpi\n        /* \"#utility.yul\":3767:3846   */\n      tag_201\n      tag_109\n      jump\t// in\n    tag_201:\n        /* \"#utility.yul\":3729:3848   */\n    tag_200:\n        /* \"#utility.yul\":3887:3888   */\n      0x00\n        /* \"#utility.yul\":3912:3965   */\n      tag_202\n        /* \"#utility.yul\":3957:3964   */\n      dup5\n        /* \"#utility.yul\":3948:3954   */\n      dup3\n        /* \"#utility.yul\":3937:3946   */\n      dup6\n        /* \"#utility.yul\":3933:3955   */\n      add\n        /* \"#utility.yul\":3912:3965   */\n      tag_113\n      jump\t// in\n    tag_202:\n        /* \"#utility.yul\":3902:3965   */\n      swap2\n      pop\n        /* \"#utility.yul\":3858:3975   */\n      pop\n        /* \"#utility.yul\":3653:3982   */\n      swap3\n      swap2\n      pop\n      pop\n      jump\t// out\n        /* \"#utility.yul\":3988:4105   */\n    tag_123:\n        /* \"#utility.yul\":4097:4098   */\n      0x00\n        /* \"#utility.yul\":4094:4095   */\n      0x00\n        /* \"#utility.yul\":4087:4099   */\n      revert\n        /* \"#utility.yul\":4111:4228   */\n    tag_124:\n        /* \"#utility.yul\":4220:4221   */\n      0x00\n        /* \"#utility.yul\":4217:4218   */\n      0x00\n        /* \"#utility.yul\":4210:4222   */\n      revert\n        /* \"#utility.yul\":4234:4351   */\n    tag_125:\n        /* \"#utility.yul\":4343:4344   */\n      0x00\n        /* \"#utility.yul\":4340:4341   */\n      0x00\n        /* \"#utility.yul\":4333:4345   */\n      revert\n        /* \"#utility.yul\":4370:4922   */\n    tag_126:\n        /* \"#utility.yul\":4427:4435   */\n      0x00\n        /* \"#utility.yul\":4437:4443   */\n      0x00\n        /* \"#utility.yul\":4487:4490   */\n      dup4\n        /* \"#utility.yul\":4480:4484   */\n      0x1f\n        /* \"#utility.yul\":4472:4478   */\n      dup5\n        /* \"#utility.yul\":4468:4485   */\n      add\n        /* \"#utility.yul\":4464:4491   */\n      slt\n        /* \"#utility.yul\":4454:4576   */\n      tag_207\n      jumpi\n        /* \"#utility.yul\":4495:4574   */\n      tag_208\n      tag_123\n      jump\t// in\n    tag_208:\n        /* \"#utility.yul\":4454:4576   */\n    tag_207:\n        /* \"#utility.yul\":4608:4614   */\n      dup3\n        /* \"#utility.yul\":4595:4615   */\n      calldataload\n        /* \"#utility.yul\":4585:4615   */\n      swap1\n      pop\n        /* \"#utility.yul\":4638:4656   */\n      0xffffffffffffffff\n        /* \"#utility.yul\":4630:4636   */\n      dup2\n        /* \"#utility.yul\":4627:4657   */\n      gt\n        /* \"#utility.yul\":4624:4741   */\n      iszero\n      tag_209\n      jumpi\n        /* \"#utility.yul\":4660:4739   */\n      tag_210\n      tag_124\n      jump\t// in\n    tag_210:\n        /* \"#utility.yul\":4624:4741   */\n    tag_209:\n        /* \"#utility.yul\":4774:4778   */\n      0x20\n        /* \"#utility.yul\":4766:4772   */\n      dup4\n        /* \"#utility.yul\":4762:4779   */\n      add\n        /* \"#utility.yul\":4750:4779   */\n      swap2\n      pop\n        /* \"#utility.yul\":4828:4831   */\n      dup4\n        /* \"#utility.yul\":4820:4824   */\n      0x01\n        /* \"#utility.yul\":4812:4818   */\n      dup3\n        /* \"#utility.yul\":4808:4825   */\n      mul\n        /* \"#utility.yul\":4798:4806   */\n      dup4\n        /* \"#utility.yul\":4794:4826   */\n      add\n        /* \"#utility.yul\":4791:4832   */\n      gt\n        /* \"#utility.yul\":4788:4916   */\n      iszero\n      tag_211\n      jumpi\n        /* \"#utility.yul\":4835:4914   */\n      tag_212\n      tag_125\n      jump\t// in\n    tag_212:\n        /* \"#utility.yul\":4788:4916   */\n    tag_211:\n        /* \"#utility.yul\":4370:4922   */\n      swap3\n      pop\n      swap3\n      swap1\n      pop\n      jump\t// out\n        /* \"#utility.yul\":4928:6287   */\n    tag_34:\n        /* \"#utility.yul\":5047:5053   */\n      0x00\n        /* \"#utility.yul\":5055:5061   */\n      0x00\n        /* \"#utility.yul\":5063:5069   */\n      0x00\n        /* \"#utility.yul\":5071:5077   */\n      0x00\n        /* \"#utility.yul\":5079:5085   */\n      0x00\n        /* \"#utility.yul\":5087:5093   */\n      0x00\n        /* \"#utility.yul\":5095:5101   */\n      0x00\n        /* \"#utility.yul\":5144:5147   */\n      0x80\n        /* \"#utility.yul\":5132:5141   */\n      dup9\n        /* \"#utility.yul\":5123:5130   */\n      dup11\n        /* \"#utility.yul\":5119:5142   */\n      sub\n        /* \"#utility.yul\":5115:5148   */\n      slt\n        /* \"#utility.yul\":5112:5232   */\n      iszero\n      tag_214\n      jumpi\n        /* \"#utility.yul\":5151:5230   */\n      tag_215\n      tag_109\n      jump\t// in\n    tag_215:\n        /* \"#utility.yul\":5112:5232   */\n    tag_214:\n        /* \"#utility.yul\":5271:5272   */\n      0x00\n        /* \"#utility.yul\":5296:5349   */\n      tag_216\n        /* \"#utility.yul\":5341:5348   */\n      dup11\n        /* \"#utility.yul\":5332:5338   */\n      dup3\n        /* \"#utility.yul\":5321:5330   */\n      dup12\n        /* \"#utility.yul\":5317:5339   */\n      add\n        /* \"#utility.yul\":5296:5349   */\n      tag_113\n      jump\t// in\n    tag_216:\n        /* \"#utility.yul\":5286:5349   */\n      swap8\n      pop\n        /* \"#utility.yul\":5242:5359   */\n      pop\n        /* \"#utility.yul\":5426:5428   */\n      0x20\n        /* \"#utility.yul\":5415:5424   */\n      dup9\n        /* \"#utility.yul\":5411:5429   */\n      add\n        /* \"#utility.yul\":5398:5430   */\n      calldataload\n        /* \"#utility.yul\":5457:5475   */\n      0xffffffffffffffff\n        /* \"#utility.yul\":5449:5455   */\n      dup2\n        /* \"#utility.yul\":5446:5476   */\n      gt\n        /* \"#utility.yul\":5443:5560   */\n      iszero\n      tag_217\n      jumpi\n        /* \"#utility.yul\":5479:5558   */\n      tag_218\n      tag_110\n      jump\t// in\n    tag_218:\n        /* \"#utility.yul\":5443:5560   */\n    tag_217:\n        /* \"#utility.yul\":5592:5656   */\n      tag_219\n        /* \"#utility.yul\":5648:5655   */\n      dup11\n        /* \"#utility.yul\":5639:5645   */\n      dup3\n        /* \"#utility.yul\":5628:5637   */\n      dup12\n        /* \"#utility.yul\":5624:5646   */\n      add\n        /* \"#utility.yul\":5592:5656   */\n      tag_126\n      jump\t// in\n    tag_219:\n        /* \"#utility.yul\":5574:5656   */\n      swap7\n      pop\n      swap7\n      pop\n        /* \"#utility.yul\":5369:5666   */\n      pop\n        /* \"#utility.yul\":5733:5735   */\n      0x40\n        /* \"#utility.yul\":5722:5731   */\n      dup9\n        /* \"#utility.yul\":5718:5736   */\n      add\n        /* \"#utility.yul\":5705:5737   */\n      calldataload\n        /* \"#utility.yul\":5764:5782   */\n      0xffffffffffffffff\n        /* \"#utility.yul\":5756:5762   */\n      dup2\n        /* \"#utility.yul\":5753:5783   */\n      gt\n        /* \"#utility.yul\":5750:5867   */\n      iszero\n      tag_220\n      jumpi\n        /* \"#utility.yul\":5786:5865   */\n      tag_221\n      tag_110\n      jump\t// in\n    tag_221:\n        /* \"#utility.yul\":5750:5867   */\n    tag_220:\n        /* \"#utility.yul\":5899:5963   */\n      tag_222\n        /* \"#utility.yul\":5955:5962   */\n      dup11\n        /* \"#utility.yul\":5946:5952   */\n      dup3\n        /* \"#utility.yul\":5935:5944   */\n      dup12\n        /* \"#utility.yul\":5931:5953   */\n      add\n        /* \"#utility.yul\":5899:5963   */\n      tag_126\n      jump\t// in\n    tag_222:\n        /* \"#utility.yul\":5881:5963   */\n      swap5\n      pop\n      swap5\n      pop\n        /* \"#utility.yul\":5676:5973   */\n      pop\n        /* \"#utility.yul\":6040:6042   */\n      0x60\n        /* \"#utility.yul\":6029:6038   */\n      dup9\n        /* \"#utility.yul\":6025:6043   */\n      add\n        /* \"#utility.yul\":6012:6044   */\n      calldataload\n        /* \"#utility.yul\":6071:6089   */\n      0xffffffffffffffff\n        /* \"#utility.yul\":6063:6069   */\n      dup2\n        /* \"#utility.yul\":6060:6090   */\n      gt\n        /* \"#utility.yul\":6057:6174   */\n      iszero\n      tag_223\n      jumpi\n        /* \"#utility.yul\":6093:6172   */\n      tag_224\n      tag_110\n      jump\t// in\n    tag_224:\n        /* \"#utility.yul\":6057:6174   */\n    tag_223:\n        /* \"#utility.yul\":6206:6270   */\n      tag_225\n        /* \"#utility.yul\":6262:6269   */\n      dup11\n        /* \"#utility.yul\":6253:6259   */\n      dup3\n        /* \"#utility.yul\":6242:6251   */\n      dup12\n        /* \"#utility.yul\":6238:6260   */\n      add\n        /* \"#utility.yul\":6206:6270   */\n      tag_126\n      jump\t// in\n    tag_225:\n        /* \"#utility.yul\":6188:6270   */\n      swap3\n      pop\n      swap3\n      pop\n        /* \"#utility.yul\":5983:6280   */\n      pop\n        /* \"#utility.yul\":4928:6287   */\n      swap3\n      swap6\n      swap9\n      swap2\n      swap5\n      swap8\n      pop\n      swap3\n      swap6\n      pop\n      jump\t// out\n        /* \"#utility.yul\":6293:6534   */\n    tag_127:\n        /* \"#utility.yul\":6461:6527   */\n      0x00\n        /* \"#utility.yul\":6456:6459   */\n      dup2\n        /* \"#utility.yul\":6449:6528   */\n      mstore\n        /* \"#utility.yul\":6293:6534   */\n      pop\n      jump\t// out\n        /* \"#utility.yul\":6540:6638   */\n    tag_128:\n        /* \"#utility.yul\":6591:6597   */\n      0x00\n        /* \"#utility.yul\":6625:6630   */\n      dup2\n        /* \"#utility.yul\":6619:6631   */\n      mload\n        /* \"#utility.yul\":6609:6631   */\n      swap1\n      pop\n        /* \"#utility.yul\":6540:6638   */\n      swap2\n      swap1\n      pop\n      jump\t// out\n        /* \"#utility.yul\":6644:6791   */\n    tag_129:\n        /* \"#utility.yul\":6745:6756   */\n      0x00\n        /* \"#utility.yul\":6782:6785   */\n      dup2\n        /* \"#utility.yul\":6767:6785   */\n      swap1\n      pop\n        /* \"#utility.yul\":6644:6791   */\n      swap3\n      swap2\n      pop\n      pop\n      jump\t// out\n        /* \"#utility.yul\":6797:6936   */\n    tag_130:\n        /* \"#utility.yul\":6886:6892   */\n      dup3\n        /* \"#utility.yul\":6881:6884   */\n      dup2\n        /* \"#utility.yul\":6876:6879   */\n      dup4\n        /* \"#utility.yul\":6870:6893   */\n      mcopy\n        /* \"#utility.yul\":6927:6928   */\n      0x00\n        /* \"#utility.yul\":6918:6924   */\n      dup4\n        /* \"#utility.yul\":6913:6916   */\n      dup4\n        /* \"#utility.yul\":6909:6925   */\n      add\n        /* \"#utility.yul\":6902:6929   */\n      mstore\n        /* \"#utility.yul\":6797:6936   */\n      pop\n      pop\n      pop\n      jump\t// out\n        /* \"#utility.yul\":6942:7328   */\n    tag_131:\n        /* \"#utility.yul\":7046:7049   */\n      0x00\n        /* \"#utility.yul\":7074:7112   */\n      tag_231\n        /* \"#utility.yul\":7106:7111   */\n      dup3\n        /* \"#utility.yul\":7074:7112   */\n      tag_128\n      jump\t// in\n    tag_231:\n        /* \"#utility.yul\":7128:7216   */\n      tag_232\n        /* \"#utility.yul\":7209:7215   */\n      dup2\n        /* \"#utility.yul\":7204:7207   */\n      dup6\n        /* \"#utility.yul\":7128:7216   */\n      tag_129\n      jump\t// in\n    tag_232:\n        /* \"#utility.yul\":7121:7216   */\n      swap4\n      pop\n        /* \"#utility.yul\":7225:7290   */\n      tag_233\n        /* \"#utility.yul\":7283:7289   */\n      dup2\n        /* \"#utility.yul\":7278:7281   */\n      dup6\n        /* \"#utility.yul\":7271:7275   */\n      0x20\n        /* \"#utility.yul\":7264:7269   */\n      dup7\n        /* \"#utility.yul\":7260:7276   */\n      add\n        /* \"#utility.yul\":7225:7290   */\n      tag_130\n      jump\t// in\n    tag_233:\n        /* \"#utility.yul\":7315:7321   */\n      dup1\n        /* \"#utility.yul\":7310:7313   */\n      dup5\n        /* \"#utility.yul\":7306:7322   */\n      add\n        /* \"#utility.yul\":7299:7322   */\n      swap2\n      pop\n        /* \"#utility.yul\":7050:7328   */\n      pop\n        /* \"#utility.yul\":6942:7328   */\n      swap3\n      swap2\n      pop\n      pop\n      jump\t// out\n        /* \"#utility.yul\":7334:7869   */\n    tag_55:\n        /* \"#utility.yul\":7554:7557   */\n      0x00\n        /* \"#utility.yul\":7569:7706   */\n      tag_235\n        /* \"#utility.yul\":7702:7705   */\n      dup3\n        /* \"#utility.yul\":7569:7706   */\n      tag_127\n      jump\t// in\n    tag_235:\n        /* \"#utility.yul\":7731:7732   */\n      0x01\n        /* \"#utility.yul\":7726:7729   */\n      dup3\n        /* \"#utility.yul\":7722:7733   */\n      add\n        /* \"#utility.yul\":7715:7733   */\n      swap2\n      pop\n        /* \"#utility.yul\":7750:7843   */\n      tag_236\n        /* \"#utility.yul\":7839:7842   */\n      dup3\n        /* \"#utility.yul\":7830:7836   */\n      dup5\n        /* \"#utility.yul\":7750:7843   */\n      tag_131\n      jump\t// in\n    tag_236:\n        /* \"#utility.yul\":7743:7843   */\n      swap2\n      pop\n        /* \"#utility.yul\":7860:7863   */\n      dup2\n        /* \"#utility.yul\":7853:7863   */\n      swap1\n      pop\n        /* \"#utility.yul\":7334:7869   */\n      swap3\n      swap2\n      pop\n      pop\n      jump\t// out\n        /* \"#utility.yul\":7875:7991   */\n    tag_132:\n        /* \"#utility.yul\":7926:7930   */\n      0x00\n        /* \"#utility.yul\":7949:7952   */\n      dup2\n        /* \"#utility.yul\":7941:7952   */\n      swap1\n      pop\n        /* \"#utility.yul\":7979:7983   */\n      0x20\n        /* \"#utility.yul\":7974:7977   */\n      dup3\n        /* \"#utility.yul\":7970:7984   */\n      add\n        /* \"#utility.yul\":7962:7984   */\n      swap1\n      pop\n        /* \"#utility.yul\":7875:7991   */\n      swap2\n      swap1\n      pop\n      jump\t// out\n        /* \"#utility.yul\":7997:8149   */\n    tag_133:\n        /* \"#utility.yul\":8039:8050   */\n      0x00\n        /* \"#utility.yul\":8075:8103   */\n      tag_239\n        /* \"#utility.yul\":8098:8101   */\n      dup3\n        /* \"#utility.yul\":8092:8102   */\n      mload\n        /* \"#utility.yul\":8075:8103   */\n      tag_121\n      jump\t// in\n    tag_239:\n        /* \"#utility.yul\":8137:8142   */\n      dup1\n        /* \"#utility.yul\":8113:8142   */\n      swap2\n      pop\n        /* \"#utility.yul\":8051:8149   */\n      pop\n        /* \"#utility.yul\":7997:8149   */\n      swap2\n      swap1\n      pop\n      jump\t// out\n        /* \"#utility.yul\":8155:8262   */\n    tag_134:\n        /* \"#utility.yul\":8199:8207   */\n      0x00\n        /* \"#utility.yul\":8249:8254   */\n      dup3\n        /* \"#utility.yul\":8243:8247   */\n      dup3\n        /* \"#utility.yul\":8239:8255   */\n      shl\n        /* \"#utility.yul\":8218:8255   */\n      swap1\n      pop\n        /* \"#utility.yul\":8155:8262   */\n      swap3\n      swap2\n      pop\n      pop\n      jump\t// out\n        /* \"#utility.yul\":8268:8858   */\n    tag_57:\n        /* \"#utility.yul\":8351:8356   */\n      0x00\n        /* \"#utility.yul\":8382:8420   */\n      tag_242\n        /* \"#utility.yul\":8414:8419   */\n      dup3\n        /* \"#utility.yul\":8382:8420   */\n      tag_128\n      jump\t// in\n    tag_242:\n        /* \"#utility.yul\":8445:8450   */\n      dup3\n        /* \"#utility.yul\":8472:8512   */\n      tag_243\n        /* \"#utility.yul\":8506:8511   */\n      dup5\n        /* \"#utility.yul\":8472:8512   */\n      tag_132\n      jump\t// in\n    tag_243:\n        /* \"#utility.yul\":8460:8512   */\n      swap1\n      pop\n        /* \"#utility.yul\":8531:8565   */\n      tag_244\n        /* \"#utility.yul\":8556:8564   */\n      dup2\n        /* \"#utility.yul\":8531:8565   */\n      tag_133\n      jump\t// in\n    tag_244:\n        /* \"#utility.yul\":8522:8565   */\n      swap3\n      pop\n        /* \"#utility.yul\":8589:8590   */\n      0x06\n        /* \"#utility.yul\":8581:8587   */\n      dup3\n        /* \"#utility.yul\":8578:8591   */\n      lt\n        /* \"#utility.yul\":8575:8851   */\n      iszero\n      tag_245\n      jumpi\n        /* \"#utility.yul\":8659:8827   */\n      tag_246\n        /* \"#utility.yul\":8743:8809   */\n      0xffffffffffff0000000000000000000000000000000000000000000000000000\n        /* \"#utility.yul\":8713:8719   */\n      dup4\n        /* \"#utility.yul\":8710:8711   */\n      0x06\n        /* \"#utility.yul\":8706:8720   */\n      sub\n        /* \"#utility.yul\":8703:8704   */\n      0x08\n        /* \"#utility.yul\":8699:8721   */\n      mul\n        /* \"#utility.yul\":8659:8827   */\n      tag_134\n      jump\t// in\n    tag_246:\n        /* \"#utility.yul\":8636:8641   */\n      dup4\n        /* \"#utility.yul\":8615:8841   */\n      and\n        /* \"#utility.yul\":8606:8841   */\n      swap3\n      pop\n        /* \"#utility.yul\":8575:8851   */\n    tag_245:\n        /* \"#utility.yul\":8357:8858   */\n      pop\n      pop\n        /* \"#utility.yul\":8268:8858   */\n      swap2\n      swap1\n      pop\n      jump\t// out\n        /* \"#utility.yul\":8864:9044   */\n    tag_135:\n        /* \"#utility.yul\":8912:8989   */\n      0x4e487b7100000000000000000000000000000000000000000000000000000000\n        /* \"#utility.yul\":8909:8910   */\n      0x00\n        /* \"#utility.yul\":8902:8990   */\n      mstore\n        /* \"#utility.yul\":9009:9013   */\n      0x11\n        /* \"#utility.yul\":9006:9007   */\n      0x04\n        /* \"#utility.yul\":8999:9014   */\n      mstore\n        /* \"#utility.yul\":9033:9037   */\n      0x24\n        /* \"#utility.yul\":9030:9031   */\n      0x00\n        /* \"#utility.yul\":9023:9038   */\n      revert\n        /* \"#utility.yul\":9050:9460   */\n    tag_59:\n        /* \"#utility.yul\":9090:9097   */\n      0x00\n        /* \"#utility.yul\":9113:9133   */\n      tag_249\n        /* \"#utility.yul\":9131:9132   */\n      dup3\n        /* \"#utility.yul\":9113:9133   */\n      tag_111\n      jump\t// in\n    tag_249:\n        /* \"#utility.yul\":9108:9133   */\n      swap2\n      pop\n        /* \"#utility.yul\":9147:9167   */\n      tag_250\n        /* \"#utility.yul\":9165:9166   */\n      dup4\n        /* \"#utility.yul\":9147:9167   */\n      tag_111\n      jump\t// in\n    tag_250:\n        /* \"#utility.yul\":9142:9167   */\n      swap3\n      pop\n        /* \"#utility.yul\":9202:9203   */\n      dup3\n        /* \"#utility.yul\":9199:9200   */\n      dup3\n        /* \"#utility.yul\":9195:9204   */\n      mul\n        /* \"#utility.yul\":9224:9254   */\n      tag_251\n        /* \"#utility.yul\":9242:9253   */\n      dup2\n        /* \"#utility.yul\":9224:9254   */\n      tag_111\n      jump\t// in\n    tag_251:\n        /* \"#utility.yul\":9213:9254   */\n      swap2\n      pop\n        /* \"#utility.yul\":9403:9404   */\n      dup3\n        /* \"#utility.yul\":9394:9401   */\n      dup3\n        /* \"#utility.yul\":9390:9405   */\n      div\n        /* \"#utility.yul\":9387:9388   */\n      dup5\n        /* \"#utility.yul\":9384:9406   */\n      eq\n        /* \"#utility.yul\":9364:9365   */\n      dup4\n        /* \"#utility.yul\":9357:9366   */\n      iszero\n        /* \"#utility.yul\":9337:9420   */\n      or\n        /* \"#utility.yul\":9314:9453   */\n      tag_252\n      jumpi\n        /* \"#utility.yul\":9433:9451   */\n      tag_253\n      tag_135\n      jump\t// in\n    tag_253:\n        /* \"#utility.yul\":9314:9453   */\n    tag_252:\n        /* \"#utility.yul\":9098:9460   */\n      pop\n        /* \"#utility.yul\":9050:9460   */\n      swap3\n      swap2\n      pop\n      pop\n      jump\t// out\n        /* \"#utility.yul\":9466:9660   */\n    tag_61:\n        /* \"#utility.yul\":9506:9510   */\n      0x00\n        /* \"#utility.yul\":9526:9546   */\n      tag_255\n        /* \"#utility.yul\":9544:9545   */\n      dup3\n        /* \"#utility.yul\":9526:9546   */\n      tag_111\n      jump\t// in\n    tag_255:\n        /* \"#utility.yul\":9521:9546   */\n      swap2\n      pop\n        /* \"#utility.yul\":9560:9580   */\n      tag_256\n        /* \"#utility.yul\":9578:9579   */\n      dup4\n        /* \"#utility.yul\":9560:9580   */\n      tag_111\n      jump\t// in\n    tag_256:\n        /* \"#utility.yul\":9555:9580   */\n      swap3\n      pop\n        /* \"#utility.yul\":9604:9605   */\n      dup3\n        /* \"#utility.yul\":9601:9602   */\n      dup3\n        /* \"#utility.yul\":9597:9606   */\n      sub\n        /* \"#utility.yul\":9589:9606   */\n      swap1\n      pop\n        /* \"#utility.yul\":9628:9629   */\n      dup2\n        /* \"#utility.yul\":9622:9626   */\n      dup2\n        /* \"#utility.yul\":9619:9630   */\n      gt\n        /* \"#utility.yul\":9616:9653   */\n      iszero\n      tag_257\n      jumpi\n        /* \"#utility.yul\":9633:9651   */\n      tag_258\n      tag_135\n      jump\t// in\n    tag_258:\n        /* \"#utility.yul\":9616:9653   */\n    tag_257:\n        /* \"#utility.yul\":9466:9660   */\n      swap3\n      swap2\n      pop\n      pop\n      jump\t// out\n        /* \"#utility.yul\":9666:9857   */\n    tag_64:\n        /* \"#utility.yul\":9706:9709   */\n      0x00\n        /* \"#utility.yul\":9725:9745   */\n      tag_260\n        /* \"#utility.yul\":9743:9744   */\n      dup3\n        /* \"#utility.yul\":9725:9745   */\n      tag_111\n      jump\t// in\n    tag_260:\n        /* \"#utility.yul\":9720:9745   */\n      swap2\n      pop\n        /* \"#utility.yul\":9759:9779   */\n      tag_261\n        /* \"#utility.yul\":9777:9778   */\n      dup4\n        /* \"#utility.yul\":9759:9779   */\n      tag_111\n      jump\t// in\n    tag_261:\n        /* \"#utility.yul\":9754:9779   */\n      swap3\n      pop\n        /* \"#utility.yul\":9802:9803   */\n      dup3\n        /* \"#utility.yul\":9799:9800   */\n      dup3\n        /* \"#utility.yul\":9795:9804   */\n      add\n        /* \"#utility.yul\":9788:9804   */\n      swap1\n      pop\n        /* \"#utility.yul\":9823:9826   */\n      dup1\n        /* \"#utility.yul\":9820:9821   */\n      dup3\n        /* \"#utility.yul\":9817:9827   */\n      gt\n        /* \"#utility.yul\":9814:9850   */\n      iszero\n      tag_262\n      jumpi\n        /* \"#utility.yul\":9830:9848   */\n      tag_263\n      tag_135\n      jump\t// in\n    tag_263:\n        /* \"#utility.yul\":9814:9850   */\n    tag_262:\n        /* \"#utility.yul\":9666:9857   */\n      swap3\n      swap2\n      pop\n      pop\n      jump\t// out\n        /* \"#utility.yul\":9863:9940   */\n    tag_136:\n        /* \"#utility.yul\":9900:9907   */\n      0x00\n        /* \"#utility.yul\":9929:9934   */\n      dup2\n        /* \"#utility.yul\":9918:9934   */\n      swap1\n      pop\n        /* \"#utility.yul\":9863:9940   */\n      swap2\n      swap1\n      pop\n      jump\t// out\n        /* \"#utility.yul\":9946:10025   */\n    tag_137:\n        /* \"#utility.yul\":9985:9992   */\n      0x00\n        /* \"#utility.yul\":10014:10019   */\n      dup2\n        /* \"#utility.yul\":10003:10019   */\n      swap1\n      pop\n        /* \"#utility.yul\":9946:10025   */\n      swap2\n      swap1\n      pop\n      jump\t// out\n        /* \"#utility.yul\":10031:10188   */\n    tag_138:\n        /* \"#utility.yul\":10136:10181   */\n      tag_267\n        /* \"#utility.yul\":10156:10180   */\n      tag_268\n        /* \"#utility.yul\":10174:10179   */\n      dup3\n        /* \"#utility.yul\":10156:10180   */\n      tag_136\n      jump\t// in\n    tag_268:\n        /* \"#utility.yul\":10136:10181   */\n      tag_137\n      jump\t// in\n    tag_267:\n        /* \"#utility.yul\":10131:10134   */\n      dup3\n        /* \"#utility.yul\":10124:10182   */\n      mstore\n        /* \"#utility.yul\":10031:10188   */\n      pop\n      pop\n      jump\t// out\n        /* \"#utility.yul\":10194:10342   */\n    tag_139:\n        /* \"#utility.yul\":10292:10298   */\n      dup3\n        /* \"#utility.yul\":10287:10290   */\n      dup2\n        /* \"#utility.yul\":10282:10285   */\n      dup4\n        /* \"#utility.yul\":10269:10299   */\n      calldatacopy\n        /* \"#utility.yul\":10333:10334   */\n      0x00\n        /* \"#utility.yul\":10324:10330   */\n      dup4\n        /* \"#utility.yul\":10319:10322   */\n      dup4\n        /* \"#utility.yul\":10315:10331   */\n      add\n        /* \"#utility.yul\":10308:10335   */\n      mstore\n        /* \"#utility.yul\":10194:10342   */\n      pop\n      pop\n      pop\n      jump\t// out\n        /* \"#utility.yul\":10370:10697   */\n    tag_140:\n        /* \"#utility.yul\":10484:10487   */\n      0x00\n        /* \"#utility.yul\":10505:10593   */\n      tag_271\n        /* \"#utility.yul\":10586:10592   */\n      dup4\n        /* \"#utility.yul\":10581:10584   */\n      dup6\n        /* \"#utility.yul\":10505:10593   */\n      tag_129\n      jump\t// in\n    tag_271:\n        /* \"#utility.yul\":10498:10593   */\n      swap4\n      pop\n        /* \"#utility.yul\":10603:10659   */\n      tag_272\n        /* \"#utility.yul\":10652:10658   */\n      dup4\n        /* \"#utility.yul\":10647:10650   */\n      dup6\n        /* \"#utility.yul\":10640:10645   */\n      dup5\n        /* \"#utility.yul\":10603:10659   */\n      tag_139\n      jump\t// in\n    tag_272:\n        /* \"#utility.yul\":10684:10690   */\n      dup3\n        /* \"#utility.yul\":10679:10682   */\n      dup5\n        /* \"#utility.yul\":10675:10691   */\n      add\n        /* \"#utility.yul\":10668:10691   */\n      swap1\n      pop\n        /* \"#utility.yul\":10370:10697   */\n      swap4\n      swap3\n      pop\n      pop\n      pop\n      jump\t// out\n        /* \"#utility.yul\":10703:12121   */\n    tag_72:\n        /* \"#utility.yul\":11163:11166   */\n      0x00\n        /* \"#utility.yul\":11178:11253   */\n      tag_274\n        /* \"#utility.yul\":11249:11252   */\n      dup3\n        /* \"#utility.yul\":11240:11246   */\n      dup11\n        /* \"#utility.yul\":11178:11253   */\n      tag_138\n      jump\t// in\n    tag_274:\n        /* \"#utility.yul\":11278:11280   */\n      0x20\n        /* \"#utility.yul\":11273:11276   */\n      dup3\n        /* \"#utility.yul\":11269:11281   */\n      add\n        /* \"#utility.yul\":11262:11281   */\n      swap2\n      pop\n        /* \"#utility.yul\":11291:11366   */\n      tag_275\n        /* \"#utility.yul\":11362:11365   */\n      dup3\n        /* \"#utility.yul\":11353:11359   */\n      dup10\n        /* \"#utility.yul\":11291:11366   */\n      tag_138\n      jump\t// in\n    tag_275:\n        /* \"#utility.yul\":11391:11393   */\n      0x20\n        /* \"#utility.yul\":11386:11389   */\n      dup3\n        /* \"#utility.yul\":11382:11394   */\n      add\n        /* \"#utility.yul\":11375:11394   */\n      swap2\n      pop\n        /* \"#utility.yul\":11404:11479   */\n      tag_276\n        /* \"#utility.yul\":11475:11478   */\n      dup3\n        /* \"#utility.yul\":11466:11472   */\n      dup9\n        /* \"#utility.yul\":11404:11479   */\n      tag_138\n      jump\t// in\n    tag_276:\n        /* \"#utility.yul\":11504:11506   */\n      0x20\n        /* \"#utility.yul\":11499:11502   */\n      dup3\n        /* \"#utility.yul\":11495:11507   */\n      add\n        /* \"#utility.yul\":11488:11507   */\n      swap2\n      pop\n        /* \"#utility.yul\":11517:11654   */\n      tag_277\n        /* \"#utility.yul\":11650:11653   */\n      dup3\n        /* \"#utility.yul\":11517:11654   */\n      tag_127\n      jump\t// in\n    tag_277:\n        /* \"#utility.yul\":11679:11680   */\n      0x01\n        /* \"#utility.yul\":11674:11677   */\n      dup3\n        /* \"#utility.yul\":11670:11681   */\n      add\n        /* \"#utility.yul\":11663:11681   */\n      swap2\n      pop\n        /* \"#utility.yul\":11698:11801   */\n      tag_278\n        /* \"#utility.yul\":11797:11800   */\n      dup3\n        /* \"#utility.yul\":11788:11794   */\n      dup7\n        /* \"#utility.yul\":11780:11786   */\n      dup9\n        /* \"#utility.yul\":11698:11801   */\n      tag_140\n      jump\t// in\n    tag_278:\n        /* \"#utility.yul\":11691:11801   */\n      swap2\n      pop\n        /* \"#utility.yul\":11811:11948   */\n      tag_279\n        /* \"#utility.yul\":11944:11947   */\n      dup3\n        /* \"#utility.yul\":11811:11948   */\n      tag_127\n      jump\t// in\n    tag_279:\n        /* \"#utility.yul\":11973:11974   */\n      0x01\n        /* \"#utility.yul\":11968:11971   */\n      dup3\n        /* \"#utility.yul\":11964:11975   */\n      add\n        /* \"#utility.yul\":11957:11975   */\n      swap2\n      pop\n        /* \"#utility.yul\":11992:12095   */\n      tag_280\n        /* \"#utility.yul\":12091:12094   */\n      dup3\n        /* \"#utility.yul\":12082:12088   */\n      dup5\n        /* \"#utility.yul\":12074:12080   */\n      dup7\n        /* \"#utility.yul\":11992:12095   */\n      tag_140\n      jump\t// in\n    tag_280:\n        /* \"#utility.yul\":11985:12095   */\n      swap2\n      pop\n        /* \"#utility.yul\":12112:12115   */\n      dup2\n        /* \"#utility.yul\":12105:12115   */\n      swap1\n      pop\n        /* \"#utility.yul\":10703:12121   */\n      swap9\n      swap8\n      pop\n      pop\n      pop\n      pop\n      pop\n      pop\n      pop\n      pop\n      jump\t// out\n        /* \"#utility.yul\":12127:12286   */\n    tag_141:\n        /* \"#utility.yul\":12246:12253   */\n      0x00\n        /* \"#utility.yul\":12275:12280   */\n      dup2\n        /* \"#utility.yul\":12264:12280   */\n      swap1\n      pop\n        /* \"#utility.yul\":12127:12286   */\n      swap2\n      swap1\n      pop\n      jump\t// out\n        /* \"#utility.yul\":12292:12384   */\n    tag_142:\n        /* \"#utility.yul\":12324:12332   */\n      0x00\n        /* \"#utility.yul\":12371:12376   */\n      dup2\n        /* \"#utility.yul\":12368:12369   */\n      0x00\n        /* \"#utility.yul\":12364:12377   */\n      shl\n        /* \"#utility.yul\":12343:12377   */\n      swap1\n      pop\n        /* \"#utility.yul\":12292:12384   */\n      swap2\n      swap1\n      pop\n      jump\t// out\n        /* \"#utility.yul\":12390:12700   */\n    tag_143:\n        /* \"#utility.yul\":12522:12531   */\n      0x00\n        /* \"#utility.yul\":12555:12694   */\n      tag_284\n        /* \"#utility.yul\":12573:12693   */\n      tag_285\n        /* \"#utility.yul\":12586:12692   */\n      tag_286\n        /* \"#utility.yul\":12686:12691   */\n      dup5\n        /* \"#utility.yul\":12586:12692   */\n      tag_141\n      jump\t// in\n    tag_286:\n        /* \"#utility.yul\":12573:12693   */\n      tag_142\n      jump\t// in\n    tag_285:\n        /* \"#utility.yul\":12555:12694   */\n      tag_136\n      jump\t// in\n    tag_284:\n        /* \"#utility.yul\":12542:12694   */\n      swap1\n      pop\n        /* \"#utility.yul\":12390:12700   */\n      swap2\n      swap1\n      pop\n      jump\t// out\n        /* \"#utility.yul\":12706:13001   */\n    tag_144:\n        /* \"#utility.yul\":12875:12994   */\n      tag_288\n        /* \"#utility.yul\":12988:12993   */\n      dup2\n        /* \"#utility.yul\":12875:12994   */\n      tag_143\n      jump\t// in\n    tag_288:\n        /* \"#utility.yul\":12870:12873   */\n      dup3\n        /* \"#utility.yul\":12863:12995   */\n      mstore\n        /* \"#utility.yul\":12706:13001   */\n      pop\n      pop\n      jump\t// out\n        /* \"#utility.yul\":13007:13175   */\n    tag_145:\n        /* \"#utility.yul\":13090:13101   */\n      0x00\n        /* \"#utility.yul\":13124:13130   */\n      dup3\n        /* \"#utility.yul\":13119:13122   */\n      dup3\n        /* \"#utility.yul\":13112:13131   */\n      mstore\n        /* \"#utility.yul\":13164:13168   */\n      0x20\n        /* \"#utility.yul\":13159:13162   */\n      dup3\n        /* \"#utility.yul\":13155:13169   */\n      add\n        /* \"#utility.yul\":13140:13169   */\n      swap1\n      pop\n        /* \"#utility.yul\":13007:13175   */\n      swap3\n      swap2\n      pop\n      pop\n      jump\t// out\n        /* \"#utility.yul\":13181:13283   */\n    tag_146:\n        /* \"#utility.yul\":13222:13228   */\n      0x00\n        /* \"#utility.yul\":13273:13275   */\n      0x1f\n        /* \"#utility.yul\":13269:13276   */\n      not\n        /* \"#utility.yul\":13264:13266   */\n      0x1f\n        /* \"#utility.yul\":13257:13262   */\n      dup4\n        /* \"#utility.yul\":13253:13267   */\n      add\n        /* \"#utility.yul\":13249:13277   */\n      and\n        /* \"#utility.yul\":13239:13277   */\n      swap1\n      pop\n        /* \"#utility.yul\":13181:13283   */\n      swap2\n      swap1\n      pop\n      jump\t// out\n        /* \"#utility.yul\":13289:13662   */\n    tag_147:\n        /* \"#utility.yul\":13375:13378   */\n      0x00\n        /* \"#utility.yul\":13403:13441   */\n      tag_292\n        /* \"#utility.yul\":13435:13440   */\n      dup3\n        /* \"#utility.yul\":13403:13441   */\n      tag_128\n      jump\t// in\n    tag_292:\n        /* \"#utility.yul\":13457:13527   */\n      tag_293\n        /* \"#utility.yul\":13520:13526   */\n      dup2\n        /* \"#utility.yul\":13515:13518   */\n      dup6\n        /* \"#utility.yul\":13457:13527   */\n      tag_145\n      jump\t// in\n    tag_293:\n        /* \"#utility.yul\":13450:13527   */\n      swap4\n      pop\n        /* \"#utility.yul\":13536:13601   */\n      tag_294\n        /* \"#utility.yul\":13594:13600   */\n      dup2\n        /* \"#utility.yul\":13589:13592   */\n      dup6\n        /* \"#utility.yul\":13582:13586   */\n      0x20\n        /* \"#utility.yul\":13575:13580   */\n      dup7\n        /* \"#utility.yul\":13571:13587   */\n      add\n        /* \"#utility.yul\":13536:13601   */\n      tag_130\n      jump\t// in\n    tag_294:\n        /* \"#utility.yul\":13626:13655   */\n      tag_295\n        /* \"#utility.yul\":13648:13654   */\n      dup2\n        /* \"#utility.yul\":13626:13655   */\n      tag_146\n      jump\t// in\n    tag_295:\n        /* \"#utility.yul\":13621:13624   */\n      dup5\n        /* \"#utility.yul\":13617:13656   */\n      add\n        /* \"#utility.yul\":13610:13656   */\n      swap2\n      pop\n        /* \"#utility.yul\":13379:13662   */\n      pop\n        /* \"#utility.yul\":13289:13662   */\n      swap3\n      swap2\n      pop\n      pop\n      jump\t// out\n        /* \"#utility.yul\":13690:14004   */\n    tag_148:\n        /* \"#utility.yul\":13786:13789   */\n      0x00\n        /* \"#utility.yul\":13807:13877   */\n      tag_297\n        /* \"#utility.yul\":13870:13876   */\n      dup4\n        /* \"#utility.yul\":13865:13868   */\n      dup6\n        /* \"#utility.yul\":13807:13877   */\n      tag_145\n      jump\t// in\n    tag_297:\n        /* \"#utility.yul\":13800:13877   */\n      swap4\n      pop\n        /* \"#utility.yul\":13887:13943   */\n      tag_298\n        /* \"#utility.yul\":13936:13942   */\n      dup4\n        /* \"#utility.yul\":13931:13934   */\n      dup6\n        /* \"#utility.yul\":13924:13929   */\n      dup5\n        /* \"#utility.yul\":13887:13943   */\n      tag_139\n      jump\t// in\n    tag_298:\n        /* \"#utility.yul\":13968:13997   */\n      tag_299\n        /* \"#utility.yul\":13990:13996   */\n      dup4\n        /* \"#utility.yul\":13968:13997   */\n      tag_146\n      jump\t// in\n    tag_299:\n        /* \"#utility.yul\":13963:13966   */\n      dup5\n        /* \"#utility.yul\":13959:13998   */\n      add\n        /* \"#utility.yul\":13952:13998   */\n      swap1\n      pop\n        /* \"#utility.yul\":13690:14004   */\n      swap4\n      swap3\n      pop\n      pop\n      pop\n      jump\t// out\n        /* \"#utility.yul\":14010:14810   */\n    tag_74:\n        /* \"#utility.yul\":14287:14291   */\n      0x00\n        /* \"#utility.yul\":14325:14327   */\n      0x60\n        /* \"#utility.yul\":14314:14323   */\n      dup3\n        /* \"#utility.yul\":14310:14328   */\n      add\n        /* \"#utility.yul\":14302:14328   */\n      swap1\n      pop\n        /* \"#utility.yul\":14338:14491   */\n      tag_301\n        /* \"#utility.yul\":14488:14489   */\n      0x00\n        /* \"#utility.yul\":14477:14486   */\n      dup4\n        /* \"#utility.yul\":14473:14490   */\n      add\n        /* \"#utility.yul\":14464:14470   */\n      dup8\n        /* \"#utility.yul\":14338:14491   */\n      tag_144\n      jump\t// in\n    tag_301:\n        /* \"#utility.yul\":14538:14547   */\n      dup2\n        /* \"#utility.yul\":14532:14536   */\n      dup2\n        /* \"#utility.yul\":14528:14548   */\n      sub\n        /* \"#utility.yul\":14523:14525   */\n      0x20\n        /* \"#utility.yul\":14512:14521   */\n      dup4\n        /* \"#utility.yul\":14508:14526   */\n      add\n        /* \"#utility.yul\":14501:14549   */\n      mstore\n        /* \"#utility.yul\":14566:14642   */\n      tag_302\n        /* \"#utility.yul\":14637:14641   */\n      dup2\n        /* \"#utility.yul\":14628:14634   */\n      dup7\n        /* \"#utility.yul\":14566:14642   */\n      tag_147\n      jump\t// in\n    tag_302:\n        /* \"#utility.yul\":14558:14642   */\n      swap1\n      pop\n        /* \"#utility.yul\":14689:14698   */\n      dup2\n        /* \"#utility.yul\":14683:14687   */\n      dup2\n        /* \"#utility.yul\":14679:14699   */\n      sub\n        /* \"#utility.yul\":14674:14676   */\n      0x40\n        /* \"#utility.yul\":14663:14672   */\n      dup4\n        /* \"#utility.yul\":14659:14677   */\n      add\n        /* \"#utility.yul\":14652:14700   */\n      mstore\n        /* \"#utility.yul\":14717:14803   */\n      tag_303\n        /* \"#utility.yul\":14798:14802   */\n      dup2\n        /* \"#utility.yul\":14789:14795   */\n      dup5\n        /* \"#utility.yul\":14781:14787   */\n      dup7\n        /* \"#utility.yul\":14717:14803   */\n      tag_148\n      jump\t// in\n    tag_303:\n        /* \"#utility.yul\":14709:14803   */\n      swap1\n      pop\n        /* \"#utility.yul\":14010:14810   */\n      swap6\n      swap5\n      pop\n      pop\n      pop\n      pop\n      pop\n      jump\t// out\n        /* \"#utility.yul\":14816:15049   */\n    tag_79:\n        /* \"#utility.yul\":14855:14858   */\n      0x00\n        /* \"#utility.yul\":14878:14902   */\n      tag_305\n        /* \"#utility.yul\":14896:14901   */\n      dup3\n        /* \"#utility.yul\":14878:14902   */\n      tag_111\n      jump\t// in\n    tag_305:\n        /* \"#utility.yul\":14869:14902   */\n      swap2\n      pop\n        /* \"#utility.yul\":14924:14990   */\n      0xffffffffffffffffffffffffffffffffffffffffffffffffffffffffffffffff\n        /* \"#utility.yul\":14917:14922   */\n      dup3\n        /* \"#utility.yul\":14914:14991   */\n      sub\n        /* \"#utility.yul\":14911:15014   */\n      tag_306\n      jumpi\n        /* \"#utility.yul\":14994:15012   */\n      tag_307\n      tag_135\n      jump\t// in\n    tag_307:\n        /* \"#utility.yul\":14911:15014   */\n    tag_306:\n        /* \"#utility.yul\":15041:15042   */\n      0x01\n        /* \"#utility.yul\":15034:15039   */\n      dup3\n        /* \"#utility.yul\":15030:15043   */\n      add\n        /* \"#utility.yul\":15023:15043   */\n      swap1\n      pop\n        /* \"#utility.yul\":14816:15049   */\n      swap2\n      swap1\n      pop\n      jump\t// out\n        /* \"#utility.yul\":15055:15818   */\n    tag_81:\n        /* \"#utility.yul\":15288:15292   */\n      0x00\n        /* \"#utility.yul\":15326:15328   */\n      0x60\n        /* \"#utility.yul\":15315:15324   */\n      dup3\n        /* \"#utility.yul\":15311:15329   */\n      add\n        /* \"#utility.yul\":15303:15329   */\n      swap1\n      pop\n        /* \"#utility.yul\":15375:15384   */\n      dup2\n        /* \"#utility.yul\":15369:15373   */\n      dup2\n        /* \"#utility.yul\":15365:15385   */\n      sub\n        /* \"#utility.yul\":15361:15362   */\n      0x00\n        /* \"#utility.yul\":15350:15359   */\n      dup4\n        /* \"#utility.yul\":15346:15363   */\n      add\n        /* \"#utility.yul\":15339:15386   */\n      mstore\n        /* \"#utility.yul\":15403:15489   */\n      tag_309\n        /* \"#utility.yul\":15484:15488   */\n      dup2\n        /* \"#utility.yul\":15475:15481   */\n      dup9\n        /* \"#utility.yul\":15467:15473   */\n      dup11\n        /* \"#utility.yul\":15403:15489   */\n      tag_148\n      jump\t// in\n    tag_309:\n        /* \"#utility.yul\":15395:15489   */\n      swap1\n      pop\n        /* \"#utility.yul\":15536:15545   */\n      dup2\n        /* \"#utility.yul\":15530:15534   */\n      dup2\n        /* \"#utility.yul\":15526:15546   */\n      sub\n        /* \"#utility.yul\":15521:15523   */\n      0x20\n        /* \"#utility.yul\":15510:15519   */\n      dup4\n        /* \"#utility.yul\":15506:15524   */\n      add\n        /* \"#utility.yul\":15499:15547   */\n      mstore\n        /* \"#utility.yul\":15564:15650   */\n      tag_310\n        /* \"#utility.yul\":15645:15649   */\n      dup2\n        /* \"#utility.yul\":15636:15642   */\n      dup7\n        /* \"#utility.yul\":15628:15634   */\n      dup9\n        /* \"#utility.yul\":15564:15650   */\n      tag_148\n      jump\t// in\n    tag_310:\n        /* \"#utility.yul\":15556:15650   */\n      swap1\n      pop\n        /* \"#utility.yul\":15697:15706   */\n      dup2\n        /* \"#utility.yul\":15691:15695   */\n      dup2\n        /* \"#utility.yul\":15687:15707   */\n      sub\n        /* \"#utility.yul\":15682:15684   */\n      0x40\n        /* \"#utility.yul\":15671:15680   */\n      dup4\n        /* \"#utility.yul\":15667:15685   */\n      add\n        /* \"#utility.yul\":15660:15708   */\n      mstore\n        /* \"#utility.yul\":15725:15811   */\n      tag_311\n        /* \"#utility.yul\":15806:15810   */\n      dup2\n        /* \"#utility.yul\":15797:15803   */\n      dup5\n        /* \"#utility.yul\":15789:15795   */\n      dup7\n        /* \"#utility.yul\":15725:15811   */\n      tag_148\n      jump\t// in\n    tag_311:\n        /* \"#utility.yul\":15717:15811   */\n      swap1\n      pop\n        /* \"#utility.yul\":15055:15818   */\n      swap8\n      swap7\n      pop\n      pop\n      pop\n      pop\n      pop\n      pop\n      pop\n      jump\t// out\n        /* \"#utility.yul\":15824:15902   */\n    tag_149:\n        /* \"#utility.yul\":15862:15869   */\n      0x00\n        /* \"#utility.yul\":15891:15896   */\n      dup2\n        /* \"#utility.yul\":15880:15896   */\n      swap1\n      pop\n        /* \"#utility.yul\":15824:15902   */\n      swap2\n      swap1\n      pop\n      jump\t// out\n        /* \"#utility.yul\":15908:16061   */\n    tag_150:\n        /* \"#utility.yul\":16011:16054   */\n      tag_314\n        /* \"#utility.yul\":16030:16053   */\n      tag_315\n        /* \"#utility.yul\":16047:16052   */\n      dup3\n        /* \"#utility.yul\":16030:16053   */\n      tag_114\n      jump\t// in\n    tag_315:\n        /* \"#utility.yul\":16011:16054   */\n      tag_149\n      jump\t// in\n    tag_314:\n        /* \"#utility.yul\":16006:16009   */\n      dup3\n        /* \"#utility.yul\":15999:16055   */\n      mstore\n        /* \"#utility.yul\":15908:16061   */\n      pop\n      pop\n      jump\t// out\n        /* \"#utility.yul\":16067:16209   */\n    tag_151:\n        /* \"#utility.yul\":16104:16111   */\n      0x00\n        /* \"#utility.yul\":16144:16202   */\n      0xffffffffffffffffffffffffffffffffffffffffffffffffffffffff\n        /* \"#utility.yul\":16137:16142   */\n      dup3\n        /* \"#utility.yul\":16133:16203   */\n      and\n        /* \"#utility.yul\":16122:16203   */\n      swap1\n      pop\n        /* \"#utility.yul\":16067:16209   */\n      swap2\n      swap1\n      pop\n      jump\t// out\n        /* \"#utility.yul\":16215:16309   */\n    tag_152:\n        /* \"#utility.yul\":16248:16256   */\n      0x00\n        /* \"#utility.yul\":16296:16301   */\n      dup2\n        /* \"#utility.yul\":16292:16294   */\n      0x20\n        /* \"#utility.yul\":16288:16302   */\n      shl\n        /* \"#utility.yul\":16267:16302   */\n      swap1\n      pop\n        /* \"#utility.yul\":16215:16309   */\n      swap2\n      swap1\n      pop\n      jump\t// out\n        /* \"#utility.yul\":16315:16409   */\n    tag_153:\n        /* \"#utility.yul\":16354:16361   */\n      0x00\n        /* \"#utility.yul\":16383:16403   */\n      tag_319\n        /* \"#utility.yul\":16397:16402   */\n      dup3\n        /* \"#utility.yul\":16383:16403   */\n      tag_152\n      jump\t// in\n    tag_319:\n        /* \"#utility.yul\":16372:16403   */\n      swap1\n      pop\n        /* \"#utility.yul\":16315:16409   */\n      swap2\n      swap1\n      pop\n      jump\t// out\n        /* \"#utility.yul\":16415:16572   */\n    tag_154:\n        /* \"#utility.yul\":16520:16565   */\n      tag_321\n        /* \"#utility.yul\":16540:16564   */\n      tag_322\n        /* \"#utility.yul\":16558:16563   */\n      dup3\n        /* \"#utility.yul\":16540:16564   */\n      tag_151\n      jump\t// in\n    tag_322:\n        /* \"#utility.yul\":16520:16565   */\n      tag_153\n      jump\t// in\n    tag_321:\n        /* \"#utility.yul\":16515:16518   */\n      dup3\n        /* \"#utility.yul\":16508:16566   */\n      mstore\n        /* \"#utility.yul\":16415:16572   */\n      pop\n      pop\n      jump\t// out\n        /* \"#utility.yul\":16578:16970   */\n    tag_95:\n        /* \"#utility.yul\":16716:16719   */\n      0x00\n        /* \"#utility.yul\":16731:16804   */\n      tag_324\n        /* \"#utility.yul\":16800:16803   */\n      dup3\n        /* \"#utility.yul\":16791:16797   */\n      dup6\n        /* \"#utility.yul\":16731:16804   */\n      tag_150\n      jump\t// in\n    tag_324:\n        /* \"#utility.yul\":16829:16830   */\n      0x04\n        /* \"#utility.yul\":16824:16827   */\n      dup3\n        /* \"#utility.yul\":16820:16831   */\n      add\n        /* \"#utility.yul\":16813:16831   */\n      swap2\n      pop\n        /* \"#utility.yul\":16841:16916   */\n      tag_325\n        /* \"#utility.yul\":16912:16915   */\n      dup3\n        /* \"#utility.yul\":16903:16909   */\n      dup5\n        /* \"#utility.yul\":16841:16916   */\n      tag_154\n      jump\t// in\n    tag_325:\n        /* \"#utility.yul\":16941:16943   */\n      0x1c\n        /* \"#utility.yul\":16936:16939   */\n      dup3\n        /* \"#utility.yul\":16932:16944   */\n      add\n        /* \"#utility.yul\":16925:16944   */\n      swap2\n      pop\n        /* \"#utility.yul\":16961:16964   */\n      dup2\n        /* \"#utility.yul\":16954:16964   */\n      swap1\n      pop\n        /* \"#utility.yul\":16578:16970   */\n      swap4\n      swap3\n      pop\n      pop\n      pop\n      jump\t// out\n        /* \"#utility.yul\":16976:17130   */\n    tag_155:\n        /* \"#utility.yul\":17019:17030   */\n      0x00\n        /* \"#utility.yul\":17055:17084   */\n      tag_327\n        /* \"#utility.yul\":17079:17082   */\n      dup3\n        /* \"#utility.yul\":17073:17083   */\n      mload\n        /* \"#utility.yul\":17055:17084   */\n      tag_136\n      jump\t// in\n    tag_327:\n        /* \"#utility.yul\":17118:17123   */\n      dup1\n        /* \"#utility.yul\":17094:17123   */\n      swap2\n      pop\n        /* \"#utility.yul\":17031:17130   */\n      pop\n        /* \"#utility.yul\":16976:17130   */\n      swap2\n      swap1\n      pop\n      jump\t// out\n        /* \"#utility.yul\":17136:17730   */\n    tag_97:\n        /* \"#utility.yul\":17220:17225   */\n      0x00\n        /* \"#utility.yul\":17251:17289   */\n      tag_329\n        /* \"#utility.yul\":17283:17288   */\n      dup3\n        /* \"#utility.yul\":17251:17289   */\n      tag_128\n      jump\t// in\n    tag_329:\n        /* \"#utility.yul\":17314:17319   */\n      dup3\n        /* \"#utility.yul\":17341:17381   */\n      tag_330\n        /* \"#utility.yul\":17375:17380   */\n      dup5\n        /* \"#utility.yul\":17341:17381   */\n      tag_132\n      jump\t// in\n    tag_330:\n        /* \"#utility.yul\":17329:17381   */\n      swap1\n      pop\n        /* \"#utility.yul\":17400:17435   */\n      tag_331\n        /* \"#utility.yul\":17426:17434   */\n      dup2\n        /* \"#utility.yul\":17400:17435   */\n      tag_155\n      jump\t// in\n    tag_331:\n        /* \"#utility.yul\":17391:17435   */\n      swap3\n      pop\n        /* \"#utility.yul\":17459:17461   */\n      0x20\n        /* \"#utility.yul\":17451:17457   */\n      dup3\n        /* \"#utility.yul\":17448:17462   */\n      lt\n        /* \"#utility.yul\":17445:17723   */\n      iszero\n      tag_332\n      jumpi\n        /* \"#utility.yul\":17530:17699   */\n      tag_333\n        /* \"#utility.yul\":17615:17681   */\n      0xffffffffffffffffffffffffffffffffffffffffffffffffffffffffffffffff\n        /* \"#utility.yul\":17585:17591   */\n      dup4\n        /* \"#utility.yul\":17581:17583   */\n      0x20\n        /* \"#utility.yul\":17577:17592   */\n      sub\n        /* \"#utility.yul\":17574:17575   */\n      0x08\n        /* \"#utility.yul\":17570:17593   */\n      mul\n        /* \"#utility.yul\":17530:17699   */\n      tag_134\n      jump\t// in\n    tag_333:\n        /* \"#utility.yul\":17507:17512   */\n      dup4\n        /* \"#utility.yul\":17486:17713   */\n      and\n        /* \"#utility.yul\":17477:17713   */\n      swap3\n      pop\n        /* \"#utility.yul\":17445:17723   */\n    tag_332:\n        /* \"#utility.yul\":17226:17730   */\n      pop\n      pop\n        /* \"#utility.yul\":17136:17730   */\n      swap2\n      swap1\n      pop\n      jump\t// out\n\n    auxdata: 0xa2646970667358221220d2126d082cc967104140c18509d6c36f8e19caecba5acc947f8fab7acb8fd99764736f6c634300081e0033\n}\n",
				"bytecode": {
					"linkReferences": {},
					"object": "608060405234801561000f575f5ffd5b5061004b6040518060400160405280600181526020015f815250610040632dd7c65860e01b5f6100db60201b60201c565b61010f60201b60201c565b506100876040518060400160405280600181526020015f81525061007c63ce03fdab60e01b5f6100db60201b60201c565b61010f60201b60201c565b505f5f3373ffffffffffffffffffffffffffffffffffffffff167f3fcf41a2be2012a96cae109f207d554df9e27d6dcc28fe2c5f8ca38fe35821b66040516100ce906101cc565b60405180910390a4610389565b5f82826040516020016100ef9291906102b6565b60405160208183030381529060405261010790610323565b905092915050565b5f82516f67363d3d37363d34f03d5260086018f35f52826010805ff58061013d5763301164255f526004601cfd5b8060145261d6945f5260016034536017601e2092508160401b6bfe61000180600a3d393df3000161fffe83118601525f38600b8401601588015f855af1833b0261018e5763301164255f526004601cfd5b818552505092915050565b5f82825260208201905092915050565b50565b5f6101b75f83610199565b91506101c2826101a9565b5f82019050919050565b5f6060820190508181035f8301526101e3816101ac565b905081810360208301526101f6816101ac565b90508181036040830152610209816101ac565b9050919050565b5f7fffffffff0000000000000000000000000000000000000000000000000000000082169050919050565b5f819050919050565b61025561025082610210565b61023b565b82525050565b5f7bffffffffffffffffffffffffffffffffffffffffffffffffffffffff82169050919050565b5f8160201b9050919050565b5f61029882610282565b9050919050565b6102b06102ab8261025b565b61028e565b82525050565b5f6102c18285610244565b6004820191506102d1828461029f565b601c820191508190509392505050565b5f81519050919050565b5f819050602082019050919050565b5f819050919050565b5f61030e82516102fa565b80915050919050565b5f82821b905092915050565b5f61032d826102e1565b82610337846102eb565b905061034281610303565b925060208210156103825761037d7fffffffffffffffffffffffffffffffffffffffffffffffffffffffffffffffff83602003600802610317565b831692505b5050919050565b610fa1806103965f395ff3fe608060405234801561000f575f5ffd5b506004361061007b575f3560e01c80632dd7c658116100595780632dd7c658146100fd57806370b1073b1461012d5780637e033b8814610149578063ce03fdab146101795761007b565b806309a73d271461007f578063219ee89c146100af57806329c50ca7146100cd575b5f5ffd5b6100996004803603810190610094919061073d565b6101a9565b6040516100a691906107ba565b60405180910390f35b6100b76101c4565b6040516100c491906107e2565b60405180910390f35b6100e760048036038101906100e291906107fb565b6101c9565b6040516100f49190610885565b60405180910390f35b6101176004803603810190610112919061089e565b610262565b6040516101249190610885565b60405180910390f35b6101476004803603810190610142919061092a565b61027d565b005b610163600480360381019061015e919061089e565b6104cf565b60405161017091906107ba565b60405180910390f35b610193600480360381019061018e919061089e565b6104fe565b6040516101a09190610885565b60405180910390f35b5f6101bc6101b78385610519565b61054d565b905092915050565b5f5481565b5f5f6101d585856101a9565b90505f830361021a576101ea815f600561055f565b6040516020016101fa9190610a46565b60405160208183030381529060405261021290610a9a565b91505061025b565b5f600160068561022a9190610b2d565b6102349190610b6e565b905061024d82826006846102489190610ba1565b61055f565b61025690610a9a565b925050505b9392505050565b5f6102765f54632dd7c65860e01b846101c9565b9050919050565b73397a5f7f3dbd538f23de225b51f532c34448da9b73ffffffffffffffffffffffffffffffffffffffff166341493c607e5120317542200324c9509e78315ad70799268f02d21504709c8973d249320389406102e15f54632dd7c65860e01b6101a9565b73ffffffffffffffffffffffffffffffffffffffff163f61030a5f5463ce03fdab60e01b6101a9565b73ffffffffffffffffffffffffffffffffffffffff163f8b8b8b8b60405160200161033b9796959493929190610c2f565b60405160208183030381529060405285856040518563ffffffff1660e01b815260040161036b9493929190610d6f565b5f6040518083038186803b158015610381575f5ffd5b505afa158015610393573d5f5f3e3d5ffd5b505050505f5f8154809291906103a890610db4565b9190505550865f543373ffffffffffffffffffffffffffffffffffffffff167f3fcf41a2be2012a96cae109f207d554df9e27d6dcc28fe2c5f8ca38fe35821b689898989898960405161040096959493929190610dfb565b60405180910390a461046686868080601f0160208091040260200160405190810160405280939291908181526020018383808284375f81840152601f19601f82011690508083019250505050505050610461632dd7c65860e01b5f54610519565b6105cb565b506104c584848080601f0160208091040260200160405190810160405280939291908181526020018383808284375f81840152601f19601f820116905080830192505050505050506104c063ce03fdab60e01b5f54610519565b6105cb565b5050505050505050565b5f6104f75f545f84146104e95763ce03fdab60e01b6104f2565b632dd7c65860e01b5b6101a9565b9050919050565b5f6105125f5463ce03fdab60e01b846101c9565b9050919050565b5f828260405160200161052d929190610ec6565b60405160208183030381529060405261054590610f05565b905092915050565b5f6105588230610655565b9050919050565b6060604051905061ffff82106105755761ffff91505b818310838303026001810184601f8401873c8082015160ff166105af576001853b038060281c3d3d3e808403818511028203858211029150505b8082525f81602084010152806040830101604052509392505050565b5f82516f67363d3d37363d34f03d5260086018f35f52826010805ff5806105f95763301164255f526004601cfd5b8060145261d6945f5260016034536017601e2092508160401b6bfe61000180600a3d393df3000161fffe83118601525f38600b8401601588015f855af1833b0261064a5763301164255f526004601cfd5b818552505092915050565b5f604051825f5260ff600b53836020527f21c35dbe1b344a2488cf3321d6ce542f8e9f305544ff09e4993a62319a497c1f6040526055600b206014528060405261d6945f5260016034536017601e2091505092915050565b5f5ffd5b5f5ffd5b5f819050919050565b6106c7816106b5565b81146106d1575f5ffd5b50565b5f813590506106e2816106be565b92915050565b5f7fffffffff0000000000000000000000000000000000000000000000000000000082169050919050565b61071c816106e8565b8114610726575f5ffd5b50565b5f8135905061073781610713565b92915050565b5f5f60408385031215610753576107526106ad565b5b5f610760858286016106d4565b925050602061077185828601610729565b9150509250929050565b5f73ffffffffffffffffffffffffffffffffffffffff82169050919050565b5f6107a48261077b565b9050919050565b6107b48161079a565b82525050565b5f6020820190506107cd5f8301846107ab565b92915050565b6107dc816106b5565b82525050565b5f6020820190506107f55f8301846107d3565b92915050565b5f5f5f60608486031215610812576108116106ad565b5b5f61081f868287016106d4565b935050602061083086828701610729565b9250506040610841868287016106d4565b9150509250925092565b5f7fffffffffffff000000000000000000000000000000000000000000000000000082169050919050565b61087f8161084b565b82525050565b5f6020820190506108985f830184610876565b92915050565b5f602082840312156108b3576108b26106ad565b5b5f6108c0848285016106d4565b91505092915050565b5f5ffd5b5f5ffd5b5f5ffd5b5f5f83601f8401126108ea576108e96108c9565b5b8235905067ffffffffffffffff811115610907576109066108cd565b5b602083019150836001820283011115610923576109226108d1565b5b9250929050565b5f5f5f5f5f5f5f6080888a031215610945576109446106ad565b5b5f6109528a828b016106d4565b975050602088013567ffffffffffffffff811115610973576109726106b1565b5b61097f8a828b016108d5565b9650965050604088013567ffffffffffffffff8111156109a2576109a16106b1565b5b6109ae8a828b016108d5565b9450945050606088013567ffffffffffffffff8111156109d1576109d06106b1565b5b6109dd8a828b016108d5565b925092505092959891949750929550565b5f815250565b5f81519050919050565b5f81905092915050565b8281835e5f83830152505050565b5f610a20826109f4565b610a2a81856109fe565b9350610a3a818560208601610a08565b80840191505092915050565b5f610a50826109ee565b600182019150610a608284610a16565b915081905092915050565b5f819050602082019050919050565b5f610a85825161084b565b80915050919050565b5f82821b905092915050565b5f610aa4826109f4565b82610aae84610a6b565b9050610ab981610a7a565b92506006821015610af957610af47fffffffffffff000000000000000000000000000000000000000000000000000083600603600802610a8e565b831692505b5050919050565b7f4e487b71000000000000000000000000000000000000000000000000000000005f52601160045260245ffd5b5f610b37826106b5565b9150610b42836106b5565b9250828202610b50816106b5565b91508282048414831517610b6757610b66610b00565b5b5092915050565b5f610b78826106b5565b9150610b83836106b5565b9250828203905081811115610b9b57610b9a610b00565b5b92915050565b5f610bab826106b5565b9150610bb6836106b5565b9250828201905080821115610bce57610bcd610b00565b5b92915050565b5f819050919050565b5f819050919050565b610bf7610bf282610bd4565b610bdd565b82525050565b828183375f83830152505050565b5f610c1683856109fe565b9350610c23838584610bfd565b82840190509392505050565b5f610c3a828a610be6565b602082019150610c4a8289610be6565b602082019150610c5a8288610be6565b602082019150610c69826109ee565b600182019150610c7a828688610c0b565b9150610c85826109ee565b600182019150610c96828486610c0b565b915081905098975050505050505050565b5f819050919050565b5f815f1b9050919050565b5f610cd5610cd0610ccb84610ca7565b610cb0565b610bd4565b9050919050565b610ce581610cbb565b82525050565b5f82825260208201905092915050565b5f601f19601f8301169050919050565b5f610d15826109f4565b610d1f8185610ceb565b9350610d2f818560208601610a08565b610d3881610cfb565b840191505092915050565b5f610d4e8385610ceb565b9350610d5b838584610bfd565b610d6483610cfb565b840190509392505050565b5f606082019050610d825f830187610cdc565b8181036020830152610d948186610d0b565b90508181036040830152610da9818486610d43565b905095945050505050565b5f610dbe826106b5565b91507fffffffffffffffffffffffffffffffffffffffffffffffffffffffffffffffff8203610df057610def610b00565b5b600182019050919050565b5f6060820190508181035f830152610e1481888a610d43565b90508181036020830152610e29818688610d43565b90508181036040830152610e3e818486610d43565b9050979650505050505050565b5f819050919050565b610e65610e60826106e8565b610e4b565b82525050565b5f7bffffffffffffffffffffffffffffffffffffffffffffffffffffffff82169050919050565b5f8160201b9050919050565b5f610ea882610e92565b9050919050565b610ec0610ebb82610e6b565b610e9e565b82525050565b5f610ed18285610e54565b600482019150610ee18284610eaf565b601c820191508190509392505050565b5f610efc8251610bd4565b80915050919050565b5f610f0f826109f4565b82610f1984610a6b565b9050610f2481610ef1565b92506020821015610f6457610f5f7fffffffffffffffffffffffffffffffffffffffffffffffffffffffffffffffff83602003600802610a8e565b831692505b505091905056fea2646970667358221220d2126d082cc967104140c18509d6c36f8e19caecba5acc947f8fab7acb8fd99764736f6c634300081e0033",
					"opcodes": "PUSH1 0x80 PUSH1 0x40 MSTORE CALLVALUE DUP1 ISZERO PUSH2 0xF JUMPI PUSH0 PUSH0 REVERT JUMPDEST POP PUSH2 0x4B PUSH1 0x40 MLOAD DUP1 PUSH1 0x40 ADD PUSH1 0x40 MSTORE DUP1 PUSH1 0x1 DUP2 MSTORE PUSH1 0x20 ADD PUSH0 DUP2 MSTORE POP PUSH2 0x40 PUSH4 0x2DD7C658 PUSH1 0xE0 SHL PUSH0 PUSH2 0xDB PUSH1 0x20 SHL PUSH1 0x20 SHR JUMP JUMPDEST PUSH2 0x10F PUSH1 0x20 SHL PUSH1 0x20 SHR JUMP JUMPDEST POP PUSH2 0x87 PUSH1 0x40 MLOAD DUP1 PUSH1 0x40 ADD PUSH1 0x40 MSTORE DUP1 PUSH1 0x1 DUP2 MSTORE PUSH1 0x20 ADD PUSH0 DUP2 MSTORE POP PUSH2 0x7C PUSH4 0xCE03FDAB PUSH1 0xE0 SHL PUSH0 PUSH2 0xDB PUSH1 0x20 SHL PUSH1 0x20 SHR JUMP JUMPDEST PUSH2 0x10F PUSH1 0x20 SHL PUSH1 0x20 SHR JUMP JUMPDEST POP PUSH0 PUSH0 CALLER PUSH20 0xFFFFFFFFFFFFFFFFFFFFFFFFFFFFFFFFFFFFFFFF AND PUSH32 0x3FCF41A2BE2012A96CAE109F207D554DF9E27D6DCC28FE2C5F8CA38FE35821B6 PUSH1 0x40 MLOAD PUSH2 0xCE SWAP1 PUSH2 0x1CC JUMP JUMPDEST PUSH1 0x40 MLOAD DUP1 SWAP2 SUB SWAP1 LOG4 PUSH2 0x389 JUMP JUMPDEST PUSH0 DUP3 DUP3 PUSH1 0x40 MLOAD PUSH1 0x20 ADD PUSH2 0xEF SWAP3 SWAP2 SWAP1 PUSH2 0x2B6 JUMP JUMPDEST PUSH1 0x40 MLOAD PUSH1 0x20 DUP2 DUP4 SUB SUB DUP2 MSTORE SWAP1 PUSH1 0x40 MSTORE PUSH2 0x107 SWAP1 PUSH2 0x323 JUMP JUMPDEST SWAP1 POP SWAP3 SWAP2 POP POP JUMP JUMPDEST PUSH0 DUP3 MLOAD PUSH16 0x67363D3D37363D34F03D5260086018F3 PUSH0 MSTORE DUP3 PUSH1 0x10 DUP1 PUSH0 CREATE2 DUP1 PUSH2 0x13D JUMPI PUSH4 0x30116425 PUSH0 MSTORE PUSH1 0x4 PUSH1 0x1C REVERT JUMPDEST DUP1 PUSH1 0x14 MSTORE PUSH2 0xD694 PUSH0 MSTORE PUSH1 0x1 PUSH1 0x34 MSTORE8 PUSH1 0x17 PUSH1 0x1E KECCAK256 SWAP3 POP DUP2 PUSH1 0x40 SHL PUSH12 0xFE61000180600A3D393DF300 ADD PUSH2 0xFFFE DUP4 GT DUP7 ADD MSTORE PUSH0 CODESIZE PUSH1 0xB DUP5 ADD PUSH1 0x15 DUP9 ADD PUSH0 DUP6 GAS CALL DUP4 EXTCODESIZE MUL PUSH2 0x18E JUMPI PUSH4 0x30116425 PUSH0 MSTORE PUSH1 0x4 PUSH1 0x1C REVERT JUMPDEST DUP2 DUP6 MSTORE POP POP SWAP3 SWAP2 POP POP JUMP JUMPDEST PUSH0 DUP3 DUP3 MSTORE PUSH1 0x20 DUP3 ADD SWAP1 POP SWAP3 SWAP2 POP POP JUMP JUMPDEST POP JUMP JUMPDEST PUSH0 PUSH2 0x1B7 PUSH0 DUP4 PUSH2 0x199 JUMP JUMPDEST SWAP2 POP PUSH2 0x1C2 DUP3 PUSH2 0x1A9 JUMP JUMPDEST PUSH0 DUP3 ADD SWAP1 POP SWAP2 SWAP1 POP JUMP JUMPDEST PUSH0 PUSH1 0x60 DUP3 ADD SWAP1 POP DUP2 DUP2 SUB PUSH0 DUP4 ADD MSTORE PUSH2 0x1E3 DUP2 PUSH2 0x1AC JUMP JUMPDEST SWAP1 POP DUP2 DUP2 SUB PUSH1 0x20 DUP4 ADD MSTORE PUSH2 0x1F6 DUP2 PUSH2 0x1AC JUMP JUMPDEST SWAP1 POP DUP2 DUP2 SUB PUSH1 0x40 DUP4 ADD MSTORE PUSH2 0x209 DUP2 PUSH2 0x1AC JUMP JUMPDEST SWAP1 POP SWAP2 SWAP1 POP JUMP JUMPDEST PUSH0 PUSH32 0xFFFFFFFF00000000000000000000000000000000000000000000000000000000 DUP3 AND SWAP1 POP SWAP2 SWAP1 POP JUMP JUMPDEST PUSH0 DUP2 SWAP1 POP SWAP2 SWAP1 POP JUMP JUMPDEST PUSH2 0x255 PUSH2 0x250 DUP3 PUSH2 0x210 JUMP JUMPDEST PUSH2 0x23B JUMP JUMPDEST DUP3 MSTORE POP POP JUMP JUMPDEST PUSH0 PUSH28 0xFFFFFFFFFFFFFFFFFFFFFFFFFFFFFFFFFFFFFFFFFFFFFFFFFFFFFFFF DUP3 AND SWAP1 POP SWAP2 SWAP1 POP JUMP JUMPDEST PUSH0 DUP2 PUSH1 0x20 SHL SWAP1 POP SWAP2 SWAP1 POP JUMP JUMPDEST PUSH0 PUSH2 0x298 DUP3 PUSH2 0x282 JUMP JUMPDEST SWAP1 POP SWAP2 SWAP1 POP JUMP JUMPDEST PUSH2 0x2B0 PUSH2 0x2AB DUP3 PUSH2 0x25B JUMP JUMPDEST PUSH2 0x28E JUMP JUMPDEST DUP3 MSTORE POP POP JUMP JUMPDEST PUSH0 PUSH2 0x2C1 DUP3 DUP6 PUSH2 0x244 JUMP JUMPDEST PUSH1 0x4 DUP3 ADD SWAP2 POP PUSH2 0x2D1 DUP3 DUP5 PUSH2 0x29F JUMP JUMPDEST PUSH1 0x1C DUP3 ADD SWAP2 POP DUP2 SWAP1 POP SWAP4 SWAP3 POP POP POP JUMP JUMPDEST PUSH0 DUP2 MLOAD SWAP1 POP SWAP2 SWAP1 POP JUMP JUMPDEST PUSH0 DUP2 SWAP1 POP PUSH1 0x20 DUP3 ADD SWAP1 POP SWAP2 SWAP1 POP JUMP JUMPDEST PUSH0 DUP2 SWAP1 POP SWAP2 SWAP1 POP JUMP JUMPDEST PUSH0 PUSH2 0x30E DUP3 MLOAD PUSH2 0x2FA JUMP JUMPDEST DUP1 SWAP2 POP POP SWAP2 SWAP1 POP JUMP JUMPDEST PUSH0 DUP3 DUP3 SHL SWAP1 POP SWAP3 SWAP2 POP POP JUMP JUMPDEST PUSH0 PUSH2 0x32D DUP3 PUSH2 0x2E1 JUMP JUMPDEST DUP3 PUSH2 0x337 DUP5 PUSH2 0x2EB JUMP JUMPDEST SWAP1 POP PUSH2 0x342 DUP2 PUSH2 0x303 JUMP JUMPDEST SWAP3 POP PUSH1 0x20 DUP3 LT ISZERO PUSH2 0x382 JUMPI PUSH2 0x37D PUSH32 0xFFFFFFFFFFFFFFFFFFFFFFFFFFFFFFFFFFFFFFFFFFFFFFFFFFFFFFFFFFFFFFFF DUP4 PUSH1 0x20 SUB PUSH1 0x8 MUL PUSH2 0x317 JUMP JUMPDEST DUP4 AND SWAP3 POP JUMPDEST POP POP SWAP2 SWAP1 POP JUMP JUMPDEST PUSH2 0xFA1 DUP1 PUSH2 0x396 PUSH0 CODECOPY PUSH0 RETURN INVALID PUSH1 0x80 PUSH1 0x40 MSTORE CALLVALUE DUP1 ISZERO PUSH2 0xF JUMPI PUSH0 PUSH0 REVERT JUMPDEST POP PUSH1 0x4 CALLDATASIZE LT PUSH2 0x7B JUMPI PUSH0 CALLDATALOAD PUSH1 0xE0 SHR DUP1 PUSH4 0x2DD7C658 GT PUSH2 0x59 JUMPI DUP1 PUSH4 0x2DD7C658 EQ PUSH2 0xFD JUMPI DUP1 PUSH4 0x70B1073B EQ PUSH2 0x12D JUMPI DUP1 PUSH4 0x7E033B88 EQ PUSH2 0x149 JUMPI DUP1 PUSH4 0xCE03FDAB EQ PUSH2 0x179 JUMPI PUSH2 0x7B JUMP JUMPDEST DUP1 PUSH4 0x9A73D27 EQ PUSH2 0x7F JUMPI DUP1 PUSH4 0x219EE89C EQ PUSH2 0xAF JUMPI DUP1 PUSH4 0x29C50CA7 EQ PUSH2 0xCD JUMPI JUMPDEST PUSH0 PUSH0 REVERT JUMPDEST PUSH2 0x99 PUSH1 0x4 DUP1 CALLDATASIZE SUB DUP2 ADD SWAP1 PUSH2 0x94 SWAP2 SWAP1 PUSH2 0x73D JUMP JUMPDEST PUSH2 0x1A9 JUMP JUMPDEST PUSH1 0x40 MLOAD PUSH2 0xA6 SWAP2 SWAP1 PUSH2 0x7BA JUMP JUMPDEST PUSH1 0x40 MLOAD DUP1 SWAP2 SUB SWAP1 RETURN JUMPDEST PUSH2 0xB7 PUSH2 0x1C4 JUMP JUMPDEST PUSH1 0x40 MLOAD PUSH2 0xC4 SWAP2 SWAP1 PUSH2 0x7E2 JUMP JUMPDEST PUSH1 0x40 MLOAD DUP1 SWAP2 SUB SWAP1 RETURN JUMPDEST PUSH2 0xE7 PUSH1 0x4 DUP1 CALLDATASIZE SUB DUP2 ADD SWAP1 PUSH2 0xE2 SWAP2 SWAP1 PUSH2 0x7FB JUMP JUMPDEST PUSH2 0x1C9 JUMP JUMPDEST PUSH1 0x40 MLOAD PUSH2 0xF4 SWAP2 SWAP1 PUSH2 0x885 JUMP JUMPDEST PUSH1 0x40 MLOAD DUP1 SWAP2 SUB SWAP1 RETURN JUMPDEST PUSH2 0x117 PUSH1 0x4 DUP1 CALLDATASIZE SUB DUP2 ADD SWAP1 PUSH2 0x112 SWAP2 SWAP1 PUSH2 0x89E JUMP JUMPDEST PUSH2 0x262 JUMP JUMPDEST PUSH1 0x40 MLOAD PUSH2 0x124 SWAP2 SWAP1 PUSH2 0x885 JUMP JUMPDEST PUSH1 0x40 MLOAD DUP1 SWAP2 SUB SWAP1 RETURN JUMPDEST PUSH2 0x147 PUSH1 0x4 DUP1 CALLDATASIZE SUB DUP2 ADD SWAP1 PUSH2 0x142 SWAP2 SWAP1 PUSH2 0x92A JUMP JUMPDEST PUSH2 0x27D JUMP JUMPDEST STOP JUMPDEST PUSH2 0x163 PUSH1 0x4 DUP1 CALLDATASIZE SUB DUP2 ADD SWAP1 PUSH2 0x15E SWAP2 SWAP1 PUSH2 0x89E JUMP JUMPDEST PUSH2 0x4CF JUMP JUMPDEST PUSH1 0x40 MLOAD PUSH2 0x170 SWAP2 SWAP1 PUSH2 0x7BA JUMP JUMPDEST PUSH1 0x40 MLOAD DUP1 SWAP2 SUB SWAP1 RETURN JUMPDEST PUSH2 0x193 PUSH1 0x4 DUP1 CALLDATASIZE SUB DUP2 ADD SWAP1 PUSH2 0x18E SWAP2 SWAP1 PUSH2 0x89E JUMP JUMPDEST PUSH2 0x4FE JUMP JUMPDEST PUSH1 0x40 MLOAD PUSH2 0x1A0 SWAP2 SWAP1 PUSH2 0x885 JUMP JUMPDEST PUSH1 0x40 MLOAD DUP1 SWAP2 SUB SWAP1 RETURN JUMPDEST PUSH0 PUSH2 0x1BC PUSH2 0x1B7 DUP4 DUP6 PUSH2 0x519 JUMP JUMPDEST PUSH2 0x54D JUMP JUMPDEST SWAP1 POP SWAP3 SWAP2 POP POP JUMP JUMPDEST PUSH0 SLOAD DUP2 JUMP JUMPDEST PUSH0 PUSH0 PUSH2 0x1D5 DUP6 DUP6 PUSH2 0x1A9 JUMP JUMPDEST SWAP1 POP PUSH0 DUP4 SUB PUSH2 0x21A JUMPI PUSH2 0x1EA DUP2 PUSH0 PUSH1 0x5 PUSH2 0x55F JUMP JUMPDEST PUSH1 0x40 MLOAD PUSH1 0x20 ADD PUSH2 0x1FA SWAP2 SWAP1 PUSH2 0xA46 JUMP JUMPDEST PUSH1 0x40 MLOAD PUSH1 0x20 DUP2 DUP4 SUB SUB DUP2 MSTORE SWAP1 PUSH1 0x40 MSTORE PUSH2 0x212 SWAP1 PUSH2 0xA9A JUMP JUMPDEST SWAP2 POP POP PUSH2 0x25B JUMP JUMPDEST PUSH0 PUSH1 0x1 PUSH1 0x6 DUP6 PUSH2 0x22A SWAP2 SWAP1 PUSH2 0xB2D JUMP JUMPDEST PUSH2 0x234 SWAP2 SWAP1 PUSH2 0xB6E JUMP JUMPDEST SWAP1 POP PUSH2 0x24D DUP3 DUP3 PUSH1 0x6 DUP5 PUSH2 0x248 SWAP2 SWAP1 PUSH2 0xBA1 JUMP JUMPDEST PUSH2 0x55F JUMP JUMPDEST PUSH2 0x256 SWAP1 PUSH2 0xA9A JUMP JUMPDEST SWAP3 POP POP POP JUMPDEST SWAP4 SWAP3 POP POP POP JUMP JUMPDEST PUSH0 PUSH2 0x276 PUSH0 SLOAD PUSH4 0x2DD7C658 PUSH1 0xE0 SHL DUP5 PUSH2 0x1C9 JUMP JUMPDEST SWAP1 POP SWAP2 SWAP1 POP JUMP JUMPDEST PUSH20 0x397A5F7F3DBD538F23DE225B51F532C34448DA9B PUSH20 0xFFFFFFFFFFFFFFFFFFFFFFFFFFFFFFFFFFFFFFFF AND PUSH4 0x41493C60 PUSH31 0x5120317542200324C9509E78315AD70799268F02D21504709C8973D2493203 DUP10 BLOCKHASH PUSH2 0x2E1 PUSH0 SLOAD PUSH4 0x2DD7C658 PUSH1 0xE0 SHL PUSH2 0x1A9 JUMP JUMPDEST PUSH20 0xFFFFFFFFFFFFFFFFFFFFFFFFFFFFFFFFFFFFFFFF AND EXTCODEHASH PUSH2 0x30A PUSH0 SLOAD PUSH4 0xCE03FDAB PUSH1 0xE0 SHL PUSH2 0x1A9 JUMP JUMPDEST PUSH20 0xFFFFFFFFFFFFFFFFFFFFFFFFFFFFFFFFFFFFFFFF AND EXTCODEHASH DUP12 DUP12 DUP12 DUP12 PUSH1 0x40 MLOAD PUSH1 0x20 ADD PUSH2 0x33B SWAP8 SWAP7 SWAP6 SWAP5 SWAP4 SWAP3 SWAP2 SWAP1 PUSH2 0xC2F JUMP JUMPDEST PUSH1 0x40 MLOAD PUSH1 0x20 DUP2 DUP4 SUB SUB DUP2 MSTORE SWAP1 PUSH1 0x40 MSTORE DUP6 DUP6 PUSH1 0x40 MLOAD DUP6 PUSH4 0xFFFFFFFF AND PUSH1 0xE0 SHL DUP2 MSTORE PUSH1 0x4 ADD PUSH2 0x36B SWAP5 SWAP4 SWAP3 SWAP2 SWAP1 PUSH2 0xD6F JUMP JUMPDEST PUSH0 PUSH1 0x40 MLOAD DUP1 DUP4 SUB DUP2 DUP7 DUP1 EXTCODESIZE ISZERO DUP1 ISZERO PUSH2 0x381 JUMPI PUSH0 PUSH0 REVERT JUMPDEST POP GAS STATICCALL ISZERO DUP1 ISZERO PUSH2 0x393 JUMPI RETURNDATASIZE PUSH0 PUSH0 RETURNDATACOPY RETURNDATASIZE PUSH0 REVERT JUMPDEST POP POP POP POP PUSH0 PUSH0 DUP2 SLOAD DUP1 SWAP3 SWAP2 SWAP1 PUSH2 0x3A8 SWAP1 PUSH2 0xDB4 JUMP JUMPDEST SWAP2 SWAP1 POP SSTORE POP DUP7 PUSH0 SLOAD CALLER PUSH20 0xFFFFFFFFFFFFFFFFFFFFFFFFFFFFFFFFFFFFFFFF AND PUSH32 0x3FCF41A2BE2012A96CAE109F207D554DF9E27D6DCC28FE2C5F8CA38FE35821B6 DUP10 DUP10 DUP10 DUP10 DUP10 DUP10 PUSH1 0x40 MLOAD PUSH2 0x400 SWAP7 SWAP6 SWAP5 SWAP4 SWAP3 SWAP2 SWAP1 PUSH2 0xDFB JUMP JUMPDEST PUSH1 0x40 MLOAD DUP1 SWAP2 SUB SWAP1 LOG4 PUSH2 0x466 DUP7 DUP7 DUP1 DUP1 PUSH1 0x1F ADD PUSH1 0x20 DUP1 SWAP2 DIV MUL PUSH1 0x20 ADD PUSH1 0x40 MLOAD SWAP1 DUP2 ADD PUSH1 0x40 MSTORE DUP1 SWAP4 SWAP3 SWAP2 SWAP1 DUP2 DUP2 MSTORE PUSH1 0x20 ADD DUP4 DUP4 DUP1 DUP3 DUP5 CALLDATACOPY PUSH0 DUP2 DUP5 ADD MSTORE PUSH1 0x1F NOT PUSH1 0x1F DUP3 ADD AND SWAP1 POP DUP1 DUP4 ADD SWAP3 POP POP POP POP POP POP POP PUSH2 0x461 PUSH4 0x2DD7C658 PUSH1 0xE0 SHL PUSH0 SLOAD PUSH2 0x519 JUMP JUMPDEST PUSH2 0x5CB JUMP JUMPDEST POP PUSH2 0x4C5 DUP5 DUP5 DUP1 DUP1 PUSH1 0x1F ADD PUSH1 0x20 DUP1 SWAP2 DIV MUL PUSH1 0x20 ADD PUSH1 0x40 MLOAD SWAP1 DUP2 ADD PUSH1 0x40 MSTORE DUP1 SWAP4 SWAP3 SWAP2 SWAP1 DUP2 DUP2 MSTORE PUSH1 0x20 ADD DUP4 DUP4 DUP1 DUP3 DUP5 CALLDATACOPY PUSH0 DUP2 DUP5 ADD MSTORE PUSH1 0x1F NOT PUSH1 0x1F DUP3 ADD AND SWAP1 POP DUP1 DUP4 ADD SWAP3 POP POP POP POP POP POP POP PUSH2 0x4C0 PUSH4 0xCE03FDAB PUSH1 0xE0 SHL PUSH0 SLOAD PUSH2 0x519 JUMP JUMPDEST PUSH2 0x5CB JUMP JUMPDEST POP POP POP POP POP POP POP POP JUMP JUMPDEST PUSH0 PUSH2 0x4F7 PUSH0 SLOAD PUSH0 DUP5 EQ PUSH2 0x4E9 JUMPI PUSH4 0xCE03FDAB PUSH1 0xE0 SHL PUSH2 0x4F2 JUMP JUMPDEST PUSH4 0x2DD7C658 PUSH1 0xE0 SHL JUMPDEST PUSH2 0x1A9 JUMP JUMPDEST SWAP1 POP SWAP2 SWAP1 POP JUMP JUMPDEST PUSH0 PUSH2 0x512 PUSH0 SLOAD PUSH4 0xCE03FDAB PUSH1 0xE0 SHL DUP5 PUSH2 0x1C9 JUMP JUMPDEST SWAP1 POP SWAP2 SWAP1 POP JUMP JUMPDEST PUSH0 DUP3 DUP3 PUSH1 0x40 MLOAD PUSH1 0x20 ADD PUSH2 0x52D SWAP3 SWAP2 SWAP1 PUSH2 0xEC6 JUMP JUMPDEST PUSH1 0x40 MLOAD PUSH1 0x20 DUP2 DUP4 SUB SUB DUP2 MSTORE SWAP1 PUSH1 0x40 MSTORE PUSH2 0x545 SWAP1 PUSH2 0xF05 JUMP JUMPDEST SWAP1 POP SWAP3 SWAP2 POP POP JUMP JUMPDEST PUSH0 PUSH2 0x558 DUP3 ADDRESS PUSH2 0x655 JUMP JUMPDEST SWAP1 POP SWAP2 SWAP1 POP JUMP JUMPDEST PUSH1 0x60 PUSH1 0x40 MLOAD SWAP1 POP PUSH2 0xFFFF DUP3 LT PUSH2 0x575 JUMPI PUSH2 0xFFFF SWAP2 POP JUMPDEST DUP2 DUP4 LT DUP4 DUP4 SUB MUL PUSH1 0x1 DUP2 ADD DUP5 PUSH1 0x1F DUP5 ADD DUP8 EXTCODECOPY DUP1 DUP3 ADD MLOAD PUSH1 0xFF AND PUSH2 0x5AF JUMPI PUSH1 0x1 DUP6 EXTCODESIZE SUB DUP1 PUSH1 0x28 SHR RETURNDATASIZE RETURNDATASIZE RETURNDATACOPY DUP1 DUP5 SUB DUP2 DUP6 GT MUL DUP3 SUB DUP6 DUP3 GT MUL SWAP2 POP POP JUMPDEST DUP1 DUP3 MSTORE PUSH0 DUP2 PUSH1 0x20 DUP5 ADD ADD MSTORE DUP1 PUSH1 0x40 DUP4 ADD ADD PUSH1 0x40 MSTORE POP SWAP4 SWAP3 POP POP POP JUMP JUMPDEST PUSH0 DUP3 MLOAD PUSH16 0x67363D3D37363D34F03D5260086018F3 PUSH0 MSTORE DUP3 PUSH1 0x10 DUP1 PUSH0 CREATE2 DUP1 PUSH2 0x5F9 JUMPI PUSH4 0x30116425 PUSH0 MSTORE PUSH1 0x4 PUSH1 0x1C REVERT JUMPDEST DUP1 PUSH1 0x14 MSTORE PUSH2 0xD694 PUSH0 MSTORE PUSH1 0x1 PUSH1 0x34 MSTORE8 PUSH1 0x17 PUSH1 0x1E KECCAK256 SWAP3 POP DUP2 PUSH1 0x40 SHL PUSH12 0xFE61000180600A3D393DF300 ADD PUSH2 0xFFFE DUP4 GT DUP7 ADD MSTORE PUSH0 CODESIZE PUSH1 0xB DUP5 ADD PUSH1 0x15 DUP9 ADD PUSH0 DUP6 GAS CALL DUP4 EXTCODESIZE MUL PUSH2 0x64A JUMPI PUSH4 0x30116425 PUSH0 MSTORE PUSH1 0x4 PUSH1 0x1C REVERT JUMPDEST DUP2 DUP6 MSTORE POP POP SWAP3 SWAP2 POP POP JUMP JUMPDEST PUSH0 PUSH1 0x40 MLOAD DUP3 PUSH0 MSTORE PUSH1 0xFF PUSH1 0xB MSTORE8 DUP4 PUSH1 0x20 MSTORE PUSH32 0x21C35DBE1B344A2488CF3321D6CE542F8E9F305544FF09E4993A62319A497C1F PUSH1 0x40 MSTORE PUSH1 0x55 PUSH1 0xB KECCAK256 PUSH1 0x14 MSTORE DUP1 PUSH1 0x40 MSTORE PUSH2 0xD694 PUSH0 MSTORE PUSH1 0x1 PUSH1 0x34 MSTORE8 PUSH1 0x17 PUSH1 0x1E KECCAK256 SWAP2 POP POP SWAP3 SWAP2 POP POP JUMP JUMPDEST PUSH0 PUSH0 REVERT JUMPDEST PUSH0 PUSH0 REVERT JUMPDEST PUSH0 DUP2 SWAP1 POP SWAP2 SWAP1 POP JUMP JUMPDEST PUSH2 0x6C7 DUP2 PUSH2 0x6B5 JUMP JUMPDEST DUP2 EQ PUSH2 0x6D1 JUMPI PUSH0 PUSH0 REVERT JUMPDEST POP JUMP JUMPDEST PUSH0 DUP2 CALLDATALOAD SWAP1 POP PUSH2 0x6E2 DUP2 PUSH2 0x6BE JUMP JUMPDEST SWAP3 SWAP2 POP POP JUMP JUMPDEST PUSH0 PUSH32 0xFFFFFFFF00000000000000000000000000000000000000000000000000000000 DUP3 AND SWAP1 POP SWAP2 SWAP1 POP JUMP JUMPDEST PUSH2 0x71C DUP2 PUSH2 0x6E8 JUMP JUMPDEST DUP2 EQ PUSH2 0x726 JUMPI PUSH0 PUSH0 REVERT JUMPDEST POP JUMP JUMPDEST PUSH0 DUP2 CALLDATALOAD SWAP1 POP PUSH2 0x737 DUP2 PUSH2 0x713 JUMP JUMPDEST SWAP3 SWAP2 POP POP JUMP JUMPDEST PUSH0 PUSH0 PUSH1 0x40 DUP4 DUP6 SUB SLT ISZERO PUSH2 0x753 JUMPI PUSH2 0x752 PUSH2 0x6AD JUMP JUMPDEST JUMPDEST PUSH0 PUSH2 0x760 DUP6 DUP3 DUP7 ADD PUSH2 0x6D4 JUMP JUMPDEST SWAP3 POP POP PUSH1 0x20 PUSH2 0x771 DUP6 DUP3 DUP7 ADD PUSH2 0x729 JUMP JUMPDEST SWAP2 POP POP SWAP3 POP SWAP3 SWAP1 POP JUMP JUMPDEST PUSH0 PUSH20 0xFFFFFFFFFFFFFFFFFFFFFFFFFFFFFFFFFFFFFFFF DUP3 AND SWAP1 POP SWAP2 SWAP1 POP JUMP JUMPDEST PUSH0 PUSH2 0x7A4 DUP3 PUSH2 0x77B JUMP JUMPDEST SWAP1 POP SWAP2 SWAP1 POP JUMP JUMPDEST PUSH2 0x7B4 DUP2 PUSH2 0x79A JUMP JUMPDEST DUP3 MSTORE POP POP JUMP JUMPDEST PUSH0 PUSH1 0x20 DUP3 ADD SWAP1 POP PUSH2 0x7CD PUSH0 DUP4 ADD DUP5 PUSH2 0x7AB JUMP JUMPDEST SWAP3 SWAP2 POP POP JUMP JUMPDEST PUSH2 0x7DC DUP2 PUSH2 0x6B5 JUMP JUMPDEST DUP3 MSTORE POP POP JUMP JUMPDEST PUSH0 PUSH1 0x20 DUP3 ADD SWAP1 POP PUSH2 0x7F5 PUSH0 DUP4 ADD DUP5 PUSH2 0x7D3 JUMP JUMPDEST SWAP3 SWAP2 POP POP JUMP JUMPDEST PUSH0 PUSH0 PUSH0 PUSH1 0x60 DUP5 DUP7 SUB SLT ISZERO PUSH2 0x812 JUMPI PUSH2 0x811 PUSH2 0x6AD JUMP JUMPDEST JUMPDEST PUSH0 PUSH2 0x81F DUP7 DUP3 DUP8 ADD PUSH2 0x6D4 JUMP JUMPDEST SWAP4 POP POP PUSH1 0x20 PUSH2 0x830 DUP7 DUP3 DUP8 ADD PUSH2 0x729 JUMP JUMPDEST SWAP3 POP POP PUSH1 0x40 PUSH2 0x841 DUP7 DUP3 DUP8 ADD PUSH2 0x6D4 JUMP JUMPDEST SWAP2 POP POP SWAP3 POP SWAP3 POP SWAP3 JUMP JUMPDEST PUSH0 PUSH32 0xFFFFFFFFFFFF0000000000000000000000000000000000000000000000000000 DUP3 AND SWAP1 POP SWAP2 SWAP1 POP JUMP JUMPDEST PUSH2 0x87F DUP2 PUSH2 0x84B JUMP JUMPDEST DUP3 MSTORE POP POP JUMP JUMPDEST PUSH0 PUSH1 0x20 DUP3 ADD SWAP1 POP PUSH2 0x898 PUSH0 DUP4 ADD DUP5 PUSH2 0x876 JUMP JUMPDEST SWAP3 SWAP2 POP POP JUMP JUMPDEST PUSH0 PUSH1 0x20 DUP3 DUP5 SUB SLT ISZERO PUSH2 0x8B3 JUMPI PUSH2 0x8B2 PUSH2 0x6AD JUMP JUMPDEST JUMPDEST PUSH0 PUSH2 0x8C0 DUP5 DUP3 DUP6 ADD PUSH2 0x6D4 JUMP JUMPDEST SWAP2 POP POP SWAP3 SWAP2 POP POP JUMP JUMPDEST PUSH0 PUSH0 REVERT JUMPDEST PUSH0 PUSH0 REVERT JUMPDEST PUSH0 PUSH0 REVERT JUMPDEST PUSH0 PUSH0 DUP4 PUSH1 0x1F DUP5 ADD SLT PUSH2 0x8EA JUMPI PUSH2 0x8E9 PUSH2 0x8C9 JUMP JUMPDEST JUMPDEST DUP3 CALLDATALOAD SWAP1 POP PUSH8 0xFFFFFFFFFFFFFFFF DUP2 GT ISZERO PUSH2 0x907 JUMPI PUSH2 0x906 PUSH2 0x8CD JUMP JUMPDEST JUMPDEST PUSH1 0x20 DUP4 ADD SWAP2 POP DUP4 PUSH1 0x1 DUP3 MUL DUP4 ADD GT ISZERO PUSH2 0x923 JUMPI PUSH2 0x922 PUSH2 0x8D1 JUMP JUMPDEST JUMPDEST SWAP3 POP SWAP3 SWAP1 POP JUMP JUMPDEST PUSH0 PUSH0 PUSH0 PUSH0 PUSH0 PUSH0 PUSH0 PUSH1 0x80 DUP9 DUP11 SUB SLT ISZERO PUSH2 0x945 JUMPI PUSH2 0x944 PUSH2 0x6AD JUMP JUMPDEST JUMPDEST PUSH0 PUSH2 0x952 DUP11 DUP3 DUP12 ADD PUSH2 0x6D4 JUMP JUMPDEST SWAP8 POP POP PUSH1 0x20 DUP9 ADD CALLDATALOAD PUSH8 0xFFFFFFFFFFFFFFFF DUP2 GT ISZERO PUSH2 0x973 JUMPI PUSH2 0x972 PUSH2 0x6B1 JUMP JUMPDEST JUMPDEST PUSH2 0x97F DUP11 DUP3 DUP12 ADD PUSH2 0x8D5 JUMP JUMPDEST SWAP7 POP SWAP7 POP POP PUSH1 0x40 DUP9 ADD CALLDATALOAD PUSH8 0xFFFFFFFFFFFFFFFF DUP2 GT ISZERO PUSH2 0x9A2 JUMPI PUSH2 0x9A1 PUSH2 0x6B1 JUMP JUMPDEST JUMPDEST PUSH2 0x9AE DUP11 DUP3 DUP12 ADD PUSH2 0x8D5 JUMP JUMPDEST SWAP5 POP SWAP5 POP POP PUSH1 0x60 DUP9 ADD CALLDATALOAD PUSH8 0xFFFFFFFFFFFFFFFF DUP2 GT ISZERO PUSH2 0x9D1 JUMPI PUSH2 0x9D0 PUSH2 0x6B1 JUMP JUMPDEST JUMPDEST PUSH2 0x9DD DUP11 DUP3 DUP12 ADD PUSH2 0x8D5 JUMP JUMPDEST SWAP3 POP SWAP3 POP POP SWAP3 SWAP6 SWAP9 SWAP2 SWAP5 SWAP8 POP SWAP3 SWAP6 POP JUMP JUMPDEST PUSH0 DUP2 MSTORE POP JUMP JUMPDEST PUSH0 DUP2 MLOAD SWAP1 POP SWAP2 SWAP1 POP JUMP JUMPDEST PUSH0 DUP2 SWAP1 POP SWAP3 SWAP2 POP POP JUMP JUMPDEST DUP3 DUP2 DUP4 MCOPY PUSH0 DUP4 DUP4 ADD MSTORE POP POP POP JUMP JUMPDEST PUSH0 PUSH2 0xA20 DUP3 PUSH2 0x9F4 JUMP JUMPDEST PUSH2 0xA2A DUP2 DUP6 PUSH2 0x9FE JUMP JUMPDEST SWAP4 POP PUSH2 0xA3A DUP2 DUP6 PUSH1 0x20 DUP7 ADD PUSH2 0xA08 JUMP JUMPDEST DUP1 DUP5 ADD SWAP2 POP POP SWAP3 SWAP2 POP POP JUMP JUMPDEST PUSH0 PUSH2 0xA50 DUP3 PUSH2 0x9EE JUMP JUMPDEST PUSH1 0x1 DUP3 ADD SWAP2 POP PUSH2 0xA60 DUP3 DUP5 PUSH2 0xA16 JUMP JUMPDEST SWAP2 POP DUP2 SWAP1 POP SWAP3 SWAP2 POP POP JUMP JUMPDEST PUSH0 DUP2 SWAP1 POP PUSH1 0x20 DUP3 ADD SWAP1 POP SWAP2 SWAP1 POP JUMP JUMPDEST PUSH0 PUSH2 0xA85 DUP3 MLOAD PUSH2 0x84B JUMP JUMPDEST DUP1 SWAP2 POP POP SWAP2 SWAP1 POP JUMP JUMPDEST PUSH0 DUP3 DUP3 SHL SWAP1 POP SWAP3 SWAP2 POP POP JUMP JUMPDEST PUSH0 PUSH2 0xAA4 DUP3 PUSH2 0x9F4 JUMP JUMPDEST DUP3 PUSH2 0xAAE DUP5 PUSH2 0xA6B JUMP JUMPDEST SWAP1 POP PUSH2 0xAB9 DUP2 PUSH2 0xA7A JUMP JUMPDEST SWAP3 POP PUSH1 0x6 DUP3 LT ISZERO PUSH2 0xAF9 JUMPI PUSH2 0xAF4 PUSH32 0xFFFFFFFFFFFF0000000000000000000000000000000000000000000000000000 DUP4 PUSH1 0x6 SUB PUSH1 0x8 MUL PUSH2 0xA8E JUMP JUMPDEST DUP4 AND SWAP3 POP JUMPDEST POP POP SWAP2 SWAP1 POP JUMP JUMPDEST PUSH32 0x4E487B7100000000000000000000000000000000000000000000000000000000 PUSH0 MSTORE PUSH1 0x11 PUSH1 0x4 MSTORE PUSH1 0x24 PUSH0 REVERT JUMPDEST PUSH0 PUSH2 0xB37 DUP3 PUSH2 0x6B5 JUMP JUMPDEST SWAP2 POP PUSH2 0xB42 DUP4 PUSH2 0x6B5 JUMP JUMPDEST SWAP3 POP DUP3 DUP3 MUL PUSH2 0xB50 DUP2 PUSH2 0x6B5 JUMP JUMPDEST SWAP2 POP DUP3 DUP3 DIV DUP5 EQ DUP4 ISZERO OR PUSH2 0xB67 JUMPI PUSH2 0xB66 PUSH2 0xB00 JUMP JUMPDEST JUMPDEST POP SWAP3 SWAP2 POP POP JUMP JUMPDEST PUSH0 PUSH2 0xB78 DUP3 PUSH2 0x6B5 JUMP JUMPDEST SWAP2 POP PUSH2 0xB83 DUP4 PUSH2 0x6B5 JUMP JUMPDEST SWAP3 POP DUP3 DUP3 SUB SWAP1 POP DUP2 DUP2 GT ISZERO PUSH2 0xB9B JUMPI PUSH2 0xB9A PUSH2 0xB00 JUMP JUMPDEST JUMPDEST SWAP3 SWAP2 POP POP JUMP JUMPDEST PUSH0 PUSH2 0xBAB DUP3 PUSH2 0x6B5 JUMP JUMPDEST SWAP2 POP PUSH2 0xBB6 DUP4 PUSH2 0x6B5 JUMP JUMPDEST SWAP3 POP DUP3 DUP3 ADD SWAP1 POP DUP1 DUP3 GT ISZERO PUSH2 0xBCE JUMPI PUSH2 0xBCD PUSH2 0xB00 JUMP JUMPDEST JUMPDEST SWAP3 SWAP2 POP POP JUMP JUMPDEST PUSH0 DUP2 SWAP1 POP SWAP2 SWAP1 POP JUMP JUMPDEST PUSH0 DUP2 SWAP1 POP SWAP2 SWAP1 POP JUMP JUMPDEST PUSH2 0xBF7 PUSH2 0xBF2 DUP3 PUSH2 0xBD4 JUMP JUMPDEST PUSH2 0xBDD JUMP JUMPDEST DUP3 MSTORE POP POP JUMP JUMPDEST DUP3 DUP2 DUP4 CALLDATACOPY PUSH0 DUP4 DUP4 ADD MSTORE POP POP POP JUMP JUMPDEST PUSH0 PUSH2 0xC16 DUP4 DUP6 PUSH2 0x9FE JUMP JUMPDEST SWAP4 POP PUSH2 0xC23 DUP4 DUP6 DUP5 PUSH2 0xBFD JUMP JUMPDEST DUP3 DUP5 ADD SWAP1 POP SWAP4 SWAP3 POP POP POP JUMP JUMPDEST PUSH0 PUSH2 0xC3A DUP3 DUP11 PUSH2 0xBE6 JUMP JUMPDEST PUSH1 0x20 DUP3 ADD SWAP2 POP PUSH2 0xC4A DUP3 DUP10 PUSH2 0xBE6 JUMP JUMPDEST PUSH1 0x20 DUP3 ADD SWAP2 POP PUSH2 0xC5A DUP3 DUP9 PUSH2 0xBE6 JUMP JUMPDEST PUSH1 0x20 DUP3 ADD SWAP2 POP PUSH2 0xC69 DUP3 PUSH2 0x9EE JUMP JUMPDEST PUSH1 0x1 DUP3 ADD SWAP2 POP PUSH2 0xC7A DUP3 DUP7 DUP9 PUSH2 0xC0B JUMP JUMPDEST SWAP2 POP PUSH2 0xC85 DUP3 PUSH2 0x9EE JUMP JUMPDEST PUSH1 0x1 DUP3 ADD SWAP2 POP PUSH2 0xC96 DUP3 DUP5 DUP7 PUSH2 0xC0B JUMP JUMPDEST SWAP2 POP DUP2 SWAP1 POP SWAP9 SWAP8 POP POP POP POP POP POP POP POP JUMP JUMPDEST PUSH0 DUP2 SWAP1 POP SWAP2 SWAP1 POP JUMP JUMPDEST PUSH0 DUP2 PUSH0 SHL SWAP1 POP SWAP2 SWAP1 POP JUMP JUMPDEST PUSH0 PUSH2 0xCD5 PUSH2 0xCD0 PUSH2 0xCCB DUP5 PUSH2 0xCA7 JUMP JUMPDEST PUSH2 0xCB0 JUMP JUMPDEST PUSH2 0xBD4 JUMP JUMPDEST SWAP1 POP SWAP2 SWAP1 POP JUMP JUMPDEST PUSH2 0xCE5 DUP2 PUSH2 0xCBB JUMP JUMPDEST DUP3 MSTORE POP POP JUMP JUMPDEST PUSH0 DUP3 DUP3 MSTORE PUSH1 0x20 DUP3 ADD SWAP1 POP SWAP3 SWAP2 POP POP JUMP JUMPDEST PUSH0 PUSH1 0x1F NOT PUSH1 0x1F DUP4 ADD AND SWAP1 POP SWAP2 SWAP1 POP JUMP JUMPDEST PUSH0 PUSH2 0xD15 DUP3 PUSH2 0x9F4 JUMP JUMPDEST PUSH2 0xD1F DUP2 DUP6 PUSH2 0xCEB JUMP JUMPDEST SWAP4 POP PUSH2 0xD2F DUP2 DUP6 PUSH1 0x20 DUP7 ADD PUSH2 0xA08 JUMP JUMPDEST PUSH2 0xD38 DUP2 PUSH2 0xCFB JUMP JUMPDEST DUP5 ADD SWAP2 POP POP SWAP3 SWAP2 POP POP JUMP JUMPDEST PUSH0 PUSH2 0xD4E DUP4 DUP6 PUSH2 0xCEB JUMP JUMPDEST SWAP4 POP PUSH2 0xD5B DUP4 DUP6 DUP5 PUSH2 0xBFD JUMP JUMPDEST PUSH2 0xD64 DUP4 PUSH2 0xCFB JUMP JUMPDEST DUP5 ADD SWAP1 POP SWAP4 SWAP3 POP POP POP JUMP JUMPDEST PUSH0 PUSH1 0x60 DUP3 ADD SWAP1 POP PUSH2 0xD82 PUSH0 DUP4 ADD DUP8 PUSH2 0xCDC JUMP JUMPDEST DUP2 DUP2 SUB PUSH1 0x20 DUP4 ADD MSTORE PUSH2 0xD94 DUP2 DUP7 PUSH2 0xD0B JUMP JUMPDEST SWAP1 POP DUP2 DUP2 SUB PUSH1 0x40 DUP4 ADD MSTORE PUSH2 0xDA9 DUP2 DUP5 DUP7 PUSH2 0xD43 JUMP JUMPDEST SWAP1 POP SWAP6 SWAP5 POP POP POP POP POP JUMP JUMPDEST PUSH0 PUSH2 0xDBE DUP3 PUSH2 0x6B5 JUMP JUMPDEST SWAP2 POP PUSH32 0xFFFFFFFFFFFFFFFFFFFFFFFFFFFFFFFFFFFFFFFFFFFFFFFFFFFFFFFFFFFFFFFF DUP3 SUB PUSH2 0xDF0 JUMPI PUSH2 0xDEF PUSH2 0xB00 JUMP JUMPDEST JUMPDEST PUSH1 0x1 DUP3 ADD SWAP1 POP SWAP2 SWAP1 POP JUMP JUMPDEST PUSH0 PUSH1 0x60 DUP3 ADD SWAP1 POP DUP2 DUP2 SUB PUSH0 DUP4 ADD MSTORE PUSH2 0xE14 DUP2 DUP9 DUP11 PUSH2 0xD43 JUMP JUMPDEST SWAP1 POP DUP2 DUP2 SUB PUSH1 0x20 DUP4 ADD MSTORE PUSH2 0xE29 DUP2 DUP7 DUP9 PUSH2 0xD43 JUMP JUMPDEST SWAP1 POP DUP2 DUP2 SUB PUSH1 0x40 DUP4 ADD MSTORE PUSH2 0xE3E DUP2 DUP5 DUP7 PUSH2 0xD43 JUMP JUMPDEST SWAP1 POP SWAP8 SWAP7 POP POP POP POP POP POP POP JUMP JUMPDEST PUSH0 DUP2 SWAP1 POP SWAP2 SWAP1 POP JUMP JUMPDEST PUSH2 0xE65 PUSH2 0xE60 DUP3 PUSH2 0x6E8 JUMP JUMPDEST PUSH2 0xE4B JUMP JUMPDEST DUP3 MSTORE POP POP JUMP JUMPDEST PUSH0 PUSH28 0xFFFFFFFFFFFFFFFFFFFFFFFFFFFFFFFFFFFFFFFFFFFFFFFFFFFFFFFF DUP3 AND SWAP1 POP SWAP2 SWAP1 POP JUMP JUMPDEST PUSH0 DUP2 PUSH1 0x20 SHL SWAP1 POP SWAP2 SWAP1 POP JUMP JUMPDEST PUSH0 PUSH2 0xEA8 DUP3 PUSH2 0xE92 JUMP JUMPDEST SWAP1 POP SWAP2 SWAP1 POP JUMP JUMPDEST PUSH2 0xEC0 PUSH2 0xEBB DUP3 PUSH2 0xE6B JUMP JUMPDEST PUSH2 0xE9E JUMP JUMPDEST DUP3 MSTORE POP POP JUMP JUMPDEST PUSH0 PUSH2 0xED1 DUP3 DUP6 PUSH2 0xE54 JUMP JUMPDEST PUSH1 0x4 DUP3 ADD SWAP2 POP PUSH2 0xEE1 DUP3 DUP5 PUSH2 0xEAF JUMP JUMPDEST PUSH1 0x1C DUP3 ADD SWAP2 POP DUP2 SWAP1 POP SWAP4 SWAP3 POP POP POP JUMP JUMPDEST PUSH0 PUSH2 0xEFC DUP3 MLOAD PUSH2 0xBD4 JUMP JUMPDEST DUP1 SWAP2 POP POP SWAP2 SWAP1 POP JUMP JUMPDEST PUSH0 PUSH2 0xF0F DUP3 PUSH2 0x9F4 JUMP JUMPDEST DUP3 PUSH2 0xF19 DUP5 PUSH2 0xA6B JUMP JUMPDEST SWAP1 POP PUSH2 0xF24 DUP2 PUSH2 0xEF1 JUMP JUMPDEST SWAP3 POP PUSH1 0x20 DUP3 LT ISZERO PUSH2 0xF64 JUMPI PUSH2 0xF5F PUSH32 0xFFFFFFFFFFFFFFFFFFFFFFFFFFFFFFFFFFFFFFFFFFFFFFFFFFFFFFFFFFFFFFFF DUP4 PUSH1 0x20 SUB PUSH1 0x8 MUL PUSH2 0xA8E JUMP JUMPDEST DUP4 AND SWAP3 POP JUMPDEST POP POP SWAP2 SWAP1 POP JUMP INVALID LOG2 PUSH5 0x6970667358 0x22 SLT KECCAK256 0xD2 SLT PUSH14 0x82CC967104140C18509D6C36F8E NOT 0xCA EOFCREATE 0xBA GAS 0xCC SWAP5 PUSH32 0x8FAB7ACB8FD99764736F6C634300081E00330000000000000000000000000000 "
				},
				"gasEstimates": {
					"creation": {
						"codeDepositCost": "800200",
						"executionCost": "infinite",
						"totalCost": "infinite"
					},
					"external": {
						"account(uint256)": "infinite",
						"chainLength()": "2447",
						"commitState(uint256,bytes,bytes,bytes)": "infinite",
						"latestStateAddress(uint256)": "infinite",
						"nonce(uint256)": "infinite",
						"state(uint256,bytes4,uint256)": "infinite",
						"stateAddress(uint256,bytes4)": "infinite"
					},
					"internal": {
						"_pointer(bytes4,uint256)": "infinite"
					}
				},
				"methodIdentifiers": {
					"account(uint256)": "2dd7c658",
					"chainLength()": "219ee89c",
					"commitState(uint256,bytes,bytes,bytes)": "70b1073b",
					"latestStateAddress(uint256)": "7e033b88",
					"nonce(uint256)": "ce03fdab",
					"state(uint256,bytes4,uint256)": "29c50ca7",
					"stateAddress(uint256,bytes4)": "09a73d27"
				}
			},
			"storageLayout": {
				"storage": [
					{
						"astId": 180,
						"contract": "src/Rollup.sol:Rollup",
						"label": "chainLength",
						"offset": 0,
						"slot": "0",
						"type": "t_uint256"
					}
				],
				"types": {
					"t_uint256": {
						"encoding": "inplace",
						"label": "uint256",
						"numberOfBytes": "32"
					}
				}
			},
			"userdoc": {
				"kind": "user",
				"methods": {},
				"version": 1
			}
		}
	}
}