{
	"data": {
		"bytecode": {
			"linkReferences": {},
			"object": "608060405234801561000f575f5ffd5b5061004b6040518060400160405280600181526020015f815250610040632dd7c65860e01b5f6100db60201b60201c565b61010f60201b60201c565b506100876040518060400160405280600181526020015f81525061007c63ce03fdab60e01b5f6100db60201b60201c565b61010f60201b60201c565b505f5f3373ffffffffffffffffffffffffffffffffffffffff167f3fcf41a2be2012a96cae109f207d554df9e27d6dcc28fe2c5f8ca38fe35821b66040516100ce906101cc565b60405180910390a4610389565b5f82826040516020016100ef9291906102b6565b60405160208183030381529060405261010790610323565b905092915050565b5f82516f67363d3d37363d34f03d5260086018f35f52826010805ff58061013d5763301164255f526004601cfd5b8060145261d6945f5260016034536017601e2092508160401b6bfe61000180600a3d393df3000161fffe83118601525f38600b8401601588015f855af1833b0261018e5763301164255f526004601cfd5b818552505092915050565b5f82825260208201905092915050565b50565b5f6101b75f83610199565b91506101c2826101a9565b5f82019050919050565b5f6060820190508181035f8301526101e3816101ac565b905081810360208301526101f6816101ac565b90508181036040830152610209816101ac565b9050919050565b5f7fffffffff0000000000000000000000000000000000000000000000000000000082169050919050565b5f819050919050565b61025561025082610210565b61023b565b82525050565b5f7bffffffffffffffffffffffffffffffffffffffffffffffffffffffff82169050919050565b5f8160201b9050919050565b5f61029882610282565b9050919050565b6102b06102ab8261025b565b61028e565b82525050565b5f6102c18285610244565b6004820191506102d1828461029f565b601c820191508190509392505050565b5f81519050919050565b5f819050602082019050919050565b5f819050919050565b5f61030e82516102fa565b80915050919050565b5f82821b905092915050565b5f61032d826102e1565b82610337846102eb565b905061034281610303565b925060208210156103825761037d7fffffffffffffffffffffffffffffffffffffffffffffffffffffffffffffffff83602003600802610317565b831692505b5050919050565b610fa1806103965f395ff3fe608060405234801561000f575f5ffd5b506004361061007b575f3560e01c80632dd7c658116100595780632dd7c658146100fd57806370b1073b1461012d5780637e033b8814610149578063ce03fdab146101795761007b565b806309a73d271461007f578063219ee89c146100af57806329c50ca7146100cd575b5f5ffd5b6100996004803603810190610094919061073d565b6101a9565b6040516100a691906107ba565b60405180910390f35b6100b76101c4565b6040516100c491906107e2565b60405180910390f35b6100e760048036038101906100e291906107fb565b6101c9565b6040516100f49190610885565b60405180910390f35b6101176004803603810190610112919061089e565b610262565b6040516101249190610885565b60405180910390f35b6101476004803603810190610142919061092a565b61027d565b005b610163600480360381019061015e919061089e565b6104cf565b60405161017091906107ba565b60405180910390f35b610193600480360381019061018e919061089e565b6104fe565b6040516101a09190610885565b60405180910390f35b5f6101bc6101b78385610519565b61054d565b905092915050565b5f5481565b5f5f6101d585856101a9565b90505f830361021a576101ea815f600561055f565b6040516020016101fa9190610a46565b60405160208183030381529060405261021290610a9a565b91505061025b565b5f600160068561022a9190610b2d565b6102349190610b6e565b905061024d82826006846102489190610ba1565b61055f565b61025690610a9a565b925050505b9392505050565b5f6102765f54632dd7c65860e01b846101c9565b9050919050565b73397a5f7f3dbd538f23de225b51f532c34448da9b73ffffffffffffffffffffffffffffffffffffffff166341493c607e5120317542200324c9509e78315ad70799268f02d21504709c8973d249320389406102e15f54632dd7c65860e01b6101a9565b73ffffffffffffffffffffffffffffffffffffffff163f61030a5f5463ce03fdab60e01b6101a9565b73ffffffffffffffffffffffffffffffffffffffff163f8b8b8b8b60405160200161033b9796959493929190610c2f565b60405160208183030381529060405285856040518563ffffffff1660e01b815260040161036b9493929190610d6f565b5f6040518083038186803b158015610381575f5ffd5b505afa158015610393573d5f5f3e3d5ffd5b505050505f5f8154809291906103a890610db4565b9190505550865f543373ffffffffffffffffffffffffffffffffffffffff167f3fcf41a2be2012a96cae109f207d554df9e27d6dcc28fe2c5f8ca38fe35821b689898989898960405161040096959493929190610dfb565b60405180910390a461046686868080601f0160208091040260200160405190810160405280939291908181526020018383808284375f81840152601f19601f82011690508083019250505050505050610461632dd7c65860e01b5f54610519565b6105cb565b506104c584848080601f0160208091040260200160405190810160405280939291908181526020018383808284375f81840152601f19601f820116905080830192505050505050506104c063ce03fdab60e01b5f54610519565b6105cb565b5050505050505050565b5f6104f75f545f84146104e95763ce03fdab60e01b6104f2565b632dd7c65860e01b5b6101a9565b9050919050565b5f6105125f5463ce03fdab60e01b846101c9565b9050919050565b5f828260405160200161052d929190610ec6565b60405160208183030381529060405261054590610f05565b905092915050565b5f6105588230610655565b9050919050565b6060604051905061ffff82106105755761ffff91505b818310838303026001810184601f8401873c8082015160ff166105af576001853b038060281c3d3d3e808403818511028203858211029150505b8082525f81602084010152806040830101604052509392505050565b5f82516f67363d3d37363d34f03d5260086018f35f52826010805ff5806105f95763301164255f526004601cfd5b8060145261d6945f5260016034536017601e2092508160401b6bfe61000180600a3d393df3000161fffe83118601525f38600b8401601588015f855af1833b0261064a5763301164255f526004601cfd5b818552505092915050565b5f604051825f5260ff600b53836020527f21c35dbe1b344a2488cf3321d6ce542f8e9f305544ff09e4993a62319a497c1f6040526055600b206014528060405261d6945f5260016034536017601e2091505092915050565b5f5ffd5b5f5ffd5b5f819050919050565b6106c7816106b5565b81146106d1575f5ffd5b50565b5f813590506106e2816106be565b92915050565b5f7fffffffff0000000000000000000000000000000000000000000000000000000082169050919050565b61071c816106e8565b8114610726575f5ffd5b50565b5f8135905061073781610713565b92915050565b5f5f60408385031215610753576107526106ad565b5b5f610760858286016106d4565b925050602061077185828601610729565b9150509250929050565b5f73ffffffffffffffffffffffffffffffffffffffff82169050919050565b5f6107a48261077b565b9050919050565b6107b48161079a565b82525050565b5f6020820190506107cd5f8301846107ab565b92915050565b6107dc816106b5565b82525050565b5f6020820190506107f55f8301846107d3565b92915050565b5f5f5f60608486031215610812576108116106ad565b5b5f61081f868287016106d4565b935050602061083086828701610729565b9250506040610841868287016106d4565b9150509250925092565b5f7fffffffffffff000000000000000000000000000000000000000000000000000082169050919050565b61087f8161084b565b82525050565b5f6020820190506108985f830184610876565b92915050565b5f602082840312156108b3576108b26106ad565b5b5f6108c0848285016106d4565b91505092915050565b5f5ffd5b5f5ffd5b5f5ffd5b5f5f83601f8401126108ea576108e96108c9565b5b8235905067ffffffffffffffff811115610907576109066108cd565b5b602083019150836001820283011115610923576109226108d1565b5b9250929050565b5f5f5f5f5f5f5f6080888a031215610945576109446106ad565b5b5f6109528a828b016106d4565b975050602088013567ffffffffffffffff811115610973576109726106b1565b5b61097f8a828b016108d5565b9650965050604088013567ffffffffffffffff8111156109a2576109a16106b1565b5b6109ae8a828b016108d5565b9450945050606088013567ffffffffffffffff8111156109d1576109d06106b1565b5b6109dd8a828b016108d5565b925092505092959891949750929550565b5f815250565b5f81519050919050565b5f81905092915050565b8281835e5f83830152505050565b5f610a20826109f4565b610a2a81856109fe565b9350610a3a818560208601610a08565b80840191505092915050565b5f610a50826109ee565b600182019150610a608284610a16565b915081905092915050565b5f819050602082019050919050565b5f610a85825161084b565b80915050919050565b5f82821b905092915050565b5f610aa4826109f4565b82610aae84610a6b565b9050610ab981610a7a565b92506006821015610af957610af47fffffffffffff000000000000000000000000000000000000000000000000000083600603600802610a8e565b831692505b5050919050565b7f4e487b71000000000000000000000000000000000000000000000000000000005f52601160045260245ffd5b5f610b37826106b5565b9150610b42836106b5565b9250828202610b50816106b5565b91508282048414831517610b6757610b66610b00565b5b5092915050565b5f610b78826106b5565b9150610b83836106b5565b9250828203905081811115610b9b57610b9a610b00565b5b92915050565b5f610bab826106b5565b9150610bb6836106b5565b9250828201905080821115610bce57610bcd610b00565b5b92915050565b5f819050919050565b5f819050919050565b610bf7610bf282610bd4565b610bdd565b82525050565b828183375f83830152505050565b5f610c1683856109fe565b9350610c23838584610bfd565b82840190509392505050565b5f610c3a828a610be6565b602082019150610c4a8289610be6565b602082019150610c5a8288610be6565b602082019150610c69826109ee565b600182019150610c7a828688610c0b565b9150610c85826109ee565b600182019150610c96828486610c0b565b915081905098975050505050505050565b5f819050919050565b5f815f1b9050919050565b5f610cd5610cd0610ccb84610ca7565b610cb0565b610bd4565b9050919050565b610ce581610cbb565b82525050565b5f82825260208201905092915050565b5f601f19601f8301169050919050565b5f610d15826109f4565b610d1f8185610ceb565b9350610d2f818560208601610a08565b610d3881610cfb565b840191505092915050565b5f610d4e8385610ceb565b9350610d5b838584610bfd565b610d6483610cfb565b840190509392505050565b5f606082019050610d825f830187610cdc565b8181036020830152610d948186610d0b565b90508181036040830152610da9818486610d43565b905095945050505050565b5f610dbe826106b5565b91507fffffffffffffffffffffffffffffffffffffffffffffffffffffffffffffffff8203610df057610def610b00565b5b600182019050919050565b5f6060820190508181035f830152610e1481888a610d43565b90508181036020830152610e29818688610d43565b90508181036040830152610e3e818486610d43565b9050979650505050505050565b5f819050919050565b610e65610e60826106e8565b610e4b565b82525050565b5f7bffffffffffffffffffffffffffffffffffffffffffffffffffffffff82169050919050565b5f8160201b9050919050565b5f610ea882610e92565b9050919050565b610ec0610ebb82610e6b565b610e9e565b82525050565b5f610ed18285610e54565b600482019150610ee18284610eaf565b601c820191508190509392505050565b5f610efc8251610bd4565b80915050919050565b5f610f0f826109f4565b82610f1984610a6b565b9050610f2481610ef1565b92506020821015610f6457610f5f7fffffffffffffffffffffffffffffffffffffffffffffffffffffffffffffffff83602003600802610a8e565b831692505b505091905056fea2646970667358221220d2126d082cc967104140c18509d6c36f8e19caecba5acc947f8fab7acb8fd99764736f6c634300081e0033",
			"opcodes": "PUSH1 0x80 PUSH1 0x40 MSTORE CALLVALUE DUP1 ISZERO PUSH2 0xF JUMPI PUSH0 PUSH0 REVERT JUMPDEST POP PUSH2 0x4B PUSH1 0x40 MLOAD DUP1 PUSH1 0x40 ADD PUSH1 0x40 MSTORE DUP1 PUSH1 0x1 DUP2 MSTORE PUSH1 0x20 ADD PUSH0 DUP2 MSTORE POP PUSH2 0x40 PUSH4 0x2DD7C658 PUSH1 0xE0 SHL PUSH0 PUSH2 0xDB PUSH1 0x20 SHL PUSH1 0x20 SHR JUMP JUMPDEST PUSH2 0x10F PUSH1 0x20 SHL PUSH1 0x20 SHR JUMP JUMPDEST POP PUSH2 0x87 PUSH1 0x40 MLOAD DUP1 PUSH1 0x40 ADD PUSH1 0x40 MSTORE DUP1 PUSH1 0x1 DUP2 MSTORE PUSH1 0x20 ADD PUSH0 DUP2 MSTORE POP PUSH2 0x7C PUSH4 0xCE03FDAB PUSH1 0xE0 SHL PUSH0 PUSH2 0xDB PUSH1 0x20 SHL PUSH1 0x20 SHR JUMP JUMPDEST PUSH2 0x10F PUSH1 0x20 SHL PUSH1 0x20 SHR JUMP JUMPDEST POP PUSH0 PUSH0 CALLER PUSH20 0xFFFFFFFFFFFFFFFFFFFFFFFFFFFFFFFFFFFFFFFF AND PUSH32 0x3FCF41A2BE2012A96CAE109F207D554DF9E27D6DCC28FE2C5F8CA38FE35821B6 PUSH1 0x40 MLOAD PUSH2 0xCE SWAP1 PUSH2 0x1CC JUMP JUMPDEST PUSH1 0x40 MLOAD DUP1 SWAP2 SUB SWAP1 LOG4 PUSH2 0x389 JUMP JUMPDEST PUSH0 DUP3 DUP3 PUSH1 0x40 MLOAD PUSH1 0x20 ADD PUSH2 0xEF SWAP3 SWAP2 SWAP1 PUSH2 0x2B6 JUMP JUMPDEST PUSH1 0x40 MLOAD PUSH1 0x20 DUP2 DUP4 SUB SUB DUP2 MSTORE SWAP1 PUSH1 0x40 MSTORE PUSH2 0x107 SWAP1 PUSH2 0x323 JUMP JUMPDEST SWAP1 POP SWAP3 SWAP2 POP POP JUMP JUMPDEST PUSH0 DUP3 MLOAD PUSH16 0x67363D3D37363D34F03D5260086018F3 PUSH0 MSTORE DUP3 PUSH1 0x10 DUP1 PUSH0 CREATE2 DUP1 PUSH2 0x13D JUMPI PUSH4 0x30116425 PUSH0 MSTORE PUSH1 0x4 PUSH1 0x1C REVERT JUMPDEST DUP1 PUSH1 0x14 MSTORE PUSH2 0xD694 PUSH0 MSTORE PUSH1 0x1 PUSH1 0x34 MSTORE8 PUSH1 0x17 PUSH1 0x1E KECCAK256 SWAP3 POP DUP2 PUSH1 0x40 SHL PUSH12 0xFE61000180600A3D393DF300 ADD PUSH2 0xFFFE DUP4 GT DUP7 ADD MSTORE PUSH0 CODESIZE PUSH1 0xB DUP5 ADD PUSH1 0x15 DUP9 ADD PUSH0 DUP6 GAS CALL DUP4 EXTCODESIZE MUL PUSH2 0x18E JUMPI PUSH4 0x30116425 PUSH0 MSTORE PUSH1 0x4 PUSH1 0x1C REVERT JUMPDEST DUP2 DUP6 MSTORE POP POP SWAP3 SWAP2 POP POP JUMP JUMPDEST PUSH0 DUP3 DUP3 MSTORE PUSH1 0x20 DUP3 ADD SWAP1 POP SWAP3 SWAP2 POP POP JUMP JUMPDEST POP JUMP JUMPDEST PUSH0 PUSH2 0x1B7 PUSH0 DUP4 PUSH2 0x199 JUMP JUMPDEST SWAP2 POP PUSH2 0x1C2 DUP3 PUSH2 0x1A9 JUMP JUMPDEST PUSH0 DUP3 ADD SWAP1 POP SWAP2 SWAP1 POP JUMP JUMPDEST PUSH0 PUSH1 0x60 DUP3 ADD SWAP1 POP DUP2 DUP2 SUB PUSH0 DUP4 ADD MSTORE PUSH2 0x1E3 DUP2 PUSH2 0x1AC JUMP JUMPDEST SWAP1 POP DUP2 DUP2 SUB PUSH1 0x20 DUP4 ADD MSTORE PUSH2 0x1F6 DUP2 PUSH2 0x1AC JUMP JUMPDEST SWAP1 POP DUP2 DUP2 SUB PUSH1 0x40 DUP4 ADD MSTORE PUSH2 0x209 DUP2 PUSH2 0x1AC JUMP JUMPDEST SWAP1 POP SWAP2 SWAP1 POP JUMP JUMPDEST PUSH0 PUSH32 0xFFFFFFFF00000000000000000000000000000000000000000000000000000000 DUP3 AND SWAP1 POP SWAP2 SWAP1 POP JUMP JUMPDEST PUSH0 DUP2 SWAP1 POP SWAP2 SWAP1 POP JUMP JUMPDEST PUSH2 0x255 PUSH2 0x250 DUP3 PUSH2 0x210 JUMP JUMPDEST PUSH2 0x23B JUMP JUMPDEST DUP3 MSTORE POP POP JUMP JUMPDEST PUSH0 PUSH28 0xFFFFFFFFFFFFFFFFFFFFFFFFFFFFFFFFFFFFFFFFFFFFFFFFFFFFFFFF DUP3 AND SWAP1 POP SWAP2 SWAP1 POP JUMP JUMPDEST PUSH0 DUP2 PUSH1 0x20 SHL SWAP1 POP SWAP2 SWAP1 POP JUMP JUMPDEST PUSH0 PUSH2 0x298 DUP3 PUSH2 0x282 JUMP JUMPDEST SWAP1 POP SWAP2 SWAP1 POP JUMP JUMPDEST PUSH2 0x2B0 PUSH2 0x2AB DUP3 PUSH2 0x25B JUMP JUMPDEST PUSH2 0x28E JUMP JUMPDEST DUP3 MSTORE POP POP JUMP JUMPDEST PUSH0 PUSH2 0x2C1 DUP3 DUP6 PUSH2 0x244 JUMP JUMPDEST PUSH1 0x4 DUP3 ADD SWAP2 POP PUSH2 0x2D1 DUP3 DUP5 PUSH2 0x29F JUMP JUMPDEST PUSH1 0x1C DUP3 ADD SWAP2 POP DUP2 SWAP1 POP SWAP4 SWAP3 POP POP POP JUMP JUMPDEST PUSH0 DUP2 MLOAD SWAP1 POP SWAP2 SWAP1 POP JUMP JUMPDEST PUSH0 DUP2 SWAP1 POP PUSH1 0x20 DUP3 ADD SWAP1 POP SWAP2 SWAP1 POP JUMP JUMPDEST PUSH0 DUP2 SWAP1 POP SWAP2 SWAP1 POP JUMP JUMPDEST PUSH0 PUSH2 0x30E DUP3 MLOAD PUSH2 0x2FA JUMP JUMPDEST DUP1 SWAP2 POP POP SWAP2 SWAP1 POP JUMP JUMPDEST PUSH0 DUP3 DUP3 SHL SWAP1 POP SWAP3 SWAP2 POP POP JUMP JUMPDEST PUSH0 PUSH2 0x32D DUP3 PUSH2 0x2E1 JUMP JUMPDEST DUP3 PUSH2 0x337 DUP5 PUSH2 0x2EB JUMP JUMPDEST SWAP1 POP PUSH2 0x342 DUP2 PUSH2 0x303 JUMP JUMPDEST SWAP3 POP PUSH1 0x20 DUP3 LT ISZERO PUSH2 0x382 JUMPI PUSH2 0x37D PUSH32 0xFFFFFFFFFFFFFFFFFFFFFFFFFFFFFFFFFFFFFFFFFFFFFFFFFFFFFFFFFFFFFFFF DUP4 PUSH1 0x20 SUB PUSH1 0x8 MUL PUSH2 0x317 JUMP JUMPDEST DUP4 AND SWAP3 POP JUMPDEST POP POP SWAP2 SWAP1 POP JUMP JUMPDEST PUSH2 0xFA1 DUP1 PUSH2 0x396 PUSH0 CODECOPY PUSH0 RETURN INVALID PUSH1 0x80 PUSH1 0x40 MSTORE CALLVALUE DUP1 ISZERO PUSH2 0xF JUMPI PUSH0 PUSH0 REVERT JUMPDEST POP PUSH1 0x4 CALLDATASIZE LT PUSH2 0x7B JUMPI PUSH0 CALLDATALOAD PUSH1 0xE0 SHR DUP1 PUSH4 0x2DD7C658 GT PUSH2 0x59 JUMPI DUP1 PUSH4 0x2DD7C658 EQ PUSH2 0xFD JUMPI DUP1 PUSH4 0x70B1073B EQ PUSH2 0x12D JUMPI DUP1 PUSH4 0x7E033B88 EQ PUSH2 0x149 JUMPI DUP1 PUSH4 0xCE03FDAB EQ PUSH2 0x179 JUMPI PUSH2 0x7B JUMP JUMPDEST DUP1 PUSH4 0x9A73D27 EQ PUSH2 0x7F JUMPI DUP1 PUSH4 0x219EE89C EQ PUSH2 0xAF JUMPI DUP1 PUSH4 0x29C50CA7 EQ PUSH2 0xCD JUMPI JUMPDEST PUSH0 PUSH0 REVERT JUMPDEST PUSH2 0x99 PUSH1 0x4 DUP1 CALLDATASIZE SUB DUP2 ADD SWAP1 PUSH2 0x94 SWAP2 SWAP1 PUSH2 0x73D JUMP JUMPDEST PUSH2 0x1A9 JUMP JUMPDEST PUSH1 0x40 MLOAD PUSH2 0xA6 SWAP2 SWAP1 PUSH2 0x7BA JUMP JUMPDEST PUSH1 0x40 MLOAD DUP1 SWAP2 SUB SWAP1 RETURN JUMPDEST PUSH2 0xB7 PUSH2 0x1C4 JUMP JUMPDEST PUSH1 0x40 MLOAD PUSH2 0xC4 SWAP2 SWAP1 PUSH2 0x7E2 JUMP JUMPDEST PUSH1 0x40 MLOAD DUP1 SWAP2 SUB SWAP1 RETURN JUMPDEST PUSH2 0xE7 PUSH1 0x4 DUP1 CALLDATASIZE SUB DUP2 ADD SWAP1 PUSH2 0xE2 SWAP2 SWAP1 PUSH2 0x7FB JUMP JUMPDEST PUSH2 0x1C9 JUMP JUMPDEST PUSH1 0x40 MLOAD PUSH2 0xF4 SWAP2 SWAP1 PUSH2 0x885 JUMP JUMPDEST PUSH1 0x40 MLOAD DUP1 SWAP2 SUB SWAP1 RETURN JUMPDEST PUSH2 0x117 PUSH1 0x4 DUP1 CALLDATASIZE SUB DUP2 ADD SWAP1 PUSH2 0x112 SWAP2 SWAP1 PUSH2 0x89E JUMP JUMPDEST PUSH2 0x262 JUMP JUMPDEST PUSH1 0x40 MLOAD PUSH2 0x124 SWAP2 SWAP1 PUSH2 0x885 JUMP JUMPDEST PUSH1 0x40 MLOAD DUP1 SWAP2 SUB SWAP1 RETURN JUMPDEST PUSH2 0x147 PUSH1 0x4 DUP1 CALLDATASIZE SUB DUP2 ADD SWAP1 PUSH2 0x142 SWAP2 SWAP1 PUSH2 0x92A JUMP JUMPDEST PUSH2 0x27D JUMP JUMPDEST STOP JUMPDEST PUSH2 0x163 PUSH1 0x4 DUP1 CALLDATASIZE SUB DUP2 ADD SWAP1 PUSH2 0x15E SWAP2 SWAP1 PUSH2 0x89E JUMP JUMPDEST PUSH2 0x4CF JUMP JUMPDEST PUSH1 0x40 MLOAD PUSH2 0x170 SWAP2 SWAP1 PUSH2 0x7BA JUMP JUMPDEST PUSH1 0x40 MLOAD DUP1 SWAP2 SUB SWAP1 RETURN JUMPDEST PUSH2 0x193 PUSH1 0x4 DUP1 CALLDATASIZE SUB DUP2 ADD SWAP1 PUSH2 0x18E SWAP2 SWAP1 PUSH2 0x89E JUMP JUMPDEST PUSH2 0x4FE JUMP JUMPDEST PUSH1 0x40 MLOAD PUSH2 0x1A0 SWAP2 SWAP1 PUSH2 0x885 JUMP JUMPDEST PUSH1 0x40 MLOAD DUP1 SWAP2 SUB SWAP1 RETURN JUMPDEST PUSH0 PUSH2 0x1BC PUSH2 0x1B7 DUP4 DUP6 PUSH2 0x519 JUMP JUMPDEST PUSH2 0x54D JUMP JUMPDEST SWAP1 POP SWAP3 SWAP2 POP POP JUMP JUMPDEST PUSH0 SLOAD DUP2 JUMP JUMPDEST PUSH0 PUSH0 PUSH2 0x1D5 DUP6 DUP6 PUSH2 0x1A9 JUMP JUMPDEST SWAP1 POP PUSH0 DUP4 SUB PUSH2 0x21A JUMPI PUSH2 0x1EA DUP2 PUSH0 PUSH1 0x5 PUSH2 0x55F JUMP JUMPDEST PUSH1 0x40 MLOAD PUSH1 0x20 ADD PUSH2 0x1FA SWAP2 SWAP1 PUSH2 0xA46 JUMP JUMPDEST PUSH1 0x40 MLOAD PUSH1 0x20 DUP2 DUP4 SUB SUB DUP2 MSTORE SWAP1 PUSH1 0x40 MSTORE PUSH2 0x212 SWAP1 PUSH2 0xA9A JUMP JUMPDEST SWAP2 POP POP PUSH2 0x25B JUMP JUMPDEST PUSH0 PUSH1 0x1 PUSH1 0x6 DUP6 PUSH2 0x22A SWAP2 SWAP1 PUSH2 0xB2D JUMP JUMPDEST PUSH2 0x234 SWAP2 SWAP1 PUSH2 0xB6E JUMP JUMPDEST SWAP1 POP PUSH2 0x24D DUP3 DUP3 PUSH1 0x6 DUP5 PUSH2 0x248 SWAP2 SWAP1 PUSH2 0xBA1 JUMP JUMPDEST PUSH2 0x55F JUMP JUMPDEST PUSH2 0x256 SWAP1 PUSH2 0xA9A JUMP JUMPDEST SWAP3 POP POP POP JUMPDEST SWAP4 SWAP3 POP POP POP JUMP JUMPDEST PUSH0 PUSH2 0x276 PUSH0 SLOAD PUSH4 0x2DD7C658 PUSH1 0xE0 SHL DUP5 PUSH2 0x1C9 JUMP JUMPDEST SWAP1 POP SWAP2 SWAP1 POP JUMP JUMPDEST PUSH20 0x397A5F7F3DBD538F23DE225B51F532C34448DA9B PUSH20 0xFFFFFFFFFFFFFFFFFFFFFFFFFFFFFFFFFFFFFFFF AND PUSH4 0x41493C60 PUSH31 0x5120317542200324C9509E78315AD70799268F02D21504709C8973D2493203 DUP10 BLOCKHASH PUSH2 0x2E1 PUSH0 SLOAD PUSH4 0x2DD7C658 PUSH1 0xE0 SHL PUSH2 0x1A9 JUMP JUMPDEST PUSH20 0xFFFFFFFFFFFFFFFFFFFFFFFFFFFFFFFFFFFFFFFF AND EXTCODEHASH PUSH2 0x30A PUSH0 SLOAD PUSH4 0xCE03FDAB PUSH1 0xE0 SHL PUSH2 0x1A9 JUMP JUMPDEST PUSH20 0xFFFFFFFFFFFFFFFFFFFFFFFFFFFFFFFFFFFFFFFF AND EXTCODEHASH DUP12 DUP12 DUP12 DUP12 PUSH1 0x40 MLOAD PUSH1 0x20 ADD PUSH2 0x33B SWAP8 SWAP7 SWAP6 SWAP5 SWAP4 SWAP3 SWAP2 SWAP1 PUSH2 0xC2F JUMP JUMPDEST PUSH1 0x40 MLOAD PUSH1 0x20 DUP2 DUP4 SUB SUB DUP2 MSTORE SWAP1 PUSH1 0x40 MSTORE DUP6 DUP6 PUSH1 0x40 MLOAD DUP6 PUSH4 0xFFFFFFFF AND PUSH1 0xE0 SHL DUP2 MSTORE PUSH1 0x4 ADD PUSH2 0x36B SWAP5 SWAP4 SWAP3 SWAP2 SWAP1 PUSH2 0xD6F JUMP JUMPDEST PUSH0 PUSH1 0x40 MLOAD DUP1 DUP4 SUB DUP2 DUP7 DUP1 EXTCODESIZE ISZERO DUP1 ISZERO PUSH2 0x381 JUMPI PUSH0 PUSH0 REVERT JUMPDEST POP GAS STATICCALL ISZERO DUP1 ISZERO PUSH2 0x393 JUMPI RETURNDATASIZE PUSH0 PUSH0 RETURNDATACOPY RETURNDATASIZE PUSH0 REVERT JUMPDEST POP POP POP POP PUSH0 PUSH0 DUP2 SLOAD DUP1 SWAP3 SWAP2 SWAP1 PUSH2 0x3A8 SWAP1 PUSH2 0xDB4 JUMP JUMPDEST SWAP2 SWAP1 POP SSTORE POP DUP7 PUSH0 SLOAD CALLER PUSH20 0xFFFFFFFFFFFFFFFFFFFFFFFFFFFFFFFFFFFFFFFF AND PUSH32 0x3FCF41A2BE2012A96CAE109F207D554DF9E27D6DCC28FE2C5F8CA38FE35821B6 DUP10 DUP10 DUP10 DUP10 DUP10 DUP10 PUSH1 0x40 MLOAD PUSH2 0x400 SWAP7 SWAP6 SWAP5 SWAP4 SWAP3 SWAP2 SWAP1 PUSH2 0xDFB JUMP JUMPDEST PUSH1 0x40 MLOAD DUP1 SWAP2 SUB SWAP1 LOG4 PUSH2 0x466 DUP7 DUP7 DUP1 DUP1 PUSH1 0x1F ADD PUSH1 0x20 DUP1 SWAP2 DIV MUL PUSH1 0x20 ADD PUSH1 0x40 MLOAD SWAP1 DUP2 ADD PUSH1 0x40 MSTORE DUP1 SWAP4 SWAP3 SWAP2 SWAP1 DUP2 DUP2 MSTORE PUSH1 0x20 ADD DUP4 DUP4 DUP1 DUP3 DUP5 CALLDATACOPY PUSH0 DUP2 DUP5 ADD MSTORE PUSH1 0x1F NOT PUSH1 0x1F DUP3 ADD AND SWAP1 POP DUP1 DUP4 ADD SWAP3 POP POP POP POP POP POP POP PUSH2 0x461 PUSH4 0x2DD7C658 PUSH1 0xE0 SHL PUSH0 SLOAD PUSH2 0x519 JUMP JUMPDEST PUSH2 0x5CB JUMP JUMPDEST POP PUSH2 0x4C5 DUP5 DUP5 DUP1 DUP1 PUSH1 0x1F ADD PUSH1 0x20 DUP1 SWAP2 DIV MUL PUSH1 0x20 ADD PUSH1 0x40 MLOAD SWAP1 DUP2 ADD PUSH1 0x40 MSTORE DUP1 SWAP4 SWAP3 SWAP2 SWAP1 DUP2 DUP2 MSTORE PUSH1 0x20 ADD DUP4 DUP4 DUP1 DUP3 DUP5 CALLDATACOPY PUSH0 DUP2 DUP5 ADD MSTORE PUSH1 0x1F NOT PUSH1 0x1F DUP3 ADD AND SWAP1 POP DUP1 DUP4 ADD SWAP3 POP POP POP POP POP POP POP PUSH2 0x4C0 PUSH4 0xCE03FDAB PUSH1 0xE0 SHL PUSH0 SLOAD PUSH2 0x519 JUMP JUMPDEST PUSH2 0x5CB JUMP JUMPDEST POP POP POP POP POP POP POP POP JUMP JUMPDEST PUSH0 PUSH2 0x4F7 PUSH0 SLOAD PUSH0 DUP5 EQ PUSH2 0x4E9 JUMPI PUSH4 0xCE03FDAB PUSH1 0xE0 SHL PUSH2 0x4F2 JUMP JUMPDEST PUSH4 0x2DD7C658 PUSH1 0xE0 SHL JUMPDEST PUSH2 0x1A9 JUMP JUMPDEST SWAP1 POP SWAP2 SWAP1 POP JUMP JUMPDEST PUSH0 PUSH2 0x512 PUSH0 SLOAD PUSH4 0xCE03FDAB PUSH1 0xE0 SHL DUP5 PUSH2 0x1C9 JUMP JUMPDEST SWAP1 POP SWAP2 SWAP1 POP JUMP JUMPDEST PUSH0 DUP3 DUP3 PUSH1 0x40 MLOAD PUSH1 0x20 ADD PUSH2 0x52D SWAP3 SWAP2 SWAP1 PUSH2 0xEC6 JUMP JUMPDEST PUSH1 0x40 MLOAD PUSH1 0x20 DUP2 DUP4 SUB SUB DUP2 MSTORE SWAP1 PUSH1 0x40 MSTORE PUSH2 0x545 SWAP1 PUSH2 0xF05 JUMP JUMPDEST SWAP1 POP SWAP3 SWAP2 POP POP JUMP JUMPDEST PUSH0 PUSH2 0x558 DUP3 ADDRESS PUSH2 0x655 JUMP JUMPDEST SWAP1 POP SWAP2 SWAP1 POP JUMP JUMPDEST PUSH1 0x60 PUSH1 0x40 MLOAD SWAP1 POP PUSH2 0xFFFF DUP3 LT PUSH2 0x575 JUMPI PUSH2 0xFFFF SWAP2 POP JUMPDEST DUP2 DUP4 LT DUP4 DUP4 SUB MUL PUSH1 0x1 DUP2 ADD DUP5 PUSH1 0x1F DUP5 ADD DUP8 EXTCODECOPY DUP1 DUP3 ADD MLOAD PUSH1 0xFF AND PUSH2 0x5AF JUMPI PUSH1 0x1 DUP6 EXTCODESIZE SUB DUP1 PUSH1 0x28 SHR RETURNDATASIZE RETURNDATASIZE RETURNDATACOPY DUP1 DUP5 SUB DUP2 DUP6 GT MUL DUP3 SUB DUP6 DUP3 GT MUL SWAP2 POP POP JUMPDEST DUP1 DUP3 MSTORE PUSH0 DUP2 PUSH1 0x20 DUP5 ADD ADD MSTORE DUP1 PUSH1 0x40 DUP4 ADD ADD PUSH1 0x40 MSTORE POP SWAP4 SWAP3 POP POP POP JUMP JUMPDEST PUSH0 DUP3 MLOAD PUSH16 0x67363D3D37363D34F03D5260086018F3 PUSH0 MSTORE DUP3 PUSH1 0x10 DUP1 PUSH0 CREATE2 DUP1 PUSH2 0x5F9 JUMPI PUSH4 0x30116425 PUSH0 MSTORE PUSH1 0x4 PUSH1 0x1C REVERT JUMPDEST DUP1 PUSH1 0x14 MSTORE PUSH2 0xD694 PUSH0 MSTORE PUSH1 0x1 PUSH1 0x34 MSTORE8 PUSH1 0x17 PUSH1 0x1E KECCAK256 SWAP3 POP DUP2 PUSH1 0x40 SHL PUSH12 0xFE61000180600A3D393DF300 ADD PUSH2 0xFFFE DUP4 GT DUP7 ADD MSTORE PUSH0 CODESIZE PUSH1 0xB DUP5 ADD PUSH1 0x15 DUP9 ADD PUSH0 DUP6 GAS CALL DUP4 EXTCODESIZE MUL PUSH2 0x64A JUMPI PUSH4 0x30116425 PUSH0 MSTORE PUSH1 0x4 PUSH1 0x1C REVERT JUMPDEST DUP2 DUP6 MSTORE POP POP SWAP3 SWAP2 POP POP JUMP JUMPDEST PUSH0 PUSH1 0x40 MLOAD DUP3 PUSH0 MSTORE PUSH1 0xFF PUSH1 0xB MSTORE8 DUP4 PUSH1 0x20 MSTORE PUSH32 0x21C35DBE1B344A2488CF3321D6CE542F8E9F305544FF09E4993A62319A497C1F PUSH1 0x40 MSTORE PUSH1 0x55 PUSH1 0xB KECCAK256 PUSH1 0x14 MSTORE DUP1 PUSH1 0x40 MSTORE PUSH2 0xD694 PUSH0 MSTORE PUSH1 0x1 PUSH1 0x34 MSTORE8 PUSH1 0x17 PUSH1 0x1E KECCAK256 SWAP2 POP POP SWAP3 SWAP2 POP POP JUMP JUMPDEST PUSH0 PUSH0 REVERT JUMPDEST PUSH0 PUSH0 REVERT JUMPDEST PUSH0 DUP2 SWAP1 POP SWAP2 SWAP1 POP JUMP JUMPDEST PUSH2 0x6C7 DUP2 PUSH2 0x6B5 JUMP JUMPDEST DUP2 EQ PUSH2 0x6D1 JUMPI PUSH0 PUSH0 REVERT JUMPDEST POP JUMP JUMPDEST PUSH0 DUP2 CALLDATALOAD SWAP1 POP PUSH2 0x6E2 DUP2 PUSH2 0x6BE JUMP JUMPDEST SWAP3 SWAP2 POP POP JUMP JUMPDEST PUSH0 PUSH32 0xFFFFFFFF00000000000000000000000000000000000000000000000000000000 DUP3 AND SWAP1 POP SWAP2 SWAP1 POP JUMP JUMPDEST PUSH2 0x71C DUP2 PUSH2 0x6E8 JUMP JUMPDEST DUP2 EQ PUSH2 0x726 JUMPI PUSH0 PUSH0 REVERT JUMPDEST POP JUMP JUMPDEST PUSH0 DUP2 CALLDATALOAD SWAP1 POP PUSH2 0x737 DUP2 PUSH2 0x713 JUMP JUMPDEST SWAP3 SWAP2 POP POP JUMP JUMPDEST PUSH0 PUSH0 PUSH1 0x40 DUP4 DUP6 SUB SLT ISZERO PUSH2 0x753 JUMPI PUSH2 0x752 PUSH2 0x6AD JUMP JUMPDEST JUMPDEST PUSH0 PUSH2 0x760 DUP6 DUP3 DUP7 ADD PUSH2 0x6D4 JUMP JUMPDEST SWAP3 POP POP PUSH1 0x20 PUSH2 0x771 DUP6 DUP3 DUP7 ADD PUSH2 0x729 JUMP JUMPDEST SWAP2 POP POP SWAP3 POP SWAP3 SWAP1 POP JUMP JUMPDEST PUSH0 PUSH20 0xFFFFFFFFFFFFFFFFFFFFFFFFFFFFFFFFFFFFFFFF DUP3 AND SWAP1 POP SWAP2 SWAP1 POP JUMP JUMPDEST PUSH0 PUSH2 0x7A4 DUP3 PUSH2 0x77B JUMP JUMPDEST SWAP1 POP SWAP2 SWAP1 POP JUMP JUMPDEST PUSH2 0x7B4 DUP2 PUSH2 0x79A JUMP JUMPDEST DUP3 MSTORE POP POP JUMP JUMPDEST PUSH0 PUSH1 0x20 DUP3 ADD SWAP1 POP PUSH2 0x7CD PUSH0 DUP4 ADD DUP5 PUSH2 0x7AB JUMP JUMPDEST SWAP3 SWAP2 POP POP JUMP JUMPDEST PUSH2 0x7DC DUP2 PUSH2 0x6B5 JUMP JUMPDEST DUP3 MSTORE POP POP JUMP JUMPDEST PUSH0 PUSH1 0x20 DUP3 ADD SWAP1 POP PUSH2 0x7F5 PUSH0 DUP4 ADD DUP5 PUSH2 0x7D3 JUMP JUMPDEST SWAP3 SWAP2 POP POP JUMP JUMPDEST PUSH0 PUSH0 PUSH0 PUSH1 0x60 DUP5 DUP7 SUB SLT ISZERO PUSH2 0x812 JUMPI PUSH2 0x811 PUSH2 0x6AD JUMP JUMPDEST JUMPDEST PUSH0 PUSH2 0x81F DUP7 DUP3 DUP8 ADD PUSH2 0x6D4 JUMP JUMPDEST SWAP4 POP POP PUSH1 0x20 PUSH2 0x830 DUP7 DUP3 DUP8 ADD PUSH2 0x729 JUMP JUMPDEST SWAP3 POP POP PUSH1 0x40 PUSH2 0x841 DUP7 DUP3 DUP8 ADD PUSH2 0x6D4 JUMP JUMPDEST SWAP2 POP POP SWAP3 POP SWAP3 POP SWAP3 JUMP JUMPDEST PUSH0 PUSH32 0xFFFFFFFFFFFF0000000000000000000000000000000000000000000000000000 DUP3 AND SWAP1 POP SWAP2 SWAP1 POP JUMP JUMPDEST PUSH2 0x87F DUP2 PUSH2 0x84B JUMP JUMPDEST DUP3 MSTORE POP POP JUMP JUMPDEST PUSH0 PUSH1 0x20 DUP3 ADD SWAP1 POP PUSH2 0x898 PUSH0 DUP4 ADD DUP5 PUSH2 0x876 JUMP JUMPDEST SWAP3 SWAP2 POP POP JUMP JUMPDEST PUSH0 PUSH1 0x20 DUP3 DUP5 SUB SLT ISZERO PUSH2 0x8B3 JUMPI PUSH2 0x8B2 PUSH2 0x6AD JUMP JUMPDEST JUMPDEST PUSH0 PUSH2 0x8C0 DUP5 DUP3 DUP6 ADD PUSH2 0x6D4 JUMP JUMPDEST SWAP2 POP POP SWAP3 SWAP2 POP POP JUMP JUMPDEST PUSH0 PUSH0 REVERT JUMPDEST PUSH0 PUSH0 REVERT JUMPDEST PUSH0 PUSH0 REVERT JUMPDEST PUSH0 PUSH0 DUP4 PUSH1 0x1F DUP5 ADD SLT PUSH2 0x8EA JUMPI PUSH2 0x8E9 PUSH2 0x8C9 JUMP JUMPDEST JUMPDEST DUP3 CALLDATALOAD SWAP1 POP PUSH8 0xFFFFFFFFFFFFFFFF DUP2 GT ISZERO PUSH2 0x907 JUMPI PUSH2 0x906 PUSH2 0x8CD JUMP JUMPDEST JUMPDEST PUSH1 0x20 DUP4 ADD SWAP2 POP DUP4 PUSH1 0x1 DUP3 MUL DUP4 ADD GT ISZERO PUSH2 0x923 JUMPI PUSH2 0x922 PUSH2 0x8D1 JUMP JUMPDEST JUMPDEST SWAP3 POP SWAP3 SWAP1 POP JUMP JUMPDEST PUSH0 PUSH0 PUSH0 PUSH0 PUSH0 PUSH0 PUSH0 PUSH1 0x80 DUP9 DUP11 SUB SLT ISZERO PUSH2 0x945 JUMPI PUSH2 0x944 PUSH2 0x6AD JUMP JUMPDEST JUMPDEST PUSH0 PUSH2 0x952 DUP11 DUP3 DUP12 ADD PUSH2 0x6D4 JUMP JUMPDEST SWAP8 POP POP PUSH1 0x20 DUP9 ADD CALLDATALOAD PUSH8 0xFFFFFFFFFFFFFFFF DUP2 GT ISZERO PUSH2 0x973 JUMPI PUSH2 0x972 PUSH2 0x6B1 JUMP JUMPDEST JUMPDEST PUSH2 0x97F DUP11 DUP3 DUP12 ADD PUSH2 0x8D5 JUMP JUMPDEST SWAP7 POP SWAP7 POP POP PUSH1 0x40 DUP9 ADD CALLDATALOAD PUSH8 0xFFFFFFFFFFFFFFFF DUP2 GT ISZERO PUSH2 0x9A2 JUMPI PUSH2 0x9A1 PUSH2 0x6B1 JUMP JUMPDEST JUMPDEST PUSH2 0x9AE DUP11 DUP3 DUP12 ADD PUSH2 0x8D5 JUMP JUMPDEST SWAP5 POP SWAP5 POP POP PUSH1 0x60 DUP9 ADD CALLDATALOAD PUSH8 0xFFFFFFFFFFFFFFFF DUP2 GT ISZERO PUSH2 0x9D1 JUMPI PUSH2 0x9D0 PUSH2 0x6B1 JUMP JUMPDEST JUMPDEST PUSH2 0x9DD DUP11 DUP3 DUP12 ADD PUSH2 0x8D5 JUMP JUMPDEST SWAP3 POP SWAP3 POP POP SWAP3 SWAP6 SWAP9 SWAP2 SWAP5 SWAP8 POP SWAP3 SWAP6 POP JUMP JUMPDEST PUSH0 DUP2 MSTORE POP JUMP JUMPDEST PUSH0 DUP2 MLOAD SWAP1 POP SWAP2 SWAP1 POP JUMP JUMPDEST PUSH0 DUP2 SWAP1 POP SWAP3 SWAP2 POP POP JUMP JUMPDEST DUP3 DUP2 DUP4 MCOPY PUSH0 DUP4 DUP4 ADD MSTORE POP POP POP JUMP JUMPDEST PUSH0 PUSH2 0xA20 DUP3 PUSH2 0x9F4 JUMP JUMPDEST PUSH2 0xA2A DUP2 DUP6 PUSH2 0x9FE JUMP JUMPDEST SWAP4 POP PUSH2 0xA3A DUP2 DUP6 PUSH1 0x20 DUP7 ADD PUSH2 0xA08 JUMP JUMPDEST DUP1 DUP5 ADD SWAP2 POP POP SWAP3 SWAP2 POP POP JUMP JUMPDEST PUSH0 PUSH2 0xA50 DUP3 PUSH2 0x9EE JUMP JUMPDEST PUSH1 0x1 DUP3 ADD SWAP2 POP PUSH2 0xA60 DUP3 DUP5 PUSH2 0xA16 JUMP JUMPDEST SWAP2 POP DUP2 SWAP1 POP SWAP3 SWAP2 POP POP JUMP JUMPDEST PUSH0 DUP2 SWAP1 POP PUSH1 0x20 DUP3 ADD SWAP1 POP SWAP2 SWAP1 POP JUMP JUMPDEST PUSH0 PUSH2 0xA85 DUP3 MLOAD PUSH2 0x84B JUMP JUMPDEST DUP1 SWAP2 POP POP SWAP2 SWAP1 POP JUMP JUMPDEST PUSH0 DUP3 DUP3 SHL SWAP1 POP SWAP3 SWAP2 POP POP JUMP JUMPDEST PUSH0 PUSH2 0xAA4 DUP3 PUSH2 0x9F4 JUMP JUMPDEST DUP3 PUSH2 0xAAE DUP5 PUSH2 0xA6B JUMP JUMPDEST SWAP1 POP PUSH2 0xAB9 DUP2 PUSH2 0xA7A JUMP JUMPDEST SWAP3 POP PUSH1 0x6 DUP3 LT ISZERO PUSH2 0xAF9 JUMPI PUSH2 0xAF4 PUSH32 0xFFFFFFFFFFFF0000000000000000000000000000000000000000000000000000 DUP4 PUSH1 0x6 SUB PUSH1 0x8 MUL PUSH2 0xA8E JUMP JUMPDEST DUP4 AND SWAP3 POP JUMPDEST POP POP SWAP2 SWAP1 POP JUMP JUMPDEST PUSH32 0x4E487B7100000000000000000000000000000000000000000000000000000000 PUSH0 MSTORE PUSH1 0x11 PUSH1 0x4 MSTORE PUSH1 0x24 PUSH0 REVERT JUMPDEST PUSH0 PUSH2 0xB37 DUP3 PUSH2 0x6B5 JUMP JUMPDEST SWAP2 POP PUSH2 0xB42 DUP4 PUSH2 0x6B5 JUMP JUMPDEST SWAP3 POP DUP3 DUP3 MUL PUSH2 0xB50 DUP2 PUSH2 0x6B5 JUMP JUMPDEST SWAP2 POP DUP3 DUP3 DIV DUP5 EQ DUP4 ISZERO OR PUSH2 0xB67 JUMPI PUSH2 0xB66 PUSH2 0xB00 JUMP JUMPDEST JUMPDEST POP SWAP3 SWAP2 POP POP JUMP JUMPDEST PUSH0 PUSH2 0xB78 DUP3 PUSH2 0x6B5 JUMP JUMPDEST SWAP2 POP PUSH2 0xB83 DUP4 PUSH2 0x6B5 JUMP JUMPDEST SWAP3 POP DUP3 DUP3 SUB SWAP1 POP DUP2 DUP2 GT ISZERO PUSH2 0xB9B JUMPI PUSH2 0xB9A PUSH2 0xB00 JUMP JUMPDEST JUMPDEST SWAP3 SWAP2 POP POP JUMP JUMPDEST PUSH0 PUSH2 0xBAB DUP3 PUSH2 0x6B5 JUMP JUMPDEST SWAP2 POP PUSH2 0xBB6 DUP4 PUSH2 0x6B5 JUMP JUMPDEST SWAP3 POP DUP3 DUP3 ADD SWAP1 POP DUP1 DUP3 GT ISZERO PUSH2 0xBCE JUMPI PUSH2 0xBCD PUSH2 0xB00 JUMP JUMPDEST JUMPDEST SWAP3 SWAP2 POP POP JUMP JUMPDEST PUSH0 DUP2 SWAP1 POP SWAP2 SWAP1 POP JUMP JUMPDEST PUSH0 DUP2 SWAP1 POP SWAP2 SWAP1 POP JUMP JUMPDEST PUSH2 0xBF7 PUSH2 0xBF2 DUP3 PUSH2 0xBD4 JUMP JUMPDEST PUSH2 0xBDD JUMP JUMPDEST DUP3 MSTORE POP POP JUMP JUMPDEST DUP3 DUP2 DUP4 CALLDATACOPY PUSH0 DUP4 DUP4 ADD MSTORE POP POP POP JUMP JUMPDEST PUSH0 PUSH2 0xC16 DUP4 DUP6 PUSH2 0x9FE JUMP JUMPDEST SWAP4 POP PUSH2 0xC23 DUP4 DUP6 DUP5 PUSH2 0xBFD JUMP JUMPDEST DUP3 DUP5 ADD SWAP1 POP SWAP4 SWAP3 POP POP POP JUMP JUMPDEST PUSH0 PUSH2 0xC3A DUP3 DUP11 PUSH2 0xBE6 JUMP JUMPDEST PUSH1 0x20 DUP3 ADD SWAP2 POP PUSH2 0xC4A DUP3 DUP10 PUSH2 0xBE6 JUMP JUMPDEST PUSH1 0x20 DUP3 ADD SWAP2 POP PUSH2 0xC5A DUP3 DUP9 PUSH2 0xBE6 JUMP JUMPDEST PUSH1 0x20 DUP3 ADD SWAP2 POP PUSH2 0xC69 DUP3 PUSH2 0x9EE JUMP JUMPDEST PUSH1 0x1 DUP3 ADD SWAP2 POP PUSH2 0xC7A DUP3 DUP7 DUP9 PUSH2 0xC0B JUMP JUMPDEST SWAP2 POP PUSH2 0xC85 DUP3 PUSH2 0x9EE JUMP JUMPDEST PUSH1 0x1 DUP3 ADD SWAP2 POP PUSH2 0xC96 DUP3 DUP5 DUP7 PUSH2 0xC0B JUMP JUMPDEST SWAP2 POP DUP2 SWAP1 POP SWAP9 SWAP8 POP POP POP POP POP POP POP POP JUMP JUMPDEST PUSH0 DUP2 SWAP1 POP SWAP2 SWAP1 POP JUMP JUMPDEST PUSH0 DUP2 PUSH0 SHL SWAP1 POP SWAP2 SWAP1 POP JUMP JUMPDEST PUSH0 PUSH2 0xCD5 PUSH2 0xCD0 PUSH2 0xCCB DUP5 PUSH2 0xCA7 JUMP JUMPDEST PUSH2 0xCB0 JUMP JUMPDEST PUSH2 0xBD4 JUMP JUMPDEST SWAP1 POP SWAP2 SWAP1 POP JUMP JUMPDEST PUSH2 0xCE5 DUP2 PUSH2 0xCBB JUMP JUMPDEST DUP3 MSTORE POP POP JUMP JUMPDEST PUSH0 DUP3 DUP3 MSTORE PUSH1 0x20 DUP3 ADD SWAP1 POP SWAP3 SWAP2 POP POP JUMP JUMPDEST PUSH0 PUSH1 0x1F NOT PUSH1 0x1F DUP4 ADD AND SWAP1 POP SWAP2 SWAP1 POP JUMP JUMPDEST PUSH0 PUSH2 0xD15 DUP3 PUSH2 0x9F4 JUMP JUMPDEST PUSH2 0xD1F DUP2 DUP6 PUSH2 0xCEB JUMP JUMPDEST SWAP4 POP PUSH2 0xD2F DUP2 DUP6 PUSH1 0x20 DUP7 ADD PUSH2 0xA08 JUMP JUMPDEST PUSH2 0xD38 DUP2 PUSH2 0xCFB JUMP JUMPDEST DUP5 ADD SWAP2 POP POP SWAP3 SWAP2 POP POP JUMP JUMPDEST PUSH0 PUSH2 0xD4E DUP4 DUP6 PUSH2 0xCEB JUMP JUMPDEST SWAP4 POP PUSH2 0xD5B DUP4 DUP6 DUP5 PUSH2 0xBFD JUMP JUMPDEST PUSH2 0xD64 DUP4 PUSH2 0xCFB JUMP JUMPDEST DUP5 ADD SWAP1 POP SWAP4 SWAP3 POP POP POP JUMP JUMPDEST PUSH0 PUSH1 0x60 DUP3 ADD SWAP1 POP PUSH2 0xD82 PUSH0 DUP4 ADD DUP8 PUSH2 0xCDC JUMP JUMPDEST DUP2 DUP2 SUB PUSH1 0x20 DUP4 ADD MSTORE PUSH2 0xD94 DUP2 DUP7 PUSH2 0xD0B JUMP JUMPDEST SWAP1 POP DUP2 DUP2 SUB PUSH1 0x40 DUP4 ADD MSTORE PUSH2 0xDA9 DUP2 DUP5 DUP7 PUSH2 0xD43 JUMP JUMPDEST SWAP1 POP SWAP6 SWAP5 POP POP POP POP POP JUMP JUMPDEST PUSH0 PUSH2 0xDBE DUP3 PUSH2 0x6B5 JUMP JUMPDEST SWAP2 POP PUSH32 0xFFFFFFFFFFFFFFFFFFFFFFFFFFFFFFFFFFFFFFFFFFFFFFFFFFFFFFFFFFFFFFFF DUP3 SUB PUSH2 0xDF0 JUMPI PUSH2 0xDEF PUSH2 0xB00 JUMP JUMPDEST JUMPDEST PUSH1 0x1 DUP3 ADD SWAP1 POP SWAP2 SWAP1 POP JUMP JUMPDEST PUSH0 PUSH1 0x60 DUP3 ADD SWAP1 POP DUP2 DUP2 SUB PUSH0 DUP4 ADD MSTORE PUSH2 0xE14 DUP2 DUP9 DUP11 PUSH2 0xD43 JUMP JUMPDEST SWAP1 POP DUP2 DUP2 SUB PUSH1 0x20 DUP4 ADD MSTORE PUSH2 0xE29 DUP2 DUP7 DUP9 PUSH2 0xD43 JUMP JUMPDEST SWAP1 POP DUP2 DUP2 SUB PUSH1 0x40 DUP4 ADD MSTORE PUSH2 0xE3E DUP2 DUP5 DUP7 PUSH2 0xD43 JUMP JUMPDEST SWAP1 POP SWAP8 SWAP7 POP POP POP POP POP POP POP JUMP JUMPDEST PUSH0 DUP2 SWAP1 POP SWAP2 SWAP1 POP JUMP JUMPDEST PUSH2 0xE65 PUSH2 0xE60 DUP3 PUSH2 0x6E8 JUMP JUMPDEST PUSH2 0xE4B JUMP JUMPDEST DUP3 MSTORE POP POP JUMP JUMPDEST PUSH0 PUSH28 0xFFFFFFFFFFFFFFFFFFFFFFFFFFFFFFFFFFFFFFFFFFFFFFFFFFFFFFFF DUP3 AND SWAP1 POP SWAP2 SWAP1 POP JUMP JUMPDEST PUSH0 DUP2 PUSH1 0x20 SHL SWAP1 POP SWAP2 SWAP1 POP JUMP JUMPDEST PUSH0 PUSH2 0xEA8 DUP3 PUSH2 0xE92 JUMP JUMPDEST SWAP1 POP SWAP2 SWAP1 POP JUMP JUMPDEST PUSH2 0xEC0 PUSH2 0xEBB DUP3 PUSH2 0xE6B JUMP JUMPDEST PUSH2 0xE9E JUMP JUMPDEST DUP3 MSTORE POP POP JUMP JUMPDEST PUSH0 PUSH2 0xED1 DUP3 DUP6 PUSH2 0xE54 JUMP JUMPDEST PUSH1 0x4 DUP3 ADD SWAP2 POP PUSH2 0xEE1 DUP3 DUP5 PUSH2 0xEAF JUMP JUMPDEST PUSH1 0x1C DUP3 ADD SWAP2 POP DUP2 SWAP1 POP SWAP4 SWAP3 POP POP POP JUMP JUMPDEST PUSH0 PUSH2 0xEFC DUP3 MLOAD PUSH2 0xBD4 JUMP JUMPDEST DUP1 SWAP2 POP POP SWAP2 SWAP1 POP JUMP JUMPDEST PUSH0 PUSH2 0xF0F DUP3 PUSH2 0x9F4 JUMP JUMPDEST DUP3 PUSH2 0xF19 DUP5 PUSH2 0xA6B JUMP JUMPDEST SWAP1 POP PUSH2 0xF24 DUP2 PUSH2 0xEF1 JUMP JUMPDEST SWAP3 POP PUSH1 0x20 DUP3 LT ISZERO PUSH2 0xF64 JUMPI PUSH2 0xF5F PUSH32 0xFFFFFFFFFFFFFFFFFFFFFFFFFFFFFFFFFFFFFFFFFFFFFFFFFFFFFFFFFFFFFFFF DUP4 PUSH1 0x20 SUB PUSH1 0x8 MUL PUSH2 0xA8E JUMP JUMPDEST DUP4 AND SWAP3 POP JUMPDEST POP POP SWAP2 SWAP1 POP JUMP INVALID LOG2 PUSH5 0x6970667358 0x22 SLT KECCAK256 0xD2 SLT PUSH14 0x82CC967104140C18509D6C36F8E NOT 0xCA EOFCREATE 0xBA GAS 0xCC SWAP5 PUSH32 0x8FAB7ACB8FD99764736F6C634300081E00330000000000000000000000000000 "
		},
		"gasEstimates": {
			"creation": {
				"codeDepositCost": "800200",
				"executionCost": "infinite",
				"totalCost": "infinite"
			},
			"external": {
				"account(uint256)": "infinite",
				"chainLength()": "2447",
				"commitState(uint256,bytes,bytes,bytes)": "infinite",
				"latestStateAddress(uint256)": "infinite",
				"nonce(uint256)": "infinite",
				"state(uint256,bytes4,uint256)": "infinite",
				"stateAddress(uint256,bytes4)": "infinite"
			},
			"internal": {
				"_pointer(bytes4,uint256)": "infinite"
			}
		},
		"methodIdentifiers": {
			"account(uint256)": "2dd7c658",
			"chainLength()": "219ee89c",
			"commitState(uint256,bytes,bytes,bytes)": "70b1073b",
			"latestStateAddress(uint256)": "7e033b88",
			"nonce(uint256)": "ce03fdab",
			"state(uint256,bytes4,uint256)": "29c50ca7",
			"stateAddress(uint256,bytes4)": "09a73d27"
		}
	},
	"abi": [
		{
			"inputs": [],
			"stateMutability": "nonpayable",
			"type": "constructor"
		},
		{
			"anonymous": false,
			"inputs": [
				{
					"indexed": true,
					"internalType": "address",
					"name": "from",
					"type": "address"
				},
				{
					"indexed": true,
					"internalType": "uint256",
					"name": "chainLength",
					"type": "uint256"
				},
				{
					"indexed": true,
					"internalType": "uint256",
					"name": "anchorBlock",
					"type": "uint256"
				},
				{
					"indexed": false,
					"internalType": "bytes",
					"name": "accountBlob",
					"type": "bytes"
				},
				{
					"indexed": false,
					"internalType": "bytes",
					"name": "nonceBlob",
					"type": "bytes"
				},
				{
					"indexed": false,
					"internalType": "bytes",
					"name": "proof",
					"type": "bytes"
				}
			],
			"name": "NewState",
			"type": "event"
		},
		{
			"inputs": [
				{
					"internalType": "uint256",
					"name": "tokenId",
					"type": "uint256"
				}
			],
			"name": "account",
			"outputs": [
				{
					"internalType": "bytes6",
					"name": "",
					"type": "bytes6"
				}
			],
			"stateMutability": "view",
			"type": "function"
		},
		{
			"inputs": [],
			"name": "chainLength",
			"outputs": [
				{
					"internalType": "uint256",
					"name": "",
					"type": "uint256"
				}
			],
			"stateMutability": "view",
			"type": "function"
		},
		{
			"inputs": [
				{
					"internalType": "uint256",
					"name": "anchorBlock",
					"type": "uint256"
				},
				{
					"internalType": "bytes",
					"name": "accountBlob",
					"type": "bytes"
				},
				{
					"internalType": "bytes",
					"name": "nonceBlob",
					"type": "bytes"
				},
				{
					"internalType": "bytes",
					"name": "proof",
					"type": "bytes"
				}
			],
			"name": "commitState",
			"outputs": [],
			"stateMutability": "nonpayable",
			"type": "function"
		},
		{
			"inputs": [
				{
					"internalType": "uint256",
					"name": "io",
					"type": "uint256"
				}
			],
			"name": "latestStateAddress",
			"outputs": [
				{
					"internalType": "address",
					"name": "",
					"type": "address"
				}
			],
			"stateMutability": "view",
			"type": "function"
		},
		{
			"inputs": [
				{
					"internalType": "uint256",
					"name": "tokenId",
					"type": "uint256"
				}
			],
			"name": "nonce",
			"outputs": [
				{
					"internalType": "bytes6",
					"name": "",
					"type": "bytes6"
				}
			],
			"stateMutability": "view",
			"type": "function"
		},
		{
			"inputs": [
				{
					"internalType": "uint256",
					"name": "at",
					"type": "uint256"
				},
				{
					"internalType": "bytes4",
					"name": "selector",
					"type": "bytes4"
				},
				{
					"internalType": "uint256",
					"name": "tokenId",
					"type": "uint256"
				}
			],
			"name": "state",
			"outputs": [
				{
					"internalType": "bytes6",
					"name": "",
					"type": "bytes6"
				}
			],
			"stateMutability": "view",
			"type": "function"
		},
		{
			"inputs": [
				{
					"internalType": "uint256",
					"name": "at",
					"type": "uint256"
				},
				{
					"internalType": "bytes4",
					"name": "selector",
					"type": "bytes4"
				}
			],
			"name": "stateAddress",
			"outputs": [
				{
					"internalType": "address",
					"name": "",
					"type": "address"
				}
			],
			"stateMutability": "view",
			"type": "function"
		}
	]
}